{
	"contracts/Twitter.sol": {
		"Twitter": {
			"abi": [
				{
					"inputs": [],
					"stateMutability": "nonpayable",
					"type": "constructor"
				},
				{
					"inputs": [
						{
							"internalType": "uint16",
							"name": "newLength",
							"type": "uint16"
						}
					],
					"name": "changeTweetLength",
					"outputs": [],
					"stateMutability": "nonpayable",
					"type": "function"
				},
				{
					"inputs": [
						{
							"internalType": "address",
							"name": "_owner",
							"type": "address"
						}
					],
					"name": "getAllTweet",
					"outputs": [
						{
							"components": [
								{
									"internalType": "address",
									"name": "author",
									"type": "address"
								},
								{
									"internalType": "string",
									"name": "content",
									"type": "string"
								},
								{
									"internalType": "uint256",
									"name": "timestamp",
									"type": "uint256"
								},
								{
									"internalType": "uint256",
									"name": "likes",
									"type": "uint256"
								}
							],
							"internalType": "struct Twitter.Tweet[]",
							"name": "",
							"type": "tuple[]"
						}
					],
					"stateMutability": "view",
					"type": "function"
				},
				{
					"inputs": [
						{
							"internalType": "address",
							"name": "_owner",
							"type": "address"
						},
						{
							"internalType": "uint256",
							"name": "_i",
							"type": "uint256"
						}
					],
					"name": "getTweet",
					"outputs": [
						{
							"components": [
								{
									"internalType": "address",
									"name": "author",
									"type": "address"
								},
								{
									"internalType": "string",
									"name": "content",
									"type": "string"
								},
								{
									"internalType": "uint256",
									"name": "timestamp",
									"type": "uint256"
								},
								{
									"internalType": "uint256",
									"name": "likes",
									"type": "uint256"
								}
							],
							"internalType": "struct Twitter.Tweet",
							"name": "",
							"type": "tuple"
						}
					],
					"stateMutability": "view",
					"type": "function"
				},
				{
					"inputs": [],
					"name": "max_char_in_tweet",
					"outputs": [
						{
							"internalType": "uint16",
							"name": "",
							"type": "uint16"
						}
					],
					"stateMutability": "view",
					"type": "function"
				},
				{
					"inputs": [],
					"name": "owner",
					"outputs": [
						{
							"internalType": "address",
							"name": "",
							"type": "address"
						}
					],
					"stateMutability": "view",
					"type": "function"
				},
				{
					"inputs": [
						{
							"internalType": "string",
							"name": "_tweet",
							"type": "string"
						}
					],
					"name": "tweet",
					"outputs": [],
					"stateMutability": "nonpayable",
					"type": "function"
				},
				{
					"inputs": [
						{
							"internalType": "address",
							"name": "",
							"type": "address"
						},
						{
							"internalType": "uint256",
							"name": "",
							"type": "uint256"
						}
					],
					"name": "tweets",
					"outputs": [
						{
							"internalType": "address",
							"name": "author",
							"type": "address"
						},
						{
							"internalType": "string",
							"name": "content",
							"type": "string"
						},
						{
							"internalType": "uint256",
							"name": "timestamp",
							"type": "uint256"
						},
						{
							"internalType": "uint256",
							"name": "likes",
							"type": "uint256"
						}
					],
					"stateMutability": "view",
					"type": "function"
				}
			],
			"devdoc": {
				"kind": "dev",
				"methods": {},
				"version": 1
			},
			"evm": {
				"assembly": "    /* \"contracts/Twitter.sol\":64:1218  contract Twitter {... */\n  mstore(0x40, 0x80)\n    /* \"contracts/Twitter.sol\":121:124  100 */\n  0x64\n    /* \"contracts/Twitter.sol\":87:124  uint16 public max_char_in_tweet = 100 */\n  0x00\n  dup1\n  0x0100\n  exp\n  dup2\n  sload\n  dup2\n  0xffff\n  mul\n  not\n  and\n  swap1\n  dup4\n  0xffff\n  and\n  mul\n  or\n  swap1\n  sstore\n  pop\n    /* \"contracts/Twitter.sol\":325:375  constructor () {... */\n  callvalue\n  dup1\n  iszero\n  tag_1\n  jumpi\n  0x00\n  dup1\n  revert\ntag_1:\n  pop\n    /* \"contracts/Twitter.sol\":358:368  msg.sender */\n  caller\n    /* \"contracts/Twitter.sol\":350:355  owner */\n  0x02\n  0x00\n    /* \"contracts/Twitter.sol\":350:368  owner = msg.sender */\n  0x0100\n  exp\n  dup2\n  sload\n  dup2\n  0xffffffffffffffffffffffffffffffffffffffff\n  mul\n  not\n  and\n  swap1\n  dup4\n  0xffffffffffffffffffffffffffffffffffffffff\n  and\n  mul\n  or\n  swap1\n  sstore\n  pop\n    /* \"contracts/Twitter.sol\":64:1218  contract Twitter {... */\n  dataSize(sub_0)\n  dup1\n  dataOffset(sub_0)\n  0x00\n  codecopy\n  0x00\n  return\nstop\n\nsub_0: assembly {\n        /* \"contracts/Twitter.sol\":64:1218  contract Twitter {... */\n      mstore(0x40, 0x80)\n      callvalue\n      dup1\n      iszero\n      tag_1\n      jumpi\n      0x00\n      dup1\n      revert\n    tag_1:\n      pop\n      jumpi(tag_2, lt(calldatasize, 0x04))\n      shr(0xe0, calldataload(0x00))\n      dup1\n      0x63a7c3aa\n      gt\n      tag_10\n      jumpi\n      dup1\n      0x63a7c3aa\n      eq\n      tag_6\n      jumpi\n      dup1\n      0x8da5cb5b\n      eq\n      tag_7\n      jumpi\n      dup1\n      0xb64988b8\n      eq\n      tag_8\n      jumpi\n      dup1\n      0xfb46d4c5\n      eq\n      tag_9\n      jumpi\n      jump(tag_2)\n    tag_10:\n      dup1\n      0x05a1b4a9\n      eq\n      tag_3\n      jumpi\n      dup1\n      0x112f54e3\n      eq\n      tag_4\n      jumpi\n      dup1\n      0x58bfa4ab\n      eq\n      tag_5\n      jumpi\n    tag_2:\n      0x00\n      dup1\n      revert\n        /* \"contracts/Twitter.sol\":249:291  mapping (address => Tweet[]) public tweets */\n    tag_3:\n      tag_11\n      0x04\n      dup1\n      calldatasize\n      sub\n      dup2\n      add\n      swap1\n      tag_12\n      swap2\n      swap1\n      tag_13\n      jump\t// in\n    tag_12:\n      tag_14\n      jump\t// in\n    tag_11:\n      mload(0x40)\n      tag_15\n      swap5\n      swap4\n      swap3\n      swap2\n      swap1\n      tag_16\n      jump\t// in\n    tag_15:\n      mload(0x40)\n      dup1\n      swap2\n      sub\n      swap1\n      return\n        /* \"contracts/Twitter.sol\":974:1096  function getTweet(address _owner, uint _i) external view returns (Tweet memory) {... */\n    tag_4:\n      tag_17\n      0x04\n      dup1\n      calldatasize\n      sub\n      dup2\n      add\n      swap1\n      tag_18\n      swap2\n      swap1\n      tag_13\n      jump\t// in\n    tag_18:\n      tag_19\n      jump\t// in\n    tag_17:\n      mload(0x40)\n      tag_20\n      swap2\n      swap1\n      tag_21\n      jump\t// in\n    tag_20:\n      mload(0x40)\n      dup1\n      swap2\n      sub\n      swap1\n      return\n        /* \"contracts/Twitter.sol\":504:615  function changeTweetLength (uint16 newLength) external onlyOwner {... */\n    tag_5:\n      tag_22\n      0x04\n      dup1\n      calldatasize\n      sub\n      dup2\n      add\n      swap1\n      tag_23\n      swap2\n      swap1\n      tag_24\n      jump\t// in\n    tag_23:\n      tag_25\n      jump\t// in\n    tag_22:\n      stop\n        /* \"contracts/Twitter.sol\":87:124  uint16 public max_char_in_tweet = 100 */\n    tag_6:\n      tag_26\n      tag_27\n      jump\t// in\n    tag_26:\n      mload(0x40)\n      tag_28\n      swap2\n      swap1\n      tag_29\n      jump\t// in\n    tag_28:\n      mload(0x40)\n      dup1\n      swap2\n      sub\n      swap1\n      return\n        /* \"contracts/Twitter.sol\":297:317  address public owner */\n    tag_7:\n      tag_30\n      tag_31\n      jump\t// in\n    tag_30:\n      mload(0x40)\n      tag_32\n      swap2\n      swap1\n      tag_33\n      jump\t// in\n    tag_32:\n      mload(0x40)\n      dup1\n      swap2\n      sub\n      swap1\n      return\n        /* \"contracts/Twitter.sol\":1102:1216  function getAllTweet(address _owner) external view returns (Tweet[] memory) {... */\n    tag_8:\n      tag_34\n      0x04\n      dup1\n      calldatasize\n      sub\n      dup2\n      add\n      swap1\n      tag_35\n      swap2\n      swap1\n      tag_36\n      jump\t// in\n    tag_35:\n      tag_37\n      jump\t// in\n    tag_34:\n      mload(0x40)\n      tag_38\n      swap2\n      swap1\n      tag_39\n      jump\t// in\n    tag_38:\n      mload(0x40)\n      dup1\n      swap2\n      sub\n      swap1\n      return\n        /* \"contracts/Twitter.sol\":621:968  function tweet(string memory _tweet) external {... */\n    tag_9:\n      tag_40\n      0x04\n      dup1\n      calldatasize\n      sub\n      dup2\n      add\n      swap1\n      tag_41\n      swap2\n      swap1\n      tag_42\n      jump\t// in\n    tag_41:\n      tag_43\n      jump\t// in\n    tag_40:\n      stop\n        /* \"contracts/Twitter.sol\":249:291  mapping (address => Tweet[]) public tweets */\n    tag_14:\n      mstore(0x20, 0x01)\n      dup2\n      0x00\n      mstore\n      keccak256(0x00, 0x40)\n      dup2\n      dup2\n      sload\n      dup2\n      lt\n      tag_44\n      jumpi\n      0x00\n      dup1\n      revert\n    tag_44:\n      swap1\n      0x00\n      mstore\n      keccak256(0x00, 0x20)\n      swap1\n      0x04\n      mul\n      add\n      0x00\n      swap2\n      pop\n      swap2\n      pop\n      pop\n      dup1\n      0x00\n      add\n      0x00\n      swap1\n      sload\n      swap1\n      0x0100\n      exp\n      swap1\n      div\n      0xffffffffffffffffffffffffffffffffffffffff\n      and\n      swap1\n      dup1\n      0x01\n      add\n      dup1\n      sload\n      tag_46\n      swap1\n      tag_47\n      jump\t// in\n    tag_46:\n      dup1\n      0x1f\n      add\n      0x20\n      dup1\n      swap2\n      div\n      mul\n      0x20\n      add\n      mload(0x40)\n      swap1\n      dup2\n      add\n      0x40\n      mstore\n      dup1\n      swap3\n      swap2\n      swap1\n      dup2\n      dup2\n      mstore\n      0x20\n      add\n      dup3\n      dup1\n      sload\n      tag_48\n      swap1\n      tag_47\n      jump\t// in\n    tag_48:\n      dup1\n      iszero\n      tag_49\n      jumpi\n      dup1\n      0x1f\n      lt\n      tag_50\n      jumpi\n      0x0100\n      dup1\n      dup4\n      sload\n      div\n      mul\n      dup4\n      mstore\n      swap2\n      0x20\n      add\n      swap2\n      jump(tag_49)\n    tag_50:\n      dup3\n      add\n      swap2\n      swap1\n      0x00\n      mstore\n      keccak256(0x00, 0x20)\n      swap1\n    tag_51:\n      dup2\n      sload\n      dup2\n      mstore\n      swap1\n      0x01\n      add\n      swap1\n      0x20\n      add\n      dup1\n      dup4\n      gt\n      tag_51\n      jumpi\n      dup3\n      swap1\n      sub\n      0x1f\n      and\n      dup3\n      add\n      swap2\n    tag_49:\n      pop\n      pop\n      pop\n      pop\n      pop\n      swap1\n      dup1\n      0x02\n      add\n      sload\n      swap1\n      dup1\n      0x03\n      add\n      sload\n      swap1\n      pop\n      dup5\n      jump\t// out\n        /* \"contracts/Twitter.sol\":974:1096  function getTweet(address _owner, uint _i) external view returns (Tweet memory) {... */\n    tag_19:\n        /* \"contracts/Twitter.sol\":1040:1052  Tweet memory */\n      tag_52\n      tag_53\n      jump\t// in\n    tag_52:\n        /* \"contracts/Twitter.sol\":1071:1077  tweets */\n      0x01\n        /* \"contracts/Twitter.sol\":1071:1085  tweets[_owner] */\n      0x00\n        /* \"contracts/Twitter.sol\":1078:1084  _owner */\n      dup5\n        /* \"contracts/Twitter.sol\":1071:1085  tweets[_owner] */\n      0xffffffffffffffffffffffffffffffffffffffff\n      and\n      0xffffffffffffffffffffffffffffffffffffffff\n      and\n      dup2\n      mstore\n      0x20\n      add\n      swap1\n      dup2\n      mstore\n      0x20\n      add\n      0x00\n      keccak256\n        /* \"contracts/Twitter.sol\":1086:1088  _i */\n      dup3\n        /* \"contracts/Twitter.sol\":1071:1089  tweets[_owner][_i] */\n      dup2\n      sload\n      dup2\n      lt\n      tag_55\n      jumpi\n      tag_56\n      tag_57\n      jump\t// in\n    tag_56:\n    tag_55:\n      swap1\n      0x00\n      mstore\n      keccak256(0x00, 0x20)\n      swap1\n      0x04\n      mul\n      add\n        /* \"contracts/Twitter.sol\":1064:1089  return tweets[_owner][_i] */\n      mload(0x40)\n      dup1\n      0x80\n      add\n      0x40\n      mstore\n      swap1\n      dup2\n      0x00\n      dup3\n      add\n      0x00\n      swap1\n      sload\n      swap1\n      0x0100\n      exp\n      swap1\n      div\n      0xffffffffffffffffffffffffffffffffffffffff\n      and\n      0xffffffffffffffffffffffffffffffffffffffff\n      and\n      0xffffffffffffffffffffffffffffffffffffffff\n      and\n      dup2\n      mstore\n      0x20\n      add\n      0x01\n      dup3\n      add\n      dup1\n      sload\n      tag_59\n      swap1\n      tag_47\n      jump\t// in\n    tag_59:\n      dup1\n      0x1f\n      add\n      0x20\n      dup1\n      swap2\n      div\n      mul\n      0x20\n      add\n      mload(0x40)\n      swap1\n      dup2\n      add\n      0x40\n      mstore\n      dup1\n      swap3\n      swap2\n      swap1\n      dup2\n      dup2\n      mstore\n      0x20\n      add\n      dup3\n      dup1\n      sload\n      tag_60\n      swap1\n      tag_47\n      jump\t// in\n    tag_60:\n      dup1\n      iszero\n      tag_61\n      jumpi\n      dup1\n      0x1f\n      lt\n      tag_62\n      jumpi\n      0x0100\n      dup1\n      dup4\n      sload\n      div\n      mul\n      dup4\n      mstore\n      swap2\n      0x20\n      add\n      swap2\n      jump(tag_61)\n    tag_62:\n      dup3\n      add\n      swap2\n      swap1\n      0x00\n      mstore\n      keccak256(0x00, 0x20)\n      swap1\n    tag_63:\n      dup2\n      sload\n      dup2\n      mstore\n      swap1\n      0x01\n      add\n      swap1\n      0x20\n      add\n      dup1\n      dup4\n      gt\n      tag_63\n      jumpi\n      dup3\n      swap1\n      sub\n      0x1f\n      and\n      dup3\n      add\n      swap2\n    tag_61:\n      pop\n      pop\n      pop\n      pop\n      pop\n      dup2\n      mstore\n      0x20\n      add\n      0x02\n      dup3\n      add\n      sload\n      dup2\n      mstore\n      0x20\n      add\n      0x03\n      dup3\n      add\n      sload\n      dup2\n      mstore\n      pop\n      pop\n      swap1\n      pop\n        /* \"contracts/Twitter.sol\":974:1096  function getTweet(address _owner, uint _i) external view returns (Tweet memory) {... */\n      swap3\n      swap2\n      pop\n      pop\n      jump\t// out\n        /* \"contracts/Twitter.sol\":504:615  function changeTweetLength (uint16 newLength) external onlyOwner {... */\n    tag_25:\n        /* \"contracts/Twitter.sol\":432:437  owner */\n      0x02\n      0x00\n      swap1\n      sload\n      swap1\n      0x0100\n      exp\n      swap1\n      div\n      0xffffffffffffffffffffffffffffffffffffffff\n      and\n        /* \"contracts/Twitter.sol\":418:437  msg.sender == owner */\n      0xffffffffffffffffffffffffffffffffffffffff\n      and\n        /* \"contracts/Twitter.sol\":418:428  msg.sender */\n      caller\n        /* \"contracts/Twitter.sol\":418:437  msg.sender == owner */\n      0xffffffffffffffffffffffffffffffffffffffff\n      and\n      eq\n        /* \"contracts/Twitter.sol\":410:480  require(msg.sender == owner, \"you are not the owner of the contract!\") */\n      tag_65\n      jumpi\n      mload(0x40)\n      0x08c379a000000000000000000000000000000000000000000000000000000000\n      dup2\n      mstore\n      0x04\n      add\n      tag_66\n      swap1\n      tag_67\n      jump\t// in\n    tag_66:\n      mload(0x40)\n      dup1\n      swap2\n      sub\n      swap1\n      revert\n    tag_65:\n        /* \"contracts/Twitter.sol\":599:608  newLength */\n      dup1\n        /* \"contracts/Twitter.sol\":579:596  max_char_in_tweet */\n      0x00\n      dup1\n        /* \"contracts/Twitter.sol\":579:608  max_char_in_tweet = newLength */\n      0x0100\n      exp\n      dup2\n      sload\n      dup2\n      0xffff\n      mul\n      not\n      and\n      swap1\n      dup4\n      0xffff\n      and\n      mul\n      or\n      swap1\n      sstore\n      pop\n        /* \"contracts/Twitter.sol\":504:615  function changeTweetLength (uint16 newLength) external onlyOwner {... */\n      pop\n      jump\t// out\n        /* \"contracts/Twitter.sol\":87:124  uint16 public max_char_in_tweet = 100 */\n    tag_27:\n      0x00\n      dup1\n      sload\n      swap1\n      0x0100\n      exp\n      swap1\n      div\n      0xffff\n      and\n      dup2\n      jump\t// out\n        /* \"contracts/Twitter.sol\":297:317  address public owner */\n    tag_31:\n      0x02\n      0x00\n      swap1\n      sload\n      swap1\n      0x0100\n      exp\n      swap1\n      div\n      0xffffffffffffffffffffffffffffffffffffffff\n      and\n      dup2\n      jump\t// out\n        /* \"contracts/Twitter.sol\":1102:1216  function getAllTweet(address _owner) external view returns (Tweet[] memory) {... */\n    tag_37:\n        /* \"contracts/Twitter.sol\":1162:1176  Tweet[] memory */\n      0x60\n        /* \"contracts/Twitter.sol\":1195:1201  tweets */\n      0x01\n        /* \"contracts/Twitter.sol\":1195:1209  tweets[_owner] */\n      0x00\n        /* \"contracts/Twitter.sol\":1202:1208  _owner */\n      dup4\n        /* \"contracts/Twitter.sol\":1195:1209  tweets[_owner] */\n      0xffffffffffffffffffffffffffffffffffffffff\n      and\n      0xffffffffffffffffffffffffffffffffffffffff\n      and\n      dup2\n      mstore\n      0x20\n      add\n      swap1\n      dup2\n      mstore\n      0x20\n      add\n      0x00\n      keccak256\n        /* \"contracts/Twitter.sol\":1188:1209  return tweets[_owner] */\n      dup1\n      sload\n      dup1\n      0x20\n      mul\n      0x20\n      add\n      mload(0x40)\n      swap1\n      dup2\n      add\n      0x40\n      mstore\n      dup1\n      swap3\n      swap2\n      swap1\n      dup2\n      dup2\n      mstore\n      0x20\n      add\n      0x00\n      swap1\n    tag_70:\n      dup3\n      dup3\n      lt\n      iszero\n      tag_71\n      jumpi\n      dup4\n      dup3\n      swap1\n      0x00\n      mstore\n      keccak256(0x00, 0x20)\n      swap1\n      0x04\n      mul\n      add\n      mload(0x40)\n      dup1\n      0x80\n      add\n      0x40\n      mstore\n      swap1\n      dup2\n      0x00\n      dup3\n      add\n      0x00\n      swap1\n      sload\n      swap1\n      0x0100\n      exp\n      swap1\n      div\n      0xffffffffffffffffffffffffffffffffffffffff\n      and\n      0xffffffffffffffffffffffffffffffffffffffff\n      and\n      0xffffffffffffffffffffffffffffffffffffffff\n      and\n      dup2\n      mstore\n      0x20\n      add\n      0x01\n      dup3\n      add\n      dup1\n      sload\n      tag_73\n      swap1\n      tag_47\n      jump\t// in\n    tag_73:\n      dup1\n      0x1f\n      add\n      0x20\n      dup1\n      swap2\n      div\n      mul\n      0x20\n      add\n      mload(0x40)\n      swap1\n      dup2\n      add\n      0x40\n      mstore\n      dup1\n      swap3\n      swap2\n      swap1\n      dup2\n      dup2\n      mstore\n      0x20\n      add\n      dup3\n      dup1\n      sload\n      tag_74\n      swap1\n      tag_47\n      jump\t// in\n    tag_74:\n      dup1\n      iszero\n      tag_75\n      jumpi\n      dup1\n      0x1f\n      lt\n      tag_76\n      jumpi\n      0x0100\n      dup1\n      dup4\n      sload\n      div\n      mul\n      dup4\n      mstore\n      swap2\n      0x20\n      add\n      swap2\n      jump(tag_75)\n    tag_76:\n      dup3\n      add\n      swap2\n      swap1\n      0x00\n      mstore\n      keccak256(0x00, 0x20)\n      swap1\n    tag_77:\n      dup2\n      sload\n      dup2\n      mstore\n      swap1\n      0x01\n      add\n      swap1\n      0x20\n      add\n      dup1\n      dup4\n      gt\n      tag_77\n      jumpi\n      dup3\n      swap1\n      sub\n      0x1f\n      and\n      dup3\n      add\n      swap2\n    tag_75:\n      pop\n      pop\n      pop\n      pop\n      pop\n      dup2\n      mstore\n      0x20\n      add\n      0x02\n      dup3\n      add\n      sload\n      dup2\n      mstore\n      0x20\n      add\n      0x03\n      dup3\n      add\n      sload\n      dup2\n      mstore\n      pop\n      pop\n      dup2\n      mstore\n      0x20\n      add\n      swap1\n      0x01\n      add\n      swap1\n      jump(tag_70)\n    tag_71:\n      pop\n      pop\n      pop\n      pop\n      swap1\n      pop\n        /* \"contracts/Twitter.sol\":1102:1216  function getAllTweet(address _owner) external view returns (Tweet[] memory) {... */\n      swap2\n      swap1\n      pop\n      jump\t// out\n        /* \"contracts/Twitter.sol\":621:968  function tweet(string memory _tweet) external {... */\n    tag_43:\n        /* \"contracts/Twitter.sol\":710:727  max_char_in_tweet */\n      0x00\n      dup1\n      sload\n      swap1\n      0x0100\n      exp\n      swap1\n      div\n      0xffff\n      and\n        /* \"contracts/Twitter.sol\":686:727  bytes(_tweet).length <= max_char_in_tweet */\n      0xffff\n      and\n        /* \"contracts/Twitter.sol\":692:698  _tweet */\n      dup2\n        /* \"contracts/Twitter.sol\":686:706  bytes(_tweet).length */\n      mload\n        /* \"contracts/Twitter.sol\":686:727  bytes(_tweet).length <= max_char_in_tweet */\n      gt\n      iszero\n        /* \"contracts/Twitter.sol\":678:741  require(bytes(_tweet).length <= max_char_in_tweet, \"too long!\") */\n      tag_79\n      jumpi\n      mload(0x40)\n      0x08c379a000000000000000000000000000000000000000000000000000000000\n      dup2\n      mstore\n      0x04\n      add\n      tag_80\n      swap1\n      tag_81\n      jump\t// in\n    tag_80:\n      mload(0x40)\n      dup1\n      swap2\n      sub\n      swap1\n      revert\n    tag_79:\n        /* \"contracts/Twitter.sol\":752:773  Tweet memory newTweet */\n      0x00\n        /* \"contracts/Twitter.sol\":776:916  Tweet({... */\n      mload(0x40)\n      dup1\n      0x80\n      add\n      0x40\n      mstore\n      dup1\n        /* \"contracts/Twitter.sol\":804:814  msg.sender */\n      caller\n        /* \"contracts/Twitter.sol\":776:916  Tweet({... */\n      0xffffffffffffffffffffffffffffffffffffffff\n      and\n      dup2\n      mstore\n      0x20\n      add\n        /* \"contracts/Twitter.sol\":837:843  _tweet */\n      dup4\n        /* \"contracts/Twitter.sol\":776:916  Tweet({... */\n      dup2\n      mstore\n      0x20\n      add\n        /* \"contracts/Twitter.sol\":868:883  block.timestamp */\n      timestamp\n        /* \"contracts/Twitter.sol\":776:916  Tweet({... */\n      dup2\n      mstore\n      0x20\n      add\n        /* \"contracts/Twitter.sol\":904:905  0 */\n      0x00\n        /* \"contracts/Twitter.sol\":776:916  Tweet({... */\n      dup2\n      mstore\n      pop\n        /* \"contracts/Twitter.sol\":752:916  Tweet memory newTweet = Tweet({... */\n      swap1\n      pop\n        /* \"contracts/Twitter.sol\":927:933  tweets */\n      0x01\n        /* \"contracts/Twitter.sol\":927:945  tweets[msg.sender] */\n      0x00\n        /* \"contracts/Twitter.sol\":934:944  msg.sender */\n      caller\n        /* \"contracts/Twitter.sol\":927:945  tweets[msg.sender] */\n      0xffffffffffffffffffffffffffffffffffffffff\n      and\n      0xffffffffffffffffffffffffffffffffffffffff\n      and\n      dup2\n      mstore\n      0x20\n      add\n      swap1\n      dup2\n      mstore\n      0x20\n      add\n      0x00\n      keccak256\n        /* \"contracts/Twitter.sol\":951:959  newTweet */\n      dup2\n        /* \"contracts/Twitter.sol\":927:960  tweets[msg.sender].push(newTweet) */\n      swap1\n      dup1\n      0x01\n      dup2\n      sload\n      add\n      dup1\n      dup3\n      sstore\n      dup1\n      swap2\n      pop\n      pop\n      0x01\n      swap1\n      sub\n      swap1\n      0x00\n      mstore\n      keccak256(0x00, 0x20)\n      swap1\n      0x04\n      mul\n      add\n      0x00\n      swap1\n      swap2\n      swap1\n      swap2\n      swap1\n      swap2\n      pop\n      0x00\n      dup3\n      add\n      mload\n      dup2\n      0x00\n      add\n      exp(0x0100, 0x00)\n      dup2\n      sload\n      dup2\n      0xffffffffffffffffffffffffffffffffffffffff\n      mul\n      not\n      and\n      swap1\n      dup4\n      0xffffffffffffffffffffffffffffffffffffffff\n      and\n      mul\n      or\n      swap1\n      sstore\n      pop\n      0x20\n      dup3\n      add\n      mload\n      dup2\n      0x01\n      add\n      swap1\n      dup2\n      tag_83\n      swap2\n      swap1\n      tag_84\n      jump\t// in\n    tag_83:\n      pop\n      0x40\n      dup3\n      add\n      mload\n      dup2\n      0x02\n      add\n      sstore\n      0x60\n      dup3\n      add\n      mload\n      dup2\n      0x03\n      add\n      sstore\n      pop\n      pop\n        /* \"contracts/Twitter.sol\":667:968  {... */\n      pop\n        /* \"contracts/Twitter.sol\":621:968  function tweet(string memory _tweet) external {... */\n      pop\n      jump\t// out\n    tag_53:\n      mload(0x40)\n      dup1\n      0x80\n      add\n      0x40\n      mstore\n      dup1\n      and(0xffffffffffffffffffffffffffffffffffffffff, 0x00)\n      dup2\n      mstore\n      0x20\n      add\n      0x60\n      dup2\n      mstore\n      0x20\n      add\n      0x00\n      dup2\n      mstore\n      0x20\n      add\n      0x00\n      dup2\n      mstore\n      pop\n      swap1\n      jump\t// out\n        /* \"#utility.yul\":7:82   */\n    tag_85:\n        /* \"#utility.yul\":40:46   */\n      0x00\n        /* \"#utility.yul\":73:75   */\n      0x40\n        /* \"#utility.yul\":67:76   */\n      mload\n        /* \"#utility.yul\":57:76   */\n      swap1\n      pop\n        /* \"#utility.yul\":7:82   */\n      swap1\n      jump\t// out\n        /* \"#utility.yul\":88:205   */\n    tag_86:\n        /* \"#utility.yul\":197:198   */\n      0x00\n        /* \"#utility.yul\":194:195   */\n      dup1\n        /* \"#utility.yul\":187:199   */\n      revert\n        /* \"#utility.yul\":211:328   */\n    tag_87:\n        /* \"#utility.yul\":320:321   */\n      0x00\n        /* \"#utility.yul\":317:318   */\n      dup1\n        /* \"#utility.yul\":310:322   */\n      revert\n        /* \"#utility.yul\":334:460   */\n    tag_88:\n        /* \"#utility.yul\":371:378   */\n      0x00\n        /* \"#utility.yul\":411:453   */\n      0xffffffffffffffffffffffffffffffffffffffff\n        /* \"#utility.yul\":404:409   */\n      dup3\n        /* \"#utility.yul\":400:454   */\n      and\n        /* \"#utility.yul\":389:454   */\n      swap1\n      pop\n        /* \"#utility.yul\":334:460   */\n      swap2\n      swap1\n      pop\n      jump\t// out\n        /* \"#utility.yul\":466:562   */\n    tag_89:\n        /* \"#utility.yul\":503:510   */\n      0x00\n        /* \"#utility.yul\":532:556   */\n      tag_153\n        /* \"#utility.yul\":550:555   */\n      dup3\n        /* \"#utility.yul\":532:556   */\n      tag_88\n      jump\t// in\n    tag_153:\n        /* \"#utility.yul\":521:556   */\n      swap1\n      pop\n        /* \"#utility.yul\":466:562   */\n      swap2\n      swap1\n      pop\n      jump\t// out\n        /* \"#utility.yul\":568:690   */\n    tag_90:\n        /* \"#utility.yul\":641:665   */\n      tag_155\n        /* \"#utility.yul\":659:664   */\n      dup2\n        /* \"#utility.yul\":641:665   */\n      tag_89\n      jump\t// in\n    tag_155:\n        /* \"#utility.yul\":634:639   */\n      dup2\n        /* \"#utility.yul\":631:666   */\n      eq\n        /* \"#utility.yul\":621:684   */\n      tag_156\n      jumpi\n        /* \"#utility.yul\":680:681   */\n      0x00\n        /* \"#utility.yul\":677:678   */\n      dup1\n        /* \"#utility.yul\":670:682   */\n      revert\n        /* \"#utility.yul\":621:684   */\n    tag_156:\n        /* \"#utility.yul\":568:690   */\n      pop\n      jump\t// out\n        /* \"#utility.yul\":696:835   */\n    tag_91:\n        /* \"#utility.yul\":742:747   */\n      0x00\n        /* \"#utility.yul\":780:786   */\n      dup2\n        /* \"#utility.yul\":767:787   */\n      calldataload\n        /* \"#utility.yul\":758:787   */\n      swap1\n      pop\n        /* \"#utility.yul\":796:829   */\n      tag_158\n        /* \"#utility.yul\":823:828   */\n      dup2\n        /* \"#utility.yul\":796:829   */\n      tag_90\n      jump\t// in\n    tag_158:\n        /* \"#utility.yul\":696:835   */\n      swap3\n      swap2\n      pop\n      pop\n      jump\t// out\n        /* \"#utility.yul\":841:918   */\n    tag_92:\n        /* \"#utility.yul\":878:885   */\n      0x00\n        /* \"#utility.yul\":907:912   */\n      dup2\n        /* \"#utility.yul\":896:912   */\n      swap1\n      pop\n        /* \"#utility.yul\":841:918   */\n      swap2\n      swap1\n      pop\n      jump\t// out\n        /* \"#utility.yul\":924:1046   */\n    tag_93:\n        /* \"#utility.yul\":997:1021   */\n      tag_161\n        /* \"#utility.yul\":1015:1020   */\n      dup2\n        /* \"#utility.yul\":997:1021   */\n      tag_92\n      jump\t// in\n    tag_161:\n        /* \"#utility.yul\":990:995   */\n      dup2\n        /* \"#utility.yul\":987:1022   */\n      eq\n        /* \"#utility.yul\":977:1040   */\n      tag_162\n      jumpi\n        /* \"#utility.yul\":1036:1037   */\n      0x00\n        /* \"#utility.yul\":1033:1034   */\n      dup1\n        /* \"#utility.yul\":1026:1038   */\n      revert\n        /* \"#utility.yul\":977:1040   */\n    tag_162:\n        /* \"#utility.yul\":924:1046   */\n      pop\n      jump\t// out\n        /* \"#utility.yul\":1052:1191   */\n    tag_94:\n        /* \"#utility.yul\":1098:1103   */\n      0x00\n        /* \"#utility.yul\":1136:1142   */\n      dup2\n        /* \"#utility.yul\":1123:1143   */\n      calldataload\n        /* \"#utility.yul\":1114:1143   */\n      swap1\n      pop\n        /* \"#utility.yul\":1152:1185   */\n      tag_164\n        /* \"#utility.yul\":1179:1184   */\n      dup2\n        /* \"#utility.yul\":1152:1185   */\n      tag_93\n      jump\t// in\n    tag_164:\n        /* \"#utility.yul\":1052:1191   */\n      swap3\n      swap2\n      pop\n      pop\n      jump\t// out\n        /* \"#utility.yul\":1197:1671   */\n    tag_13:\n        /* \"#utility.yul\":1265:1271   */\n      0x00\n        /* \"#utility.yul\":1273:1279   */\n      dup1\n        /* \"#utility.yul\":1322:1324   */\n      0x40\n        /* \"#utility.yul\":1310:1319   */\n      dup4\n        /* \"#utility.yul\":1301:1308   */\n      dup6\n        /* \"#utility.yul\":1297:1320   */\n      sub\n        /* \"#utility.yul\":1293:1325   */\n      slt\n        /* \"#utility.yul\":1290:1409   */\n      iszero\n      tag_166\n      jumpi\n        /* \"#utility.yul\":1328:1407   */\n      tag_167\n      tag_86\n      jump\t// in\n    tag_167:\n        /* \"#utility.yul\":1290:1409   */\n    tag_166:\n        /* \"#utility.yul\":1448:1449   */\n      0x00\n        /* \"#utility.yul\":1473:1526   */\n      tag_168\n        /* \"#utility.yul\":1518:1525   */\n      dup6\n        /* \"#utility.yul\":1509:1515   */\n      dup3\n        /* \"#utility.yul\":1498:1507   */\n      dup7\n        /* \"#utility.yul\":1494:1516   */\n      add\n        /* \"#utility.yul\":1473:1526   */\n      tag_91\n      jump\t// in\n    tag_168:\n        /* \"#utility.yul\":1463:1526   */\n      swap3\n      pop\n        /* \"#utility.yul\":1419:1536   */\n      pop\n        /* \"#utility.yul\":1575:1577   */\n      0x20\n        /* \"#utility.yul\":1601:1654   */\n      tag_169\n        /* \"#utility.yul\":1646:1653   */\n      dup6\n        /* \"#utility.yul\":1637:1643   */\n      dup3\n        /* \"#utility.yul\":1626:1635   */\n      dup7\n        /* \"#utility.yul\":1622:1644   */\n      add\n        /* \"#utility.yul\":1601:1654   */\n      tag_94\n      jump\t// in\n    tag_169:\n        /* \"#utility.yul\":1591:1654   */\n      swap2\n      pop\n        /* \"#utility.yul\":1546:1664   */\n      pop\n        /* \"#utility.yul\":1197:1671   */\n      swap3\n      pop\n      swap3\n      swap1\n      pop\n      jump\t// out\n        /* \"#utility.yul\":1677:1795   */\n    tag_95:\n        /* \"#utility.yul\":1764:1788   */\n      tag_171\n        /* \"#utility.yul\":1782:1787   */\n      dup2\n        /* \"#utility.yul\":1764:1788   */\n      tag_89\n      jump\t// in\n    tag_171:\n        /* \"#utility.yul\":1759:1762   */\n      dup3\n        /* \"#utility.yul\":1752:1789   */\n      mstore\n        /* \"#utility.yul\":1677:1795   */\n      pop\n      pop\n      jump\t// out\n        /* \"#utility.yul\":1801:1900   */\n    tag_96:\n        /* \"#utility.yul\":1853:1859   */\n      0x00\n        /* \"#utility.yul\":1887:1892   */\n      dup2\n        /* \"#utility.yul\":1881:1893   */\n      mload\n        /* \"#utility.yul\":1871:1893   */\n      swap1\n      pop\n        /* \"#utility.yul\":1801:1900   */\n      swap2\n      swap1\n      pop\n      jump\t// out\n        /* \"#utility.yul\":1906:2075   */\n    tag_97:\n        /* \"#utility.yul\":1990:2001   */\n      0x00\n        /* \"#utility.yul\":2024:2030   */\n      dup3\n        /* \"#utility.yul\":2019:2022   */\n      dup3\n        /* \"#utility.yul\":2012:2031   */\n      mstore\n        /* \"#utility.yul\":2064:2068   */\n      0x20\n        /* \"#utility.yul\":2059:2062   */\n      dup3\n        /* \"#utility.yul\":2055:2069   */\n      add\n        /* \"#utility.yul\":2040:2069   */\n      swap1\n      pop\n        /* \"#utility.yul\":1906:2075   */\n      swap3\n      swap2\n      pop\n      pop\n      jump\t// out\n        /* \"#utility.yul\":2081:2220   */\n    tag_98:\n        /* \"#utility.yul\":2170:2176   */\n      dup3\n        /* \"#utility.yul\":2165:2168   */\n      dup2\n        /* \"#utility.yul\":2160:2163   */\n      dup4\n        /* \"#utility.yul\":2154:2177   */\n      mcopy\n        /* \"#utility.yul\":2211:2212   */\n      0x00\n        /* \"#utility.yul\":2202:2208   */\n      dup4\n        /* \"#utility.yul\":2197:2200   */\n      dup4\n        /* \"#utility.yul\":2193:2209   */\n      add\n        /* \"#utility.yul\":2186:2213   */\n      mstore\n        /* \"#utility.yul\":2081:2220   */\n      pop\n      pop\n      pop\n      jump\t// out\n        /* \"#utility.yul\":2226:2328   */\n    tag_99:\n        /* \"#utility.yul\":2267:2273   */\n      0x00\n        /* \"#utility.yul\":2318:2320   */\n      0x1f\n        /* \"#utility.yul\":2314:2321   */\n      not\n        /* \"#utility.yul\":2309:2311   */\n      0x1f\n        /* \"#utility.yul\":2302:2307   */\n      dup4\n        /* \"#utility.yul\":2298:2312   */\n      add\n        /* \"#utility.yul\":2294:2322   */\n      and\n        /* \"#utility.yul\":2284:2322   */\n      swap1\n      pop\n        /* \"#utility.yul\":2226:2328   */\n      swap2\n      swap1\n      pop\n      jump\t// out\n        /* \"#utility.yul\":2334:2711   */\n    tag_100:\n        /* \"#utility.yul\":2422:2425   */\n      0x00\n        /* \"#utility.yul\":2450:2489   */\n      tag_177\n        /* \"#utility.yul\":2483:2488   */\n      dup3\n        /* \"#utility.yul\":2450:2489   */\n      tag_96\n      jump\t// in\n    tag_177:\n        /* \"#utility.yul\":2505:2576   */\n      tag_178\n        /* \"#utility.yul\":2569:2575   */\n      dup2\n        /* \"#utility.yul\":2564:2567   */\n      dup6\n        /* \"#utility.yul\":2505:2576   */\n      tag_97\n      jump\t// in\n    tag_178:\n        /* \"#utility.yul\":2498:2576   */\n      swap4\n      pop\n        /* \"#utility.yul\":2585:2650   */\n      tag_179\n        /* \"#utility.yul\":2643:2649   */\n      dup2\n        /* \"#utility.yul\":2638:2641   */\n      dup6\n        /* \"#utility.yul\":2631:2635   */\n      0x20\n        /* \"#utility.yul\":2624:2629   */\n      dup7\n        /* \"#utility.yul\":2620:2636   */\n      add\n        /* \"#utility.yul\":2585:2650   */\n      tag_98\n      jump\t// in\n    tag_179:\n        /* \"#utility.yul\":2675:2704   */\n      tag_180\n        /* \"#utility.yul\":2697:2703   */\n      dup2\n        /* \"#utility.yul\":2675:2704   */\n      tag_99\n      jump\t// in\n    tag_180:\n        /* \"#utility.yul\":2670:2673   */\n      dup5\n        /* \"#utility.yul\":2666:2705   */\n      add\n        /* \"#utility.yul\":2659:2705   */\n      swap2\n      pop\n        /* \"#utility.yul\":2426:2711   */\n      pop\n        /* \"#utility.yul\":2334:2711   */\n      swap3\n      swap2\n      pop\n      pop\n      jump\t// out\n        /* \"#utility.yul\":2717:2835   */\n    tag_101:\n        /* \"#utility.yul\":2804:2828   */\n      tag_182\n        /* \"#utility.yul\":2822:2827   */\n      dup2\n        /* \"#utility.yul\":2804:2828   */\n      tag_92\n      jump\t// in\n    tag_182:\n        /* \"#utility.yul\":2799:2802   */\n      dup3\n        /* \"#utility.yul\":2792:2829   */\n      mstore\n        /* \"#utility.yul\":2717:2835   */\n      pop\n      pop\n      jump\t// out\n        /* \"#utility.yul\":2841:3485   */\n    tag_16:\n        /* \"#utility.yul\":3038:3042   */\n      0x00\n        /* \"#utility.yul\":3076:3079   */\n      0x80\n        /* \"#utility.yul\":3065:3074   */\n      dup3\n        /* \"#utility.yul\":3061:3080   */\n      add\n        /* \"#utility.yul\":3053:3080   */\n      swap1\n      pop\n        /* \"#utility.yul\":3090:3161   */\n      tag_184\n        /* \"#utility.yul\":3158:3159   */\n      0x00\n        /* \"#utility.yul\":3147:3156   */\n      dup4\n        /* \"#utility.yul\":3143:3160   */\n      add\n        /* \"#utility.yul\":3134:3140   */\n      dup8\n        /* \"#utility.yul\":3090:3161   */\n      tag_95\n      jump\t// in\n    tag_184:\n        /* \"#utility.yul\":3208:3217   */\n      dup2\n        /* \"#utility.yul\":3202:3206   */\n      dup2\n        /* \"#utility.yul\":3198:3218   */\n      sub\n        /* \"#utility.yul\":3193:3195   */\n      0x20\n        /* \"#utility.yul\":3182:3191   */\n      dup4\n        /* \"#utility.yul\":3178:3196   */\n      add\n        /* \"#utility.yul\":3171:3219   */\n      mstore\n        /* \"#utility.yul\":3236:3314   */\n      tag_185\n        /* \"#utility.yul\":3309:3313   */\n      dup2\n        /* \"#utility.yul\":3300:3306   */\n      dup7\n        /* \"#utility.yul\":3236:3314   */\n      tag_100\n      jump\t// in\n    tag_185:\n        /* \"#utility.yul\":3228:3314   */\n      swap1\n      pop\n        /* \"#utility.yul\":3324:3396   */\n      tag_186\n        /* \"#utility.yul\":3392:3394   */\n      0x40\n        /* \"#utility.yul\":3381:3390   */\n      dup4\n        /* \"#utility.yul\":3377:3395   */\n      add\n        /* \"#utility.yul\":3368:3374   */\n      dup6\n        /* \"#utility.yul\":3324:3396   */\n      tag_101\n      jump\t// in\n    tag_186:\n        /* \"#utility.yul\":3406:3478   */\n      tag_187\n        /* \"#utility.yul\":3474:3476   */\n      0x60\n        /* \"#utility.yul\":3463:3472   */\n      dup4\n        /* \"#utility.yul\":3459:3477   */\n      add\n        /* \"#utility.yul\":3450:3456   */\n      dup5\n        /* \"#utility.yul\":3406:3478   */\n      tag_101\n      jump\t// in\n    tag_187:\n        /* \"#utility.yul\":2841:3485   */\n      swap6\n      swap5\n      pop\n      pop\n      pop\n      pop\n      pop\n      jump\t// out\n        /* \"#utility.yul\":3491:3599   */\n    tag_102:\n        /* \"#utility.yul\":3568:3592   */\n      tag_189\n        /* \"#utility.yul\":3586:3591   */\n      dup2\n        /* \"#utility.yul\":3568:3592   */\n      tag_89\n      jump\t// in\n    tag_189:\n        /* \"#utility.yul\":3563:3566   */\n      dup3\n        /* \"#utility.yul\":3556:3593   */\n      mstore\n        /* \"#utility.yul\":3491:3599   */\n      pop\n      pop\n      jump\t// out\n        /* \"#utility.yul\":3605:3764   */\n    tag_103:\n        /* \"#utility.yul\":3679:3690   */\n      0x00\n        /* \"#utility.yul\":3713:3719   */\n      dup3\n        /* \"#utility.yul\":3708:3711   */\n      dup3\n        /* \"#utility.yul\":3701:3720   */\n      mstore\n        /* \"#utility.yul\":3753:3757   */\n      0x20\n        /* \"#utility.yul\":3748:3751   */\n      dup3\n        /* \"#utility.yul\":3744:3758   */\n      add\n        /* \"#utility.yul\":3729:3758   */\n      swap1\n      pop\n        /* \"#utility.yul\":3605:3764   */\n      swap3\n      swap2\n      pop\n      pop\n      jump\t// out\n        /* \"#utility.yul\":3770:4127   */\n    tag_104:\n        /* \"#utility.yul\":3848:3851   */\n      0x00\n        /* \"#utility.yul\":3876:3915   */\n      tag_192\n        /* \"#utility.yul\":3909:3914   */\n      dup3\n        /* \"#utility.yul\":3876:3915   */\n      tag_96\n      jump\t// in\n    tag_192:\n        /* \"#utility.yul\":3931:3992   */\n      tag_193\n        /* \"#utility.yul\":3985:3991   */\n      dup2\n        /* \"#utility.yul\":3980:3983   */\n      dup6\n        /* \"#utility.yul\":3931:3992   */\n      tag_103\n      jump\t// in\n    tag_193:\n        /* \"#utility.yul\":3924:3992   */\n      swap4\n      pop\n        /* \"#utility.yul\":4001:4066   */\n      tag_194\n        /* \"#utility.yul\":4059:4065   */\n      dup2\n        /* \"#utility.yul\":4054:4057   */\n      dup6\n        /* \"#utility.yul\":4047:4051   */\n      0x20\n        /* \"#utility.yul\":4040:4045   */\n      dup7\n        /* \"#utility.yul\":4036:4052   */\n      add\n        /* \"#utility.yul\":4001:4066   */\n      tag_98\n      jump\t// in\n    tag_194:\n        /* \"#utility.yul\":4091:4120   */\n      tag_195\n        /* \"#utility.yul\":4113:4119   */\n      dup2\n        /* \"#utility.yul\":4091:4120   */\n      tag_99\n      jump\t// in\n    tag_195:\n        /* \"#utility.yul\":4086:4089   */\n      dup5\n        /* \"#utility.yul\":4082:4121   */\n      add\n        /* \"#utility.yul\":4075:4121   */\n      swap2\n      pop\n        /* \"#utility.yul\":3852:4127   */\n      pop\n        /* \"#utility.yul\":3770:4127   */\n      swap3\n      swap2\n      pop\n      pop\n      jump\t// out\n        /* \"#utility.yul\":4133:4241   */\n    tag_105:\n        /* \"#utility.yul\":4210:4234   */\n      tag_197\n        /* \"#utility.yul\":4228:4233   */\n      dup2\n        /* \"#utility.yul\":4210:4234   */\n      tag_92\n      jump\t// in\n    tag_197:\n        /* \"#utility.yul\":4205:4208   */\n      dup3\n        /* \"#utility.yul\":4198:4235   */\n      mstore\n        /* \"#utility.yul\":4133:4241   */\n      pop\n      pop\n      jump\t// out\n        /* \"#utility.yul\":4299:5256   */\n    tag_106:\n        /* \"#utility.yul\":4410:4413   */\n      0x00\n        /* \"#utility.yul\":4446:4450   */\n      0x80\n        /* \"#utility.yul\":4441:4444   */\n      dup4\n        /* \"#utility.yul\":4437:4451   */\n      add\n        /* \"#utility.yul\":4535:4539   */\n      0x00\n        /* \"#utility.yul\":4528:4533   */\n      dup4\n        /* \"#utility.yul\":4524:4540   */\n      add\n        /* \"#utility.yul\":4518:4541   */\n      mload\n        /* \"#utility.yul\":4554:4617   */\n      tag_199\n        /* \"#utility.yul\":4611:4615   */\n      0x00\n        /* \"#utility.yul\":4606:4609   */\n      dup7\n        /* \"#utility.yul\":4602:4616   */\n      add\n        /* \"#utility.yul\":4588:4600   */\n      dup3\n        /* \"#utility.yul\":4554:4617   */\n      tag_102\n      jump\t// in\n    tag_199:\n        /* \"#utility.yul\":4461:4627   */\n      pop\n        /* \"#utility.yul\":4712:4716   */\n      0x20\n        /* \"#utility.yul\":4705:4710   */\n      dup4\n        /* \"#utility.yul\":4701:4717   */\n      add\n        /* \"#utility.yul\":4695:4718   */\n      mload\n        /* \"#utility.yul\":4765:4768   */\n      dup5\n        /* \"#utility.yul\":4759:4763   */\n      dup3\n        /* \"#utility.yul\":4755:4769   */\n      sub\n        /* \"#utility.yul\":4748:4752   */\n      0x20\n        /* \"#utility.yul\":4743:4746   */\n      dup7\n        /* \"#utility.yul\":4739:4753   */\n      add\n        /* \"#utility.yul\":4732:4770   */\n      mstore\n        /* \"#utility.yul\":4791:4864   */\n      tag_200\n        /* \"#utility.yul\":4859:4863   */\n      dup3\n        /* \"#utility.yul\":4845:4857   */\n      dup3\n        /* \"#utility.yul\":4791:4864   */\n      tag_104\n      jump\t// in\n    tag_200:\n        /* \"#utility.yul\":4783:4864   */\n      swap2\n      pop\n        /* \"#utility.yul\":4637:4875   */\n      pop\n        /* \"#utility.yul\":4962:4966   */\n      0x40\n        /* \"#utility.yul\":4955:4960   */\n      dup4\n        /* \"#utility.yul\":4951:4967   */\n      add\n        /* \"#utility.yul\":4945:4968   */\n      mload\n        /* \"#utility.yul\":4981:5044   */\n      tag_201\n        /* \"#utility.yul\":5038:5042   */\n      0x40\n        /* \"#utility.yul\":5033:5036   */\n      dup7\n        /* \"#utility.yul\":5029:5043   */\n      add\n        /* \"#utility.yul\":5015:5027   */\n      dup3\n        /* \"#utility.yul\":4981:5044   */\n      tag_105\n      jump\t// in\n    tag_201:\n        /* \"#utility.yul\":4885:5054   */\n      pop\n        /* \"#utility.yul\":5137:5141   */\n      0x60\n        /* \"#utility.yul\":5130:5135   */\n      dup4\n        /* \"#utility.yul\":5126:5142   */\n      add\n        /* \"#utility.yul\":5120:5143   */\n      mload\n        /* \"#utility.yul\":5156:5219   */\n      tag_202\n        /* \"#utility.yul\":5213:5217   */\n      0x60\n        /* \"#utility.yul\":5208:5211   */\n      dup7\n        /* \"#utility.yul\":5204:5218   */\n      add\n        /* \"#utility.yul\":5190:5202   */\n      dup3\n        /* \"#utility.yul\":5156:5219   */\n      tag_105\n      jump\t// in\n    tag_202:\n        /* \"#utility.yul\":5064:5229   */\n      pop\n        /* \"#utility.yul\":5246:5250   */\n      dup1\n        /* \"#utility.yul\":5239:5250   */\n      swap2\n      pop\n        /* \"#utility.yul\":4415:5256   */\n      pop\n        /* \"#utility.yul\":4299:5256   */\n      swap3\n      swap2\n      pop\n      pop\n      jump\t// out\n        /* \"#utility.yul\":5262:5619   */\n    tag_21:\n        /* \"#utility.yul\":5397:5401   */\n      0x00\n        /* \"#utility.yul\":5435:5437   */\n      0x20\n        /* \"#utility.yul\":5424:5433   */\n      dup3\n        /* \"#utility.yul\":5420:5438   */\n      add\n        /* \"#utility.yul\":5412:5438   */\n      swap1\n      pop\n        /* \"#utility.yul\":5484:5493   */\n      dup2\n        /* \"#utility.yul\":5478:5482   */\n      dup2\n        /* \"#utility.yul\":5474:5494   */\n      sub\n        /* \"#utility.yul\":5470:5471   */\n      0x00\n        /* \"#utility.yul\":5459:5468   */\n      dup4\n        /* \"#utility.yul\":5455:5472   */\n      add\n        /* \"#utility.yul\":5448:5495   */\n      mstore\n        /* \"#utility.yul\":5512:5612   */\n      tag_204\n        /* \"#utility.yul\":5607:5611   */\n      dup2\n        /* \"#utility.yul\":5598:5604   */\n      dup5\n        /* \"#utility.yul\":5512:5612   */\n      tag_106\n      jump\t// in\n    tag_204:\n        /* \"#utility.yul\":5504:5612   */\n      swap1\n      pop\n        /* \"#utility.yul\":5262:5619   */\n      swap3\n      swap2\n      pop\n      pop\n      jump\t// out\n        /* \"#utility.yul\":5625:5714   */\n    tag_107:\n        /* \"#utility.yul\":5661:5668   */\n      0x00\n        /* \"#utility.yul\":5701:5707   */\n      0xffff\n        /* \"#utility.yul\":5694:5699   */\n      dup3\n        /* \"#utility.yul\":5690:5708   */\n      and\n        /* \"#utility.yul\":5679:5708   */\n      swap1\n      pop\n        /* \"#utility.yul\":5625:5714   */\n      swap2\n      swap1\n      pop\n      jump\t// out\n        /* \"#utility.yul\":5720:5840   */\n    tag_108:\n        /* \"#utility.yul\":5792:5815   */\n      tag_207\n        /* \"#utility.yul\":5809:5814   */\n      dup2\n        /* \"#utility.yul\":5792:5815   */\n      tag_107\n      jump\t// in\n    tag_207:\n        /* \"#utility.yul\":5785:5790   */\n      dup2\n        /* \"#utility.yul\":5782:5816   */\n      eq\n        /* \"#utility.yul\":5772:5834   */\n      tag_208\n      jumpi\n        /* \"#utility.yul\":5830:5831   */\n      0x00\n        /* \"#utility.yul\":5827:5828   */\n      dup1\n        /* \"#utility.yul\":5820:5832   */\n      revert\n        /* \"#utility.yul\":5772:5834   */\n    tag_208:\n        /* \"#utility.yul\":5720:5840   */\n      pop\n      jump\t// out\n        /* \"#utility.yul\":5846:5983   */\n    tag_109:\n        /* \"#utility.yul\":5891:5896   */\n      0x00\n        /* \"#utility.yul\":5929:5935   */\n      dup2\n        /* \"#utility.yul\":5916:5936   */\n      calldataload\n        /* \"#utility.yul\":5907:5936   */\n      swap1\n      pop\n        /* \"#utility.yul\":5945:5977   */\n      tag_210\n        /* \"#utility.yul\":5971:5976   */\n      dup2\n        /* \"#utility.yul\":5945:5977   */\n      tag_108\n      jump\t// in\n    tag_210:\n        /* \"#utility.yul\":5846:5983   */\n      swap3\n      swap2\n      pop\n      pop\n      jump\t// out\n        /* \"#utility.yul\":5989:6316   */\n    tag_24:\n        /* \"#utility.yul\":6047:6053   */\n      0x00\n        /* \"#utility.yul\":6096:6098   */\n      0x20\n        /* \"#utility.yul\":6084:6093   */\n      dup3\n        /* \"#utility.yul\":6075:6082   */\n      dup5\n        /* \"#utility.yul\":6071:6094   */\n      sub\n        /* \"#utility.yul\":6067:6099   */\n      slt\n        /* \"#utility.yul\":6064:6183   */\n      iszero\n      tag_212\n      jumpi\n        /* \"#utility.yul\":6102:6181   */\n      tag_213\n      tag_86\n      jump\t// in\n    tag_213:\n        /* \"#utility.yul\":6064:6183   */\n    tag_212:\n        /* \"#utility.yul\":6222:6223   */\n      0x00\n        /* \"#utility.yul\":6247:6299   */\n      tag_214\n        /* \"#utility.yul\":6291:6298   */\n      dup5\n        /* \"#utility.yul\":6282:6288   */\n      dup3\n        /* \"#utility.yul\":6271:6280   */\n      dup6\n        /* \"#utility.yul\":6267:6289   */\n      add\n        /* \"#utility.yul\":6247:6299   */\n      tag_109\n      jump\t// in\n    tag_214:\n        /* \"#utility.yul\":6237:6299   */\n      swap2\n      pop\n        /* \"#utility.yul\":6193:6309   */\n      pop\n        /* \"#utility.yul\":5989:6316   */\n      swap3\n      swap2\n      pop\n      pop\n      jump\t// out\n        /* \"#utility.yul\":6322:6437   */\n    tag_110:\n        /* \"#utility.yul\":6407:6430   */\n      tag_216\n        /* \"#utility.yul\":6424:6429   */\n      dup2\n        /* \"#utility.yul\":6407:6430   */\n      tag_107\n      jump\t// in\n    tag_216:\n        /* \"#utility.yul\":6402:6405   */\n      dup3\n        /* \"#utility.yul\":6395:6431   */\n      mstore\n        /* \"#utility.yul\":6322:6437   */\n      pop\n      pop\n      jump\t// out\n        /* \"#utility.yul\":6443:6661   */\n    tag_29:\n        /* \"#utility.yul\":6534:6538   */\n      0x00\n        /* \"#utility.yul\":6572:6574   */\n      0x20\n        /* \"#utility.yul\":6561:6570   */\n      dup3\n        /* \"#utility.yul\":6557:6575   */\n      add\n        /* \"#utility.yul\":6549:6575   */\n      swap1\n      pop\n        /* \"#utility.yul\":6585:6654   */\n      tag_218\n        /* \"#utility.yul\":6651:6652   */\n      0x00\n        /* \"#utility.yul\":6640:6649   */\n      dup4\n        /* \"#utility.yul\":6636:6653   */\n      add\n        /* \"#utility.yul\":6627:6633   */\n      dup5\n        /* \"#utility.yul\":6585:6654   */\n      tag_110\n      jump\t// in\n    tag_218:\n        /* \"#utility.yul\":6443:6661   */\n      swap3\n      swap2\n      pop\n      pop\n      jump\t// out\n        /* \"#utility.yul\":6667:6889   */\n    tag_33:\n        /* \"#utility.yul\":6760:6764   */\n      0x00\n        /* \"#utility.yul\":6798:6800   */\n      0x20\n        /* \"#utility.yul\":6787:6796   */\n      dup3\n        /* \"#utility.yul\":6783:6801   */\n      add\n        /* \"#utility.yul\":6775:6801   */\n      swap1\n      pop\n        /* \"#utility.yul\":6811:6882   */\n      tag_220\n        /* \"#utility.yul\":6879:6880   */\n      0x00\n        /* \"#utility.yul\":6868:6877   */\n      dup4\n        /* \"#utility.yul\":6864:6881   */\n      add\n        /* \"#utility.yul\":6855:6861   */\n      dup5\n        /* \"#utility.yul\":6811:6882   */\n      tag_95\n      jump\t// in\n    tag_220:\n        /* \"#utility.yul\":6667:6889   */\n      swap3\n      swap2\n      pop\n      pop\n      jump\t// out\n        /* \"#utility.yul\":6895:7224   */\n    tag_36:\n        /* \"#utility.yul\":6954:6960   */\n      0x00\n        /* \"#utility.yul\":7003:7005   */\n      0x20\n        /* \"#utility.yul\":6991:7000   */\n      dup3\n        /* \"#utility.yul\":6982:6989   */\n      dup5\n        /* \"#utility.yul\":6978:7001   */\n      sub\n        /* \"#utility.yul\":6974:7006   */\n      slt\n        /* \"#utility.yul\":6971:7090   */\n      iszero\n      tag_222\n      jumpi\n        /* \"#utility.yul\":7009:7088   */\n      tag_223\n      tag_86\n      jump\t// in\n    tag_223:\n        /* \"#utility.yul\":6971:7090   */\n    tag_222:\n        /* \"#utility.yul\":7129:7130   */\n      0x00\n        /* \"#utility.yul\":7154:7207   */\n      tag_224\n        /* \"#utility.yul\":7199:7206   */\n      dup5\n        /* \"#utility.yul\":7190:7196   */\n      dup3\n        /* \"#utility.yul\":7179:7188   */\n      dup6\n        /* \"#utility.yul\":7175:7197   */\n      add\n        /* \"#utility.yul\":7154:7207   */\n      tag_91\n      jump\t// in\n    tag_224:\n        /* \"#utility.yul\":7144:7207   */\n      swap2\n      pop\n        /* \"#utility.yul\":7100:7217   */\n      pop\n        /* \"#utility.yul\":6895:7224   */\n      swap3\n      swap2\n      pop\n      pop\n      jump\t// out\n        /* \"#utility.yul\":7230:7365   */\n    tag_111:\n        /* \"#utility.yul\":7318:7324   */\n      0x00\n        /* \"#utility.yul\":7352:7357   */\n      dup2\n        /* \"#utility.yul\":7346:7358   */\n      mload\n        /* \"#utility.yul\":7336:7358   */\n      swap1\n      pop\n        /* \"#utility.yul\":7230:7365   */\n      swap2\n      swap1\n      pop\n      jump\t// out\n        /* \"#utility.yul\":7371:7576   */\n    tag_112:\n        /* \"#utility.yul\":7491:7502   */\n      0x00\n        /* \"#utility.yul\":7525:7531   */\n      dup3\n        /* \"#utility.yul\":7520:7523   */\n      dup3\n        /* \"#utility.yul\":7513:7532   */\n      mstore\n        /* \"#utility.yul\":7565:7569   */\n      0x20\n        /* \"#utility.yul\":7560:7563   */\n      dup3\n        /* \"#utility.yul\":7556:7570   */\n      add\n        /* \"#utility.yul\":7541:7570   */\n      swap1\n      pop\n        /* \"#utility.yul\":7371:7576   */\n      swap3\n      swap2\n      pop\n      pop\n      jump\t// out\n        /* \"#utility.yul\":7582:7735   */\n    tag_113:\n        /* \"#utility.yul\":7670:7674   */\n      0x00\n        /* \"#utility.yul\":7693:7696   */\n      dup2\n        /* \"#utility.yul\":7685:7696   */\n      swap1\n      pop\n        /* \"#utility.yul\":7723:7727   */\n      0x20\n        /* \"#utility.yul\":7718:7721   */\n      dup3\n        /* \"#utility.yul\":7714:7728   */\n      add\n        /* \"#utility.yul\":7706:7728   */\n      swap1\n      pop\n        /* \"#utility.yul\":7582:7735   */\n      swap2\n      swap1\n      pop\n      jump\t// out\n        /* \"#utility.yul\":7793:8740   */\n    tag_114:\n        /* \"#utility.yul\":7894:7897   */\n      0x00\n        /* \"#utility.yul\":7930:7934   */\n      0x80\n        /* \"#utility.yul\":7925:7928   */\n      dup4\n        /* \"#utility.yul\":7921:7935   */\n      add\n        /* \"#utility.yul\":8019:8023   */\n      0x00\n        /* \"#utility.yul\":8012:8017   */\n      dup4\n        /* \"#utility.yul\":8008:8024   */\n      add\n        /* \"#utility.yul\":8002:8025   */\n      mload\n        /* \"#utility.yul\":8038:8101   */\n      tag_229\n        /* \"#utility.yul\":8095:8099   */\n      0x00\n        /* \"#utility.yul\":8090:8093   */\n      dup7\n        /* \"#utility.yul\":8086:8100   */\n      add\n        /* \"#utility.yul\":8072:8084   */\n      dup3\n        /* \"#utility.yul\":8038:8101   */\n      tag_102\n      jump\t// in\n    tag_229:\n        /* \"#utility.yul\":7945:8111   */\n      pop\n        /* \"#utility.yul\":8196:8200   */\n      0x20\n        /* \"#utility.yul\":8189:8194   */\n      dup4\n        /* \"#utility.yul\":8185:8201   */\n      add\n        /* \"#utility.yul\":8179:8202   */\n      mload\n        /* \"#utility.yul\":8249:8252   */\n      dup5\n        /* \"#utility.yul\":8243:8247   */\n      dup3\n        /* \"#utility.yul\":8239:8253   */\n      sub\n        /* \"#utility.yul\":8232:8236   */\n      0x20\n        /* \"#utility.yul\":8227:8230   */\n      dup7\n        /* \"#utility.yul\":8223:8237   */\n      add\n        /* \"#utility.yul\":8216:8254   */\n      mstore\n        /* \"#utility.yul\":8275:8348   */\n      tag_230\n        /* \"#utility.yul\":8343:8347   */\n      dup3\n        /* \"#utility.yul\":8329:8341   */\n      dup3\n        /* \"#utility.yul\":8275:8348   */\n      tag_104\n      jump\t// in\n    tag_230:\n        /* \"#utility.yul\":8267:8348   */\n      swap2\n      pop\n        /* \"#utility.yul\":8121:8359   */\n      pop\n        /* \"#utility.yul\":8446:8450   */\n      0x40\n        /* \"#utility.yul\":8439:8444   */\n      dup4\n        /* \"#utility.yul\":8435:8451   */\n      add\n        /* \"#utility.yul\":8429:8452   */\n      mload\n        /* \"#utility.yul\":8465:8528   */\n      tag_231\n        /* \"#utility.yul\":8522:8526   */\n      0x40\n        /* \"#utility.yul\":8517:8520   */\n      dup7\n        /* \"#utility.yul\":8513:8527   */\n      add\n        /* \"#utility.yul\":8499:8511   */\n      dup3\n        /* \"#utility.yul\":8465:8528   */\n      tag_105\n      jump\t// in\n    tag_231:\n        /* \"#utility.yul\":8369:8538   */\n      pop\n        /* \"#utility.yul\":8621:8625   */\n      0x60\n        /* \"#utility.yul\":8614:8619   */\n      dup4\n        /* \"#utility.yul\":8610:8626   */\n      add\n        /* \"#utility.yul\":8604:8627   */\n      mload\n        /* \"#utility.yul\":8640:8703   */\n      tag_232\n        /* \"#utility.yul\":8697:8701   */\n      0x60\n        /* \"#utility.yul\":8692:8695   */\n      dup7\n        /* \"#utility.yul\":8688:8702   */\n      add\n        /* \"#utility.yul\":8674:8686   */\n      dup3\n        /* \"#utility.yul\":8640:8703   */\n      tag_105\n      jump\t// in\n    tag_232:\n        /* \"#utility.yul\":8548:8713   */\n      pop\n        /* \"#utility.yul\":8730:8734   */\n      dup1\n        /* \"#utility.yul\":8723:8734   */\n      swap2\n      pop\n        /* \"#utility.yul\":7899:8740   */\n      pop\n        /* \"#utility.yul\":7793:8740   */\n      swap3\n      swap2\n      pop\n      pop\n      jump\t// out\n        /* \"#utility.yul\":8746:8986   */\n    tag_115:\n        /* \"#utility.yul\":8857:8867   */\n      0x00\n        /* \"#utility.yul\":8892:8980   */\n      tag_234\n        /* \"#utility.yul\":8976:8979   */\n      dup4\n        /* \"#utility.yul\":8968:8974   */\n      dup4\n        /* \"#utility.yul\":8892:8980   */\n      tag_114\n      jump\t// in\n    tag_234:\n        /* \"#utility.yul\":8878:8980   */\n      swap1\n      pop\n        /* \"#utility.yul\":8746:8986   */\n      swap3\n      swap2\n      pop\n      pop\n      jump\t// out\n        /* \"#utility.yul\":8992:9126   */\n    tag_116:\n        /* \"#utility.yul\":9083:9087   */\n      0x00\n        /* \"#utility.yul\":9115:9119   */\n      0x20\n        /* \"#utility.yul\":9110:9113   */\n      dup3\n        /* \"#utility.yul\":9106:9120   */\n      add\n        /* \"#utility.yul\":9098:9120   */\n      swap1\n      pop\n        /* \"#utility.yul\":8992:9126   */\n      swap2\n      swap1\n      pop\n      jump\t// out\n        /* \"#utility.yul\":9188:10267   */\n    tag_117:\n        /* \"#utility.yul\":9349:9352   */\n      0x00\n        /* \"#utility.yul\":9378:9453   */\n      tag_237\n        /* \"#utility.yul\":9447:9452   */\n      dup3\n        /* \"#utility.yul\":9378:9453   */\n      tag_111\n      jump\t// in\n    tag_237:\n        /* \"#utility.yul\":9469:9576   */\n      tag_238\n        /* \"#utility.yul\":9569:9575   */\n      dup2\n        /* \"#utility.yul\":9564:9567   */\n      dup6\n        /* \"#utility.yul\":9469:9576   */\n      tag_112\n      jump\t// in\n    tag_238:\n        /* \"#utility.yul\":9462:9576   */\n      swap4\n      pop\n        /* \"#utility.yul\":9602:9605   */\n      dup4\n        /* \"#utility.yul\":9647:9651   */\n      0x20\n        /* \"#utility.yul\":9639:9645   */\n      dup3\n        /* \"#utility.yul\":9635:9652   */\n      mul\n        /* \"#utility.yul\":9630:9633   */\n      dup6\n        /* \"#utility.yul\":9626:9653   */\n      add\n        /* \"#utility.yul\":9677:9754   */\n      tag_239\n        /* \"#utility.yul\":9748:9753   */\n      dup6\n        /* \"#utility.yul\":9677:9754   */\n      tag_113\n      jump\t// in\n    tag_239:\n        /* \"#utility.yul\":9777:9784   */\n      dup1\n        /* \"#utility.yul\":9808:9809   */\n      0x00\n        /* \"#utility.yul\":9793:10222   */\n    tag_240:\n        /* \"#utility.yul\":9818:9824   */\n      dup6\n        /* \"#utility.yul\":9815:9816   */\n      dup2\n        /* \"#utility.yul\":9812:9825   */\n      lt\n        /* \"#utility.yul\":9793:10222   */\n      iszero\n      tag_242\n      jumpi\n        /* \"#utility.yul\":9889:9898   */\n      dup5\n        /* \"#utility.yul\":9883:9887   */\n      dup5\n        /* \"#utility.yul\":9879:9899   */\n      sub\n        /* \"#utility.yul\":9874:9877   */\n      dup10\n        /* \"#utility.yul\":9867:9900   */\n      mstore\n        /* \"#utility.yul\":9940:9946   */\n      dup2\n        /* \"#utility.yul\":9934:9947   */\n      mload\n        /* \"#utility.yul\":9968:10074   */\n      tag_243\n        /* \"#utility.yul\":10069:10073   */\n      dup6\n        /* \"#utility.yul\":10054:10067   */\n      dup3\n        /* \"#utility.yul\":9968:10074   */\n      tag_115\n      jump\t// in\n    tag_243:\n        /* \"#utility.yul\":9960:10074   */\n      swap5\n      pop\n        /* \"#utility.yul\":10097:10178   */\n      tag_244\n        /* \"#utility.yul\":10171:10177   */\n      dup4\n        /* \"#utility.yul\":10097:10178   */\n      tag_116\n      jump\t// in\n    tag_244:\n        /* \"#utility.yul\":10087:10178   */\n      swap3\n      pop\n        /* \"#utility.yul\":10207:10211   */\n      0x20\n        /* \"#utility.yul\":10202:10205   */\n      dup11\n        /* \"#utility.yul\":10198:10212   */\n      add\n        /* \"#utility.yul\":10191:10212   */\n      swap10\n      pop\n        /* \"#utility.yul\":9853:10222   */\n      pop\n        /* \"#utility.yul\":9840:9841   */\n      0x01\n        /* \"#utility.yul\":9837:9838   */\n      dup2\n        /* \"#utility.yul\":9833:9842   */\n      add\n        /* \"#utility.yul\":9828:9842   */\n      swap1\n      pop\n        /* \"#utility.yul\":9793:10222   */\n      jump(tag_240)\n    tag_242:\n        /* \"#utility.yul\":9797:9811   */\n      pop\n        /* \"#utility.yul\":10238:10242   */\n      dup3\n        /* \"#utility.yul\":10231:10242   */\n      swap8\n      pop\n        /* \"#utility.yul\":10258:10261   */\n      dup8\n        /* \"#utility.yul\":10251:10261   */\n      swap6\n      pop\n        /* \"#utility.yul\":9354:10267   */\n      pop\n      pop\n      pop\n      pop\n      pop\n        /* \"#utility.yul\":9188:10267   */\n      swap3\n      swap2\n      pop\n      pop\n      jump\t// out\n        /* \"#utility.yul\":10273:10730   */\n    tag_39:\n        /* \"#utility.yul\":10458:10462   */\n      0x00\n        /* \"#utility.yul\":10496:10498   */\n      0x20\n        /* \"#utility.yul\":10485:10494   */\n      dup3\n        /* \"#utility.yul\":10481:10499   */\n      add\n        /* \"#utility.yul\":10473:10499   */\n      swap1\n      pop\n        /* \"#utility.yul\":10545:10554   */\n      dup2\n        /* \"#utility.yul\":10539:10543   */\n      dup2\n        /* \"#utility.yul\":10535:10555   */\n      sub\n        /* \"#utility.yul\":10531:10532   */\n      0x00\n        /* \"#utility.yul\":10520:10529   */\n      dup4\n        /* \"#utility.yul\":10516:10533   */\n      add\n        /* \"#utility.yul\":10509:10556   */\n      mstore\n        /* \"#utility.yul\":10573:10723   */\n      tag_246\n        /* \"#utility.yul\":10718:10722   */\n      dup2\n        /* \"#utility.yul\":10709:10715   */\n      dup5\n        /* \"#utility.yul\":10573:10723   */\n      tag_117\n      jump\t// in\n    tag_246:\n        /* \"#utility.yul\":10565:10723   */\n      swap1\n      pop\n        /* \"#utility.yul\":10273:10730   */\n      swap3\n      swap2\n      pop\n      pop\n      jump\t// out\n        /* \"#utility.yul\":10736:10853   */\n    tag_118:\n        /* \"#utility.yul\":10845:10846   */\n      0x00\n        /* \"#utility.yul\":10842:10843   */\n      dup1\n        /* \"#utility.yul\":10835:10847   */\n      revert\n        /* \"#utility.yul\":10859:10976   */\n    tag_119:\n        /* \"#utility.yul\":10968:10969   */\n      0x00\n        /* \"#utility.yul\":10965:10966   */\n      dup1\n        /* \"#utility.yul\":10958:10970   */\n      revert\n        /* \"#utility.yul\":10982:11162   */\n    tag_120:\n        /* \"#utility.yul\":11030:11107   */\n      0x4e487b7100000000000000000000000000000000000000000000000000000000\n        /* \"#utility.yul\":11027:11028   */\n      0x00\n        /* \"#utility.yul\":11020:11108   */\n      mstore\n        /* \"#utility.yul\":11127:11131   */\n      0x41\n        /* \"#utility.yul\":11124:11125   */\n      0x04\n        /* \"#utility.yul\":11117:11132   */\n      mstore\n        /* \"#utility.yul\":11151:11155   */\n      0x24\n        /* \"#utility.yul\":11148:11149   */\n      0x00\n        /* \"#utility.yul\":11141:11156   */\n      revert\n        /* \"#utility.yul\":11168:11449   */\n    tag_121:\n        /* \"#utility.yul\":11251:11278   */\n      tag_251\n        /* \"#utility.yul\":11273:11277   */\n      dup3\n        /* \"#utility.yul\":11251:11278   */\n      tag_99\n      jump\t// in\n    tag_251:\n        /* \"#utility.yul\":11243:11249   */\n      dup2\n        /* \"#utility.yul\":11239:11279   */\n      add\n        /* \"#utility.yul\":11381:11387   */\n      dup2\n        /* \"#utility.yul\":11369:11379   */\n      dup2\n        /* \"#utility.yul\":11366:11388   */\n      lt\n        /* \"#utility.yul\":11345:11363   */\n      0xffffffffffffffff\n        /* \"#utility.yul\":11333:11343   */\n      dup3\n        /* \"#utility.yul\":11330:11364   */\n      gt\n        /* \"#utility.yul\":11327:11389   */\n      or\n        /* \"#utility.yul\":11324:11412   */\n      iszero\n      tag_252\n      jumpi\n        /* \"#utility.yul\":11392:11410   */\n      tag_253\n      tag_120\n      jump\t// in\n    tag_253:\n        /* \"#utility.yul\":11324:11412   */\n    tag_252:\n        /* \"#utility.yul\":11432:11442   */\n      dup1\n        /* \"#utility.yul\":11428:11430   */\n      0x40\n        /* \"#utility.yul\":11421:11443   */\n      mstore\n        /* \"#utility.yul\":11211:11449   */\n      pop\n        /* \"#utility.yul\":11168:11449   */\n      pop\n      pop\n      jump\t// out\n        /* \"#utility.yul\":11455:11584   */\n    tag_122:\n        /* \"#utility.yul\":11489:11495   */\n      0x00\n        /* \"#utility.yul\":11516:11536   */\n      tag_255\n      tag_85\n      jump\t// in\n    tag_255:\n        /* \"#utility.yul\":11506:11536   */\n      swap1\n      pop\n        /* \"#utility.yul\":11545:11578   */\n      tag_256\n        /* \"#utility.yul\":11573:11577   */\n      dup3\n        /* \"#utility.yul\":11565:11571   */\n      dup3\n        /* \"#utility.yul\":11545:11578   */\n      tag_121\n      jump\t// in\n    tag_256:\n        /* \"#utility.yul\":11455:11584   */\n      swap2\n      swap1\n      pop\n      jump\t// out\n        /* \"#utility.yul\":11590:11898   */\n    tag_123:\n        /* \"#utility.yul\":11652:11656   */\n      0x00\n        /* \"#utility.yul\":11742:11760   */\n      0xffffffffffffffff\n        /* \"#utility.yul\":11734:11740   */\n      dup3\n        /* \"#utility.yul\":11731:11761   */\n      gt\n        /* \"#utility.yul\":11728:11784   */\n      iszero\n      tag_258\n      jumpi\n        /* \"#utility.yul\":11764:11782   */\n      tag_259\n      tag_120\n      jump\t// in\n    tag_259:\n        /* \"#utility.yul\":11728:11784   */\n    tag_258:\n        /* \"#utility.yul\":11802:11831   */\n      tag_260\n        /* \"#utility.yul\":11824:11830   */\n      dup3\n        /* \"#utility.yul\":11802:11831   */\n      tag_99\n      jump\t// in\n    tag_260:\n        /* \"#utility.yul\":11794:11831   */\n      swap1\n      pop\n        /* \"#utility.yul\":11886:11890   */\n      0x20\n        /* \"#utility.yul\":11880:11884   */\n      dup2\n        /* \"#utility.yul\":11876:11891   */\n      add\n        /* \"#utility.yul\":11868:11891   */\n      swap1\n      pop\n        /* \"#utility.yul\":11590:11898   */\n      swap2\n      swap1\n      pop\n      jump\t// out\n        /* \"#utility.yul\":11904:12052   */\n    tag_124:\n        /* \"#utility.yul\":12002:12008   */\n      dup3\n        /* \"#utility.yul\":11997:12000   */\n      dup2\n        /* \"#utility.yul\":11992:11995   */\n      dup4\n        /* \"#utility.yul\":11979:12009   */\n      calldatacopy\n        /* \"#utility.yul\":12043:12044   */\n      0x00\n        /* \"#utility.yul\":12034:12040   */\n      dup4\n        /* \"#utility.yul\":12029:12032   */\n      dup4\n        /* \"#utility.yul\":12025:12041   */\n      add\n        /* \"#utility.yul\":12018:12045   */\n      mstore\n        /* \"#utility.yul\":11904:12052   */\n      pop\n      pop\n      pop\n      jump\t// out\n        /* \"#utility.yul\":12058:12483   */\n    tag_125:\n        /* \"#utility.yul\":12136:12141   */\n      0x00\n        /* \"#utility.yul\":12161:12227   */\n      tag_263\n        /* \"#utility.yul\":12177:12226   */\n      tag_264\n        /* \"#utility.yul\":12219:12225   */\n      dup5\n        /* \"#utility.yul\":12177:12226   */\n      tag_123\n      jump\t// in\n    tag_264:\n        /* \"#utility.yul\":12161:12227   */\n      tag_122\n      jump\t// in\n    tag_263:\n        /* \"#utility.yul\":12152:12227   */\n      swap1\n      pop\n        /* \"#utility.yul\":12250:12256   */\n      dup3\n        /* \"#utility.yul\":12243:12248   */\n      dup2\n        /* \"#utility.yul\":12236:12257   */\n      mstore\n        /* \"#utility.yul\":12288:12292   */\n      0x20\n        /* \"#utility.yul\":12281:12286   */\n      dup2\n        /* \"#utility.yul\":12277:12293   */\n      add\n        /* \"#utility.yul\":12326:12329   */\n      dup5\n        /* \"#utility.yul\":12317:12323   */\n      dup5\n        /* \"#utility.yul\":12312:12315   */\n      dup5\n        /* \"#utility.yul\":12308:12324   */\n      add\n        /* \"#utility.yul\":12305:12330   */\n      gt\n        /* \"#utility.yul\":12302:12414   */\n      iszero\n      tag_265\n      jumpi\n        /* \"#utility.yul\":12333:12412   */\n      tag_266\n      tag_119\n      jump\t// in\n    tag_266:\n        /* \"#utility.yul\":12302:12414   */\n    tag_265:\n        /* \"#utility.yul\":12423:12477   */\n      tag_267\n        /* \"#utility.yul\":12470:12476   */\n      dup5\n        /* \"#utility.yul\":12465:12468   */\n      dup3\n        /* \"#utility.yul\":12460:12463   */\n      dup6\n        /* \"#utility.yul\":12423:12477   */\n      tag_124\n      jump\t// in\n    tag_267:\n        /* \"#utility.yul\":12142:12483   */\n      pop\n        /* \"#utility.yul\":12058:12483   */\n      swap4\n      swap3\n      pop\n      pop\n      pop\n      jump\t// out\n        /* \"#utility.yul\":12503:12843   */\n    tag_126:\n        /* \"#utility.yul\":12559:12564   */\n      0x00\n        /* \"#utility.yul\":12608:12611   */\n      dup3\n        /* \"#utility.yul\":12601:12605   */\n      0x1f\n        /* \"#utility.yul\":12593:12599   */\n      dup4\n        /* \"#utility.yul\":12589:12606   */\n      add\n        /* \"#utility.yul\":12585:12612   */\n      slt\n        /* \"#utility.yul\":12575:12697   */\n      tag_269\n      jumpi\n        /* \"#utility.yul\":12616:12695   */\n      tag_270\n      tag_118\n      jump\t// in\n    tag_270:\n        /* \"#utility.yul\":12575:12697   */\n    tag_269:\n        /* \"#utility.yul\":12733:12739   */\n      dup2\n        /* \"#utility.yul\":12720:12740   */\n      calldataload\n        /* \"#utility.yul\":12758:12837   */\n      tag_271\n        /* \"#utility.yul\":12833:12836   */\n      dup5\n        /* \"#utility.yul\":12825:12831   */\n      dup3\n        /* \"#utility.yul\":12818:12822   */\n      0x20\n        /* \"#utility.yul\":12810:12816   */\n      dup7\n        /* \"#utility.yul\":12806:12823   */\n      add\n        /* \"#utility.yul\":12758:12837   */\n      tag_125\n      jump\t// in\n    tag_271:\n        /* \"#utility.yul\":12749:12837   */\n      swap2\n      pop\n        /* \"#utility.yul\":12565:12843   */\n      pop\n        /* \"#utility.yul\":12503:12843   */\n      swap3\n      swap2\n      pop\n      pop\n      jump\t// out\n        /* \"#utility.yul\":12849:13358   */\n    tag_42:\n        /* \"#utility.yul\":12918:12924   */\n      0x00\n        /* \"#utility.yul\":12967:12969   */\n      0x20\n        /* \"#utility.yul\":12955:12964   */\n      dup3\n        /* \"#utility.yul\":12946:12953   */\n      dup5\n        /* \"#utility.yul\":12942:12965   */\n      sub\n        /* \"#utility.yul\":12938:12970   */\n      slt\n        /* \"#utility.yul\":12935:13054   */\n      iszero\n      tag_273\n      jumpi\n        /* \"#utility.yul\":12973:13052   */\n      tag_274\n      tag_86\n      jump\t// in\n    tag_274:\n        /* \"#utility.yul\":12935:13054   */\n    tag_273:\n        /* \"#utility.yul\":13121:13122   */\n      0x00\n        /* \"#utility.yul\":13110:13119   */\n      dup3\n        /* \"#utility.yul\":13106:13123   */\n      add\n        /* \"#utility.yul\":13093:13124   */\n      calldataload\n        /* \"#utility.yul\":13151:13169   */\n      0xffffffffffffffff\n        /* \"#utility.yul\":13143:13149   */\n      dup2\n        /* \"#utility.yul\":13140:13170   */\n      gt\n        /* \"#utility.yul\":13137:13254   */\n      iszero\n      tag_275\n      jumpi\n        /* \"#utility.yul\":13173:13252   */\n      tag_276\n      tag_87\n      jump\t// in\n    tag_276:\n        /* \"#utility.yul\":13137:13254   */\n    tag_275:\n        /* \"#utility.yul\":13278:13341   */\n      tag_277\n        /* \"#utility.yul\":13333:13340   */\n      dup5\n        /* \"#utility.yul\":13324:13330   */\n      dup3\n        /* \"#utility.yul\":13313:13322   */\n      dup6\n        /* \"#utility.yul\":13309:13331   */\n      add\n        /* \"#utility.yul\":13278:13341   */\n      tag_126\n      jump\t// in\n    tag_277:\n        /* \"#utility.yul\":13268:13341   */\n      swap2\n      pop\n        /* \"#utility.yul\":13064:13351   */\n      pop\n        /* \"#utility.yul\":12849:13358   */\n      swap3\n      swap2\n      pop\n      pop\n      jump\t// out\n        /* \"#utility.yul\":13364:13544   */\n    tag_127:\n        /* \"#utility.yul\":13412:13489   */\n      0x4e487b7100000000000000000000000000000000000000000000000000000000\n        /* \"#utility.yul\":13409:13410   */\n      0x00\n        /* \"#utility.yul\":13402:13490   */\n      mstore\n        /* \"#utility.yul\":13509:13513   */\n      0x22\n        /* \"#utility.yul\":13506:13507   */\n      0x04\n        /* \"#utility.yul\":13499:13514   */\n      mstore\n        /* \"#utility.yul\":13533:13537   */\n      0x24\n        /* \"#utility.yul\":13530:13531   */\n      0x00\n        /* \"#utility.yul\":13523:13538   */\n      revert\n        /* \"#utility.yul\":13550:13870   */\n    tag_47:\n        /* \"#utility.yul\":13594:13600   */\n      0x00\n        /* \"#utility.yul\":13631:13632   */\n      0x02\n        /* \"#utility.yul\":13625:13629   */\n      dup3\n        /* \"#utility.yul\":13621:13633   */\n      div\n        /* \"#utility.yul\":13611:13633   */\n      swap1\n      pop\n        /* \"#utility.yul\":13678:13679   */\n      0x01\n        /* \"#utility.yul\":13672:13676   */\n      dup3\n        /* \"#utility.yul\":13668:13680   */\n      and\n        /* \"#utility.yul\":13699:13717   */\n      dup1\n        /* \"#utility.yul\":13689:13770   */\n      tag_280\n      jumpi\n        /* \"#utility.yul\":13755:13759   */\n      0x7f\n        /* \"#utility.yul\":13747:13753   */\n      dup3\n        /* \"#utility.yul\":13743:13760   */\n      and\n        /* \"#utility.yul\":13733:13760   */\n      swap2\n      pop\n        /* \"#utility.yul\":13689:13770   */\n    tag_280:\n        /* \"#utility.yul\":13817:13819   */\n      0x20\n        /* \"#utility.yul\":13809:13815   */\n      dup3\n        /* \"#utility.yul\":13806:13820   */\n      lt\n        /* \"#utility.yul\":13786:13804   */\n      dup2\n        /* \"#utility.yul\":13783:13821   */\n      sub\n        /* \"#utility.yul\":13780:13864   */\n      tag_281\n      jumpi\n        /* \"#utility.yul\":13836:13854   */\n      tag_282\n      tag_127\n      jump\t// in\n    tag_282:\n        /* \"#utility.yul\":13780:13864   */\n    tag_281:\n        /* \"#utility.yul\":13601:13870   */\n      pop\n        /* \"#utility.yul\":13550:13870   */\n      swap2\n      swap1\n      pop\n      jump\t// out\n        /* \"#utility.yul\":13876:14056   */\n    tag_57:\n        /* \"#utility.yul\":13924:14001   */\n      0x4e487b7100000000000000000000000000000000000000000000000000000000\n        /* \"#utility.yul\":13921:13922   */\n      0x00\n        /* \"#utility.yul\":13914:14002   */\n      mstore\n        /* \"#utility.yul\":14021:14025   */\n      0x32\n        /* \"#utility.yul\":14018:14019   */\n      0x04\n        /* \"#utility.yul\":14011:14026   */\n      mstore\n        /* \"#utility.yul\":14045:14049   */\n      0x24\n        /* \"#utility.yul\":14042:14043   */\n      0x00\n        /* \"#utility.yul\":14035:14050   */\n      revert\n        /* \"#utility.yul\":14062:14287   */\n    tag_128:\n        /* \"#utility.yul\":14202:14236   */\n      0x796f7520617265206e6f7420746865206f776e6572206f662074686520636f6e\n        /* \"#utility.yul\":14198:14199   */\n      0x00\n        /* \"#utility.yul\":14190:14196   */\n      dup3\n        /* \"#utility.yul\":14186:14200   */\n      add\n        /* \"#utility.yul\":14179:14237   */\n      mstore\n        /* \"#utility.yul\":14271:14279   */\n      0x7472616374210000000000000000000000000000000000000000000000000000\n        /* \"#utility.yul\":14266:14268   */\n      0x20\n        /* \"#utility.yul\":14258:14264   */\n      dup3\n        /* \"#utility.yul\":14254:14269   */\n      add\n        /* \"#utility.yul\":14247:14280   */\n      mstore\n        /* \"#utility.yul\":14062:14287   */\n      pop\n      jump\t// out\n        /* \"#utility.yul\":14293:14659   */\n    tag_129:\n        /* \"#utility.yul\":14435:14438   */\n      0x00\n        /* \"#utility.yul\":14456:14523   */\n      tag_286\n        /* \"#utility.yul\":14520:14522   */\n      0x26\n        /* \"#utility.yul\":14515:14518   */\n      dup4\n        /* \"#utility.yul\":14456:14523   */\n      tag_97\n      jump\t// in\n    tag_286:\n        /* \"#utility.yul\":14449:14523   */\n      swap2\n      pop\n        /* \"#utility.yul\":14532:14625   */\n      tag_287\n        /* \"#utility.yul\":14621:14624   */\n      dup3\n        /* \"#utility.yul\":14532:14625   */\n      tag_128\n      jump\t// in\n    tag_287:\n        /* \"#utility.yul\":14650:14652   */\n      0x40\n        /* \"#utility.yul\":14645:14648   */\n      dup3\n        /* \"#utility.yul\":14641:14653   */\n      add\n        /* \"#utility.yul\":14634:14653   */\n      swap1\n      pop\n        /* \"#utility.yul\":14293:14659   */\n      swap2\n      swap1\n      pop\n      jump\t// out\n        /* \"#utility.yul\":14665:15084   */\n    tag_67:\n        /* \"#utility.yul\":14831:14835   */\n      0x00\n        /* \"#utility.yul\":14869:14871   */\n      0x20\n        /* \"#utility.yul\":14858:14867   */\n      dup3\n        /* \"#utility.yul\":14854:14872   */\n      add\n        /* \"#utility.yul\":14846:14872   */\n      swap1\n      pop\n        /* \"#utility.yul\":14918:14927   */\n      dup2\n        /* \"#utility.yul\":14912:14916   */\n      dup2\n        /* \"#utility.yul\":14908:14928   */\n      sub\n        /* \"#utility.yul\":14904:14905   */\n      0x00\n        /* \"#utility.yul\":14893:14902   */\n      dup4\n        /* \"#utility.yul\":14889:14906   */\n      add\n        /* \"#utility.yul\":14882:14929   */\n      mstore\n        /* \"#utility.yul\":14946:15077   */\n      tag_289\n        /* \"#utility.yul\":15072:15076   */\n      dup2\n        /* \"#utility.yul\":14946:15077   */\n      tag_129\n      jump\t// in\n    tag_289:\n        /* \"#utility.yul\":14938:15077   */\n      swap1\n      pop\n        /* \"#utility.yul\":14665:15084   */\n      swap2\n      swap1\n      pop\n      jump\t// out\n        /* \"#utility.yul\":15090:15249   */\n    tag_130:\n        /* \"#utility.yul\":15230:15241   */\n      0x746f6f206c6f6e67210000000000000000000000000000000000000000000000\n        /* \"#utility.yul\":15226:15227   */\n      0x00\n        /* \"#utility.yul\":15218:15224   */\n      dup3\n        /* \"#utility.yul\":15214:15228   */\n      add\n        /* \"#utility.yul\":15207:15242   */\n      mstore\n        /* \"#utility.yul\":15090:15249   */\n      pop\n      jump\t// out\n        /* \"#utility.yul\":15255:15620   */\n    tag_131:\n        /* \"#utility.yul\":15397:15400   */\n      0x00\n        /* \"#utility.yul\":15418:15484   */\n      tag_292\n        /* \"#utility.yul\":15482:15483   */\n      0x09\n        /* \"#utility.yul\":15477:15480   */\n      dup4\n        /* \"#utility.yul\":15418:15484   */\n      tag_97\n      jump\t// in\n    tag_292:\n        /* \"#utility.yul\":15411:15484   */\n      swap2\n      pop\n        /* \"#utility.yul\":15493:15586   */\n      tag_293\n        /* \"#utility.yul\":15582:15585   */\n      dup3\n        /* \"#utility.yul\":15493:15586   */\n      tag_130\n      jump\t// in\n    tag_293:\n        /* \"#utility.yul\":15611:15613   */\n      0x20\n        /* \"#utility.yul\":15606:15609   */\n      dup3\n        /* \"#utility.yul\":15602:15614   */\n      add\n        /* \"#utility.yul\":15595:15614   */\n      swap1\n      pop\n        /* \"#utility.yul\":15255:15620   */\n      swap2\n      swap1\n      pop\n      jump\t// out\n        /* \"#utility.yul\":15626:16045   */\n    tag_81:\n        /* \"#utility.yul\":15792:15796   */\n      0x00\n        /* \"#utility.yul\":15830:15832   */\n      0x20\n        /* \"#utility.yul\":15819:15828   */\n      dup3\n        /* \"#utility.yul\":15815:15833   */\n      add\n        /* \"#utility.yul\":15807:15833   */\n      swap1\n      pop\n        /* \"#utility.yul\":15879:15888   */\n      dup2\n        /* \"#utility.yul\":15873:15877   */\n      dup2\n        /* \"#utility.yul\":15869:15889   */\n      sub\n        /* \"#utility.yul\":15865:15866   */\n      0x00\n        /* \"#utility.yul\":15854:15863   */\n      dup4\n        /* \"#utility.yul\":15850:15867   */\n      add\n        /* \"#utility.yul\":15843:15890   */\n      mstore\n        /* \"#utility.yul\":15907:16038   */\n      tag_295\n        /* \"#utility.yul\":16033:16037   */\n      dup2\n        /* \"#utility.yul\":15907:16038   */\n      tag_131\n      jump\t// in\n    tag_295:\n        /* \"#utility.yul\":15899:16038   */\n      swap1\n      pop\n        /* \"#utility.yul\":15626:16045   */\n      swap2\n      swap1\n      pop\n      jump\t// out\n        /* \"#utility.yul\":16051:16192   */\n    tag_132:\n        /* \"#utility.yul\":16100:16104   */\n      0x00\n        /* \"#utility.yul\":16123:16126   */\n      dup2\n        /* \"#utility.yul\":16115:16126   */\n      swap1\n      pop\n        /* \"#utility.yul\":16146:16149   */\n      dup2\n        /* \"#utility.yul\":16143:16144   */\n      0x00\n        /* \"#utility.yul\":16136:16150   */\n      mstore\n        /* \"#utility.yul\":16180:16184   */\n      0x20\n        /* \"#utility.yul\":16177:16178   */\n      0x00\n        /* \"#utility.yul\":16167:16185   */\n      keccak256\n        /* \"#utility.yul\":16159:16185   */\n      swap1\n      pop\n        /* \"#utility.yul\":16051:16192   */\n      swap2\n      swap1\n      pop\n      jump\t// out\n        /* \"#utility.yul\":16198:16291   */\n    tag_133:\n        /* \"#utility.yul\":16235:16241   */\n      0x00\n        /* \"#utility.yul\":16282:16284   */\n      0x20\n        /* \"#utility.yul\":16277:16279   */\n      0x1f\n        /* \"#utility.yul\":16270:16275   */\n      dup4\n        /* \"#utility.yul\":16266:16280   */\n      add\n        /* \"#utility.yul\":16262:16285   */\n      div\n        /* \"#utility.yul\":16252:16285   */\n      swap1\n      pop\n        /* \"#utility.yul\":16198:16291   */\n      swap2\n      swap1\n      pop\n      jump\t// out\n        /* \"#utility.yul\":16297:16404   */\n    tag_134:\n        /* \"#utility.yul\":16341:16349   */\n      0x00\n        /* \"#utility.yul\":16391:16396   */\n      dup3\n        /* \"#utility.yul\":16385:16389   */\n      dup3\n        /* \"#utility.yul\":16381:16397   */\n      shl\n        /* \"#utility.yul\":16360:16397   */\n      swap1\n      pop\n        /* \"#utility.yul\":16297:16404   */\n      swap3\n      swap2\n      pop\n      pop\n      jump\t// out\n        /* \"#utility.yul\":16410:16803   */\n    tag_135:\n        /* \"#utility.yul\":16479:16485   */\n      0x00\n        /* \"#utility.yul\":16529:16530   */\n      0x08\n        /* \"#utility.yul\":16517:16527   */\n      dup4\n        /* \"#utility.yul\":16513:16531   */\n      mul\n        /* \"#utility.yul\":16552:16649   */\n      tag_300\n        /* \"#utility.yul\":16582:16648   */\n      0xffffffffffffffffffffffffffffffffffffffffffffffffffffffffffffffff\n        /* \"#utility.yul\":16571:16580   */\n      dup3\n        /* \"#utility.yul\":16552:16649   */\n      tag_134\n      jump\t// in\n    tag_300:\n        /* \"#utility.yul\":16670:16709   */\n      tag_301\n        /* \"#utility.yul\":16700:16708   */\n      dup7\n        /* \"#utility.yul\":16689:16698   */\n      dup4\n        /* \"#utility.yul\":16670:16709   */\n      tag_134\n      jump\t// in\n    tag_301:\n        /* \"#utility.yul\":16658:16709   */\n      swap6\n      pop\n        /* \"#utility.yul\":16742:16746   */\n      dup1\n        /* \"#utility.yul\":16738:16747   */\n      not\n        /* \"#utility.yul\":16731:16736   */\n      dup5\n        /* \"#utility.yul\":16727:16748   */\n      and\n        /* \"#utility.yul\":16718:16748   */\n      swap4\n      pop\n        /* \"#utility.yul\":16791:16795   */\n      dup1\n        /* \"#utility.yul\":16781:16789   */\n      dup7\n        /* \"#utility.yul\":16777:16796   */\n      and\n        /* \"#utility.yul\":16770:16775   */\n      dup5\n        /* \"#utility.yul\":16767:16797   */\n      or\n        /* \"#utility.yul\":16757:16797   */\n      swap3\n      pop\n        /* \"#utility.yul\":16486:16803   */\n      pop\n      pop\n        /* \"#utility.yul\":16410:16803   */\n      swap4\n      swap3\n      pop\n      pop\n      pop\n      jump\t// out\n        /* \"#utility.yul\":16809:16869   */\n    tag_136:\n        /* \"#utility.yul\":16837:16840   */\n      0x00\n        /* \"#utility.yul\":16858:16863   */\n      dup2\n        /* \"#utility.yul\":16851:16863   */\n      swap1\n      pop\n        /* \"#utility.yul\":16809:16869   */\n      swap2\n      swap1\n      pop\n      jump\t// out\n        /* \"#utility.yul\":16875:17017   */\n    tag_137:\n        /* \"#utility.yul\":16925:16934   */\n      0x00\n        /* \"#utility.yul\":16958:17011   */\n      tag_304\n        /* \"#utility.yul\":16976:17010   */\n      tag_305\n        /* \"#utility.yul\":16985:17009   */\n      tag_306\n        /* \"#utility.yul\":17003:17008   */\n      dup5\n        /* \"#utility.yul\":16985:17009   */\n      tag_92\n      jump\t// in\n    tag_306:\n        /* \"#utility.yul\":16976:17010   */\n      tag_136\n      jump\t// in\n    tag_305:\n        /* \"#utility.yul\":16958:17011   */\n      tag_92\n      jump\t// in\n    tag_304:\n        /* \"#utility.yul\":16945:17011   */\n      swap1\n      pop\n        /* \"#utility.yul\":16875:17017   */\n      swap2\n      swap1\n      pop\n      jump\t// out\n        /* \"#utility.yul\":17023:17098   */\n    tag_138:\n        /* \"#utility.yul\":17066:17069   */\n      0x00\n        /* \"#utility.yul\":17087:17092   */\n      dup2\n        /* \"#utility.yul\":17080:17092   */\n      swap1\n      pop\n        /* \"#utility.yul\":17023:17098   */\n      swap2\n      swap1\n      pop\n      jump\t// out\n        /* \"#utility.yul\":17104:17373   */\n    tag_139:\n        /* \"#utility.yul\":17214:17253   */\n      tag_309\n        /* \"#utility.yul\":17245:17252   */\n      dup4\n        /* \"#utility.yul\":17214:17253   */\n      tag_137\n      jump\t// in\n    tag_309:\n        /* \"#utility.yul\":17275:17366   */\n      tag_310\n        /* \"#utility.yul\":17324:17365   */\n      tag_311\n        /* \"#utility.yul\":17348:17364   */\n      dup3\n        /* \"#utility.yul\":17324:17365   */\n      tag_138\n      jump\t// in\n    tag_311:\n        /* \"#utility.yul\":17316:17322   */\n      dup5\n        /* \"#utility.yul\":17309:17313   */\n      dup5\n        /* \"#utility.yul\":17303:17314   */\n      sload\n        /* \"#utility.yul\":17275:17366   */\n      tag_135\n      jump\t// in\n    tag_310:\n        /* \"#utility.yul\":17269:17273   */\n      dup3\n        /* \"#utility.yul\":17262:17367   */\n      sstore\n        /* \"#utility.yul\":17180:17373   */\n      pop\n        /* \"#utility.yul\":17104:17373   */\n      pop\n      pop\n      pop\n      jump\t// out\n        /* \"#utility.yul\":17379:17452   */\n    tag_140:\n        /* \"#utility.yul\":17424:17427   */\n      0x00\n        /* \"#utility.yul\":17379:17452   */\n      swap1\n      jump\t// out\n        /* \"#utility.yul\":17458:17647   */\n    tag_141:\n        /* \"#utility.yul\":17535:17567   */\n      tag_314\n      tag_140\n      jump\t// in\n    tag_314:\n        /* \"#utility.yul\":17576:17641   */\n      tag_315\n        /* \"#utility.yul\":17634:17640   */\n      dup2\n        /* \"#utility.yul\":17626:17632   */\n      dup5\n        /* \"#utility.yul\":17620:17624   */\n      dup5\n        /* \"#utility.yul\":17576:17641   */\n      tag_139\n      jump\t// in\n    tag_315:\n        /* \"#utility.yul\":17511:17647   */\n      pop\n        /* \"#utility.yul\":17458:17647   */\n      pop\n      pop\n      jump\t// out\n        /* \"#utility.yul\":17653:17839   */\n    tag_142:\n        /* \"#utility.yul\":17713:17833   */\n    tag_317:\n        /* \"#utility.yul\":17730:17733   */\n      dup2\n        /* \"#utility.yul\":17723:17728   */\n      dup2\n        /* \"#utility.yul\":17720:17734   */\n      lt\n        /* \"#utility.yul\":17713:17833   */\n      iszero\n      tag_319\n      jumpi\n        /* \"#utility.yul\":17784:17823   */\n      tag_320\n        /* \"#utility.yul\":17821:17822   */\n      0x00\n        /* \"#utility.yul\":17814:17819   */\n      dup3\n        /* \"#utility.yul\":17784:17823   */\n      tag_141\n      jump\t// in\n    tag_320:\n        /* \"#utility.yul\":17757:17758   */\n      0x01\n        /* \"#utility.yul\":17750:17755   */\n      dup2\n        /* \"#utility.yul\":17746:17759   */\n      add\n        /* \"#utility.yul\":17737:17759   */\n      swap1\n      pop\n        /* \"#utility.yul\":17713:17833   */\n      jump(tag_317)\n    tag_319:\n        /* \"#utility.yul\":17653:17839   */\n      pop\n      pop\n      jump\t// out\n        /* \"#utility.yul\":17845:18388   */\n    tag_143:\n        /* \"#utility.yul\":17946:17948   */\n      0x1f\n        /* \"#utility.yul\":17941:17944   */\n      dup3\n        /* \"#utility.yul\":17938:17949   */\n      gt\n        /* \"#utility.yul\":17935:18381   */\n      iszero\n      tag_322\n      jumpi\n        /* \"#utility.yul\":17980:18018   */\n      tag_323\n        /* \"#utility.yul\":18012:18017   */\n      dup2\n        /* \"#utility.yul\":17980:18018   */\n      tag_132\n      jump\t// in\n    tag_323:\n        /* \"#utility.yul\":18064:18093   */\n      tag_324\n        /* \"#utility.yul\":18082:18092   */\n      dup5\n        /* \"#utility.yul\":18064:18093   */\n      tag_133\n      jump\t// in\n    tag_324:\n        /* \"#utility.yul\":18054:18062   */\n      dup2\n        /* \"#utility.yul\":18050:18094   */\n      add\n        /* \"#utility.yul\":18247:18249   */\n      0x20\n        /* \"#utility.yul\":18235:18245   */\n      dup6\n        /* \"#utility.yul\":18232:18250   */\n      lt\n        /* \"#utility.yul\":18229:18278   */\n      iszero\n      tag_325\n      jumpi\n        /* \"#utility.yul\":18268:18276   */\n      dup2\n        /* \"#utility.yul\":18253:18276   */\n      swap1\n      pop\n        /* \"#utility.yul\":18229:18278   */\n    tag_325:\n        /* \"#utility.yul\":18291:18371   */\n      tag_326\n        /* \"#utility.yul\":18347:18369   */\n      tag_327\n        /* \"#utility.yul\":18365:18368   */\n      dup6\n        /* \"#utility.yul\":18347:18369   */\n      tag_133\n      jump\t// in\n    tag_327:\n        /* \"#utility.yul\":18337:18345   */\n      dup4\n        /* \"#utility.yul\":18333:18370   */\n      add\n        /* \"#utility.yul\":18320:18331   */\n      dup3\n        /* \"#utility.yul\":18291:18371   */\n      tag_142\n      jump\t// in\n    tag_326:\n        /* \"#utility.yul\":17950:18381   */\n      pop\n      pop\n        /* \"#utility.yul\":17935:18381   */\n    tag_322:\n        /* \"#utility.yul\":17845:18388   */\n      pop\n      pop\n      pop\n      jump\t// out\n        /* \"#utility.yul\":18394:18511   */\n    tag_144:\n        /* \"#utility.yul\":18448:18456   */\n      0x00\n        /* \"#utility.yul\":18498:18503   */\n      dup3\n        /* \"#utility.yul\":18492:18496   */\n      dup3\n        /* \"#utility.yul\":18488:18504   */\n      shr\n        /* \"#utility.yul\":18467:18504   */\n      swap1\n      pop\n        /* \"#utility.yul\":18394:18511   */\n      swap3\n      swap2\n      pop\n      pop\n      jump\t// out\n        /* \"#utility.yul\":18517:18686   */\n    tag_145:\n        /* \"#utility.yul\":18561:18567   */\n      0x00\n        /* \"#utility.yul\":18594:18645   */\n      tag_330\n        /* \"#utility.yul\":18642:18643   */\n      0x00\n        /* \"#utility.yul\":18638:18644   */\n      not\n        /* \"#utility.yul\":18630:18635   */\n      dup5\n        /* \"#utility.yul\":18627:18628   */\n      0x08\n        /* \"#utility.yul\":18623:18636   */\n      mul\n        /* \"#utility.yul\":18594:18645   */\n      tag_144\n      jump\t// in\n    tag_330:\n        /* \"#utility.yul\":18590:18646   */\n      not\n        /* \"#utility.yul\":18675:18679   */\n      dup1\n        /* \"#utility.yul\":18669:18673   */\n      dup4\n        /* \"#utility.yul\":18665:18680   */\n      and\n        /* \"#utility.yul\":18655:18680   */\n      swap2\n      pop\n        /* \"#utility.yul\":18568:18686   */\n      pop\n        /* \"#utility.yul\":18517:18686   */\n      swap3\n      swap2\n      pop\n      pop\n      jump\t// out\n        /* \"#utility.yul\":18691:18986   */\n    tag_146:\n        /* \"#utility.yul\":18767:18771   */\n      0x00\n        /* \"#utility.yul\":18913:18942   */\n      tag_332\n        /* \"#utility.yul\":18938:18941   */\n      dup4\n        /* \"#utility.yul\":18932:18936   */\n      dup4\n        /* \"#utility.yul\":18913:18942   */\n      tag_145\n      jump\t// in\n    tag_332:\n        /* \"#utility.yul\":18905:18942   */\n      swap2\n      pop\n        /* \"#utility.yul\":18975:18978   */\n      dup3\n        /* \"#utility.yul\":18972:18973   */\n      0x02\n        /* \"#utility.yul\":18968:18979   */\n      mul\n        /* \"#utility.yul\":18962:18966   */\n      dup3\n        /* \"#utility.yul\":18959:18980   */\n      or\n        /* \"#utility.yul\":18951:18980   */\n      swap1\n      pop\n        /* \"#utility.yul\":18691:18986   */\n      swap3\n      swap2\n      pop\n      pop\n      jump\t// out\n        /* \"#utility.yul\":18991:20386   */\n    tag_84:\n        /* \"#utility.yul\":19108:19145   */\n      tag_334\n        /* \"#utility.yul\":19141:19144   */\n      dup3\n        /* \"#utility.yul\":19108:19145   */\n      tag_96\n      jump\t// in\n    tag_334:\n        /* \"#utility.yul\":19210:19228   */\n      0xffffffffffffffff\n        /* \"#utility.yul\":19202:19208   */\n      dup2\n        /* \"#utility.yul\":19199:19229   */\n      gt\n        /* \"#utility.yul\":19196:19252   */\n      iszero\n      tag_335\n      jumpi\n        /* \"#utility.yul\":19232:19250   */\n      tag_336\n      tag_120\n      jump\t// in\n    tag_336:\n        /* \"#utility.yul\":19196:19252   */\n    tag_335:\n        /* \"#utility.yul\":19276:19314   */\n      tag_337\n        /* \"#utility.yul\":19308:19312   */\n      dup3\n        /* \"#utility.yul\":19302:19313   */\n      sload\n        /* \"#utility.yul\":19276:19314   */\n      tag_47\n      jump\t// in\n    tag_337:\n        /* \"#utility.yul\":19361:19428   */\n      tag_338\n        /* \"#utility.yul\":19421:19427   */\n      dup3\n        /* \"#utility.yul\":19413:19419   */\n      dup3\n        /* \"#utility.yul\":19407:19411   */\n      dup6\n        /* \"#utility.yul\":19361:19428   */\n      tag_143\n      jump\t// in\n    tag_338:\n        /* \"#utility.yul\":19455:19456   */\n      0x00\n        /* \"#utility.yul\":19479:19483   */\n      0x20\n        /* \"#utility.yul\":19466:19483   */\n      swap1\n      pop\n        /* \"#utility.yul\":19511:19513   */\n      0x1f\n        /* \"#utility.yul\":19503:19509   */\n      dup4\n        /* \"#utility.yul\":19500:19514   */\n      gt\n        /* \"#utility.yul\":19528:19529   */\n      0x01\n        /* \"#utility.yul\":19523:20141   */\n      dup2\n      eq\n      tag_340\n      jumpi\n        /* \"#utility.yul\":20185:20186   */\n      0x00\n        /* \"#utility.yul\":20202:20208   */\n      dup5\n        /* \"#utility.yul\":20199:20276   */\n      iszero\n      tag_341\n      jumpi\n        /* \"#utility.yul\":20251:20260   */\n      dup3\n        /* \"#utility.yul\":20246:20249   */\n      dup8\n        /* \"#utility.yul\":20242:20261   */\n      add\n        /* \"#utility.yul\":20236:20262   */\n      mload\n        /* \"#utility.yul\":20227:20262   */\n      swap1\n      pop\n        /* \"#utility.yul\":20199:20276   */\n    tag_341:\n        /* \"#utility.yul\":20302:20369   */\n      tag_342\n        /* \"#utility.yul\":20362:20368   */\n      dup6\n        /* \"#utility.yul\":20355:20360   */\n      dup3\n        /* \"#utility.yul\":20302:20369   */\n      tag_146\n      jump\t// in\n    tag_342:\n        /* \"#utility.yul\":20296:20300   */\n      dup7\n        /* \"#utility.yul\":20289:20370   */\n      sstore\n        /* \"#utility.yul\":20158:20380   */\n      pop\n        /* \"#utility.yul\":19493:20380   */\n      jump(tag_339)\n        /* \"#utility.yul\":19523:20141   */\n    tag_340:\n        /* \"#utility.yul\":19575:19579   */\n      0x1f\n        /* \"#utility.yul\":19571:19580   */\n      not\n        /* \"#utility.yul\":19563:19569   */\n      dup5\n        /* \"#utility.yul\":19559:19581   */\n      and\n        /* \"#utility.yul\":19609:19646   */\n      tag_343\n        /* \"#utility.yul\":19641:19645   */\n      dup7\n        /* \"#utility.yul\":19609:19646   */\n      tag_132\n      jump\t// in\n    tag_343:\n        /* \"#utility.yul\":19668:19669   */\n      0x00\n        /* \"#utility.yul\":19682:19890   */\n    tag_344:\n        /* \"#utility.yul\":19696:19703   */\n      dup3\n        /* \"#utility.yul\":19693:19694   */\n      dup2\n        /* \"#utility.yul\":19690:19704   */\n      lt\n        /* \"#utility.yul\":19682:19890   */\n      iszero\n      tag_346\n      jumpi\n        /* \"#utility.yul\":19775:19784   */\n      dup5\n        /* \"#utility.yul\":19770:19773   */\n      dup10\n        /* \"#utility.yul\":19766:19785   */\n      add\n        /* \"#utility.yul\":19760:19786   */\n      mload\n        /* \"#utility.yul\":19752:19758   */\n      dup3\n        /* \"#utility.yul\":19745:19787   */\n      sstore\n        /* \"#utility.yul\":19826:19827   */\n      0x01\n        /* \"#utility.yul\":19818:19824   */\n      dup3\n        /* \"#utility.yul\":19814:19828   */\n      add\n        /* \"#utility.yul\":19804:19828   */\n      swap2\n      pop\n        /* \"#utility.yul\":19873:19875   */\n      0x20\n        /* \"#utility.yul\":19862:19871   */\n      dup6\n        /* \"#utility.yul\":19858:19876   */\n      add\n        /* \"#utility.yul\":19845:19876   */\n      swap5\n      pop\n        /* \"#utility.yul\":19719:19723   */\n      0x20\n        /* \"#utility.yul\":19716:19717   */\n      dup2\n        /* \"#utility.yul\":19712:19724   */\n      add\n        /* \"#utility.yul\":19707:19724   */\n      swap1\n      pop\n        /* \"#utility.yul\":19682:19890   */\n      jump(tag_344)\n    tag_346:\n        /* \"#utility.yul\":19918:19924   */\n      dup7\n        /* \"#utility.yul\":19909:19916   */\n      dup4\n        /* \"#utility.yul\":19906:19925   */\n      lt\n        /* \"#utility.yul\":19903:20082   */\n      iszero\n      tag_347\n      jumpi\n        /* \"#utility.yul\":19976:19985   */\n      dup5\n        /* \"#utility.yul\":19971:19974   */\n      dup10\n        /* \"#utility.yul\":19967:19986   */\n      add\n        /* \"#utility.yul\":19961:19987   */\n      mload\n        /* \"#utility.yul\":20019:20067   */\n      tag_348\n        /* \"#utility.yul\":20061:20065   */\n      0x1f\n        /* \"#utility.yul\":20053:20059   */\n      dup10\n        /* \"#utility.yul\":20049:20066   */\n      and\n        /* \"#utility.yul\":20038:20047   */\n      dup3\n        /* \"#utility.yul\":20019:20067   */\n      tag_145\n      jump\t// in\n    tag_348:\n        /* \"#utility.yul\":20011:20017   */\n      dup4\n        /* \"#utility.yul\":20004:20068   */\n      sstore\n        /* \"#utility.yul\":19926:20082   */\n      pop\n        /* \"#utility.yul\":19903:20082   */\n    tag_347:\n        /* \"#utility.yul\":20128:20129   */\n      0x01\n        /* \"#utility.yul\":20124:20125   */\n      0x02\n        /* \"#utility.yul\":20116:20122   */\n      dup9\n        /* \"#utility.yul\":20112:20126   */\n      mul\n        /* \"#utility.yul\":20108:20130   */\n      add\n        /* \"#utility.yul\":20102:20106   */\n      dup9\n        /* \"#utility.yul\":20095:20131   */\n      sstore\n        /* \"#utility.yul\":19530:20141   */\n      pop\n      pop\n      pop\n        /* \"#utility.yul\":19493:20380   */\n    tag_339:\n      pop\n        /* \"#utility.yul\":19083:20386   */\n      pop\n      pop\n      pop\n        /* \"#utility.yul\":18991:20386   */\n      pop\n      pop\n      jump\t// out\n\n    auxdata: 0xa2646970667358221220c3a87dfb34a04b13306c048941304274216d0663f7f3b2e07dde0113ed44c22264736f6c634300081a0033\n}\n",
				"bytecode": {
					"linkReferences": {},
					"object": "608060405260645f806101000a81548161ffff021916908361ffff160217905550348015602a575f80fd5b503360025f6101000a81548173ffffffffffffffffffffffffffffffffffffffff021916908373ffffffffffffffffffffffffffffffffffffffff16021790555061122d806100785f395ff3fe608060405234801561000f575f80fd5b506004361061007b575f3560e01c806363a7c3aa1161005957806363a7c3aa146100fe5780638da5cb5b1461011c578063b64988b81461013a578063fb46d4c51461016a5761007b565b806305a1b4a91461007f578063112f54e3146100b257806358bfa4ab146100e2575b5f80fd5b61009960048036038101906100949190610893565b610186565b6040516100a9949392919061095f565b60405180910390f35b6100cc60048036038101906100c79190610893565b610271565b6040516100d99190610a6f565b60405180910390f35b6100fc60048036038101906100f79190610ac6565b6103df565b005b61010661048c565b6040516101139190610b00565b60405180910390f35b61012461049d565b6040516101319190610b19565b60405180910390f35b610154600480360381019061014f9190610b32565b6104c2565b6040516101619190610c78565b60405180910390f35b610184600480360381019061017f9190610dc4565b610653565b005b6001602052815f5260405f20818154811061019f575f80fd5b905f5260205f2090600402015f9150915050805f015f9054906101000a900473ffffffffffffffffffffffffffffffffffffffff16908060010180546101e490610e38565b80601f016020809104026020016040519081016040528092919081815260200182805461021090610e38565b801561025b5780601f106102325761010080835404028352916020019161025b565b820191905f5260205f20905b81548152906001019060200180831161023e57829003601f168201915b5050505050908060020154908060030154905084565b6102796107ba565b60015f8473ffffffffffffffffffffffffffffffffffffffff1673ffffffffffffffffffffffffffffffffffffffff1681526020019081526020015f2082815481106102c8576102c7610e68565b5b905f5260205f2090600402016040518060800160405290815f82015f9054906101000a900473ffffffffffffffffffffffffffffffffffffffff1673ffffffffffffffffffffffffffffffffffffffff1673ffffffffffffffffffffffffffffffffffffffff16815260200160018201805461034390610e38565b80601f016020809104026020016040519081016040528092919081815260200182805461036f90610e38565b80156103ba5780601f10610391576101008083540402835291602001916103ba565b820191905f5260205f20905b81548152906001019060200180831161039d57829003601f168201915b5050505050815260200160028201548152602001600382015481525050905092915050565b60025f9054906101000a900473ffffffffffffffffffffffffffffffffffffffff1673ffffffffffffffffffffffffffffffffffffffff163373ffffffffffffffffffffffffffffffffffffffff161461046e576040517f08c379a000000000000000000000000000000000000000000000000000000000815260040161046590610f05565b60405180910390fd5b805f806101000a81548161ffff021916908361ffff16021790555050565b5f8054906101000a900461ffff1681565b60025f9054906101000a900473ffffffffffffffffffffffffffffffffffffffff1681565b606060015f8373ffffffffffffffffffffffffffffffffffffffff1673ffffffffffffffffffffffffffffffffffffffff1681526020019081526020015f20805480602002602001604051908101604052809291908181526020015f905b82821015610648578382905f5260205f2090600402016040518060800160405290815f82015f9054906101000a900473ffffffffffffffffffffffffffffffffffffffff1673ffffffffffffffffffffffffffffffffffffffff1673ffffffffffffffffffffffffffffffffffffffff1681526020016001820180546105a590610e38565b80601f01602080910402602001604051908101604052809291908181526020018280546105d190610e38565b801561061c5780601f106105f35761010080835404028352916020019161061c565b820191905f5260205f20905b8154815290600101906020018083116105ff57829003601f168201915b505050505081526020016002820154815260200160038201548152505081526020019060010190610520565b505050509050919050565b5f8054906101000a900461ffff1661ffff16815111156106a8576040517f08c379a000000000000000000000000000000000000000000000000000000000815260040161069f90610f6d565b60405180910390fd5b5f60405180608001604052803373ffffffffffffffffffffffffffffffffffffffff1681526020018381526020014281526020015f815250905060015f3373ffffffffffffffffffffffffffffffffffffffff1673ffffffffffffffffffffffffffffffffffffffff1681526020019081526020015f2081908060018154018082558091505060019003905f5260205f2090600402015f909190919091505f820151815f015f6101000a81548173ffffffffffffffffffffffffffffffffffffffff021916908373ffffffffffffffffffffffffffffffffffffffff160217905550602082015181600101908161079f9190611128565b50604082015181600201556060820151816003015550505050565b60405180608001604052805f73ffffffffffffffffffffffffffffffffffffffff168152602001606081526020015f81526020015f81525090565b5f604051905090565b5f80fd5b5f80fd5b5f73ffffffffffffffffffffffffffffffffffffffff82169050919050565b5f61082f82610806565b9050919050565b61083f81610825565b8114610849575f80fd5b50565b5f8135905061085a81610836565b92915050565b5f819050919050565b61087281610860565b811461087c575f80fd5b50565b5f8135905061088d81610869565b92915050565b5f80604083850312156108a9576108a86107fe565b5b5f6108b68582860161084c565b92505060206108c78582860161087f565b9150509250929050565b6108da81610825565b82525050565b5f81519050919050565b5f82825260208201905092915050565b8281835e5f83830152505050565b5f601f19601f8301169050919050565b5f610922826108e0565b61092c81856108ea565b935061093c8185602086016108fa565b61094581610908565b840191505092915050565b61095981610860565b82525050565b5f6080820190506109725f8301876108d1565b81810360208301526109848186610918565b90506109936040830185610950565b6109a06060830184610950565b95945050505050565b6109b281610825565b82525050565b5f82825260208201905092915050565b5f6109d2826108e0565b6109dc81856109b8565b93506109ec8185602086016108fa565b6109f581610908565b840191505092915050565b610a0981610860565b82525050565b5f608083015f830151610a245f8601826109a9565b5060208301518482036020860152610a3c82826109c8565b9150506040830151610a516040860182610a00565b506060830151610a646060860182610a00565b508091505092915050565b5f6020820190508181035f830152610a878184610a0f565b905092915050565b5f61ffff82169050919050565b610aa581610a8f565b8114610aaf575f80fd5b50565b5f81359050610ac081610a9c565b92915050565b5f60208284031215610adb57610ada6107fe565b5b5f610ae884828501610ab2565b91505092915050565b610afa81610a8f565b82525050565b5f602082019050610b135f830184610af1565b92915050565b5f602082019050610b2c5f8301846108d1565b92915050565b5f60208284031215610b4757610b466107fe565b5b5f610b548482850161084c565b91505092915050565b5f81519050919050565b5f82825260208201905092915050565b5f819050602082019050919050565b5f608083015f830151610b9b5f8601826109a9565b5060208301518482036020860152610bb382826109c8565b9150506040830151610bc86040860182610a00565b506060830151610bdb6060860182610a00565b508091505092915050565b5f610bf18383610b86565b905092915050565b5f602082019050919050565b5f610c0f82610b5d565b610c198185610b67565b935083602082028501610c2b85610b77565b805f5b85811015610c665784840389528151610c478582610be6565b9450610c5283610bf9565b925060208a01995050600181019050610c2e565b50829750879550505050505092915050565b5f6020820190508181035f830152610c908184610c05565b905092915050565b5f80fd5b5f80fd5b7f4e487b71000000000000000000000000000000000000000000000000000000005f52604160045260245ffd5b610cd682610908565b810181811067ffffffffffffffff82111715610cf557610cf4610ca0565b5b80604052505050565b5f610d076107f5565b9050610d138282610ccd565b919050565b5f67ffffffffffffffff821115610d3257610d31610ca0565b5b610d3b82610908565b9050602081019050919050565b828183375f83830152505050565b5f610d68610d6384610d18565b610cfe565b905082815260208101848484011115610d8457610d83610c9c565b5b610d8f848285610d48565b509392505050565b5f82601f830112610dab57610daa610c98565b5b8135610dbb848260208601610d56565b91505092915050565b5f60208284031215610dd957610dd86107fe565b5b5f82013567ffffffffffffffff811115610df657610df5610802565b5b610e0284828501610d97565b91505092915050565b7f4e487b71000000000000000000000000000000000000000000000000000000005f52602260045260245ffd5b5f6002820490506001821680610e4f57607f821691505b602082108103610e6257610e61610e0b565b5b50919050565b7f4e487b71000000000000000000000000000000000000000000000000000000005f52603260045260245ffd5b7f796f7520617265206e6f7420746865206f776e6572206f662074686520636f6e5f8201527f7472616374210000000000000000000000000000000000000000000000000000602082015250565b5f610eef6026836108ea565b9150610efa82610e95565b604082019050919050565b5f6020820190508181035f830152610f1c81610ee3565b9050919050565b7f746f6f206c6f6e672100000000000000000000000000000000000000000000005f82015250565b5f610f576009836108ea565b9150610f6282610f23565b602082019050919050565b5f6020820190508181035f830152610f8481610f4b565b9050919050565b5f819050815f5260205f209050919050565b5f6020601f8301049050919050565b5f82821b905092915050565b5f60088302610fe77fffffffffffffffffffffffffffffffffffffffffffffffffffffffffffffffff82610fac565b610ff18683610fac565b95508019841693508086168417925050509392505050565b5f819050919050565b5f61102c61102761102284610860565b611009565b610860565b9050919050565b5f819050919050565b61104583611012565b61105961105182611033565b848454610fb8565b825550505050565b5f90565b61106d611061565b61107881848461103c565b505050565b5b8181101561109b576110905f82611065565b60018101905061107e565b5050565b601f8211156110e0576110b181610f8b565b6110ba84610f9d565b810160208510156110c9578190505b6110dd6110d585610f9d565b83018261107d565b50505b505050565b5f82821c905092915050565b5f6111005f19846008026110e5565b1980831691505092915050565b5f61111883836110f1565b9150826002028217905092915050565b611131826108e0565b67ffffffffffffffff81111561114a57611149610ca0565b5b6111548254610e38565b61115f82828561109f565b5f60209050601f831160018114611190575f841561117e578287015190505b611188858261110d565b8655506111ef565b601f19841661119e86610f8b565b5f5b828110156111c5578489015182556001820191506020850194506020810190506111a0565b868310156111e257848901516111de601f8916826110f1565b8355505b6001600288020188555050505b50505050505056fea2646970667358221220c3a87dfb34a04b13306c048941304274216d0663f7f3b2e07dde0113ed44c22264736f6c634300081a0033",
					"opcodes": "PUSH1 0x80 PUSH1 0x40 MSTORE PUSH1 0x64 PUSH0 DUP1 PUSH2 0x100 EXP DUP2 SLOAD DUP2 PUSH2 0xFFFF MUL NOT AND SWAP1 DUP4 PUSH2 0xFFFF AND MUL OR SWAP1 SSTORE POP CALLVALUE DUP1 ISZERO PUSH1 0x2A JUMPI PUSH0 DUP1 REVERT JUMPDEST POP CALLER PUSH1 0x2 PUSH0 PUSH2 0x100 EXP DUP2 SLOAD DUP2 PUSH20 0xFFFFFFFFFFFFFFFFFFFFFFFFFFFFFFFFFFFFFFFF MUL NOT AND SWAP1 DUP4 PUSH20 0xFFFFFFFFFFFFFFFFFFFFFFFFFFFFFFFFFFFFFFFF AND MUL OR SWAP1 SSTORE POP PUSH2 0x122D DUP1 PUSH2 0x78 PUSH0 CODECOPY PUSH0 RETURN INVALID PUSH1 0x80 PUSH1 0x40 MSTORE CALLVALUE DUP1 ISZERO PUSH2 0xF JUMPI PUSH0 DUP1 REVERT JUMPDEST POP PUSH1 0x4 CALLDATASIZE LT PUSH2 0x7B JUMPI PUSH0 CALLDATALOAD PUSH1 0xE0 SHR DUP1 PUSH4 0x63A7C3AA GT PUSH2 0x59 JUMPI DUP1 PUSH4 0x63A7C3AA EQ PUSH2 0xFE JUMPI DUP1 PUSH4 0x8DA5CB5B EQ PUSH2 0x11C JUMPI DUP1 PUSH4 0xB64988B8 EQ PUSH2 0x13A JUMPI DUP1 PUSH4 0xFB46D4C5 EQ PUSH2 0x16A JUMPI PUSH2 0x7B JUMP JUMPDEST DUP1 PUSH4 0x5A1B4A9 EQ PUSH2 0x7F JUMPI DUP1 PUSH4 0x112F54E3 EQ PUSH2 0xB2 JUMPI DUP1 PUSH4 0x58BFA4AB EQ PUSH2 0xE2 JUMPI JUMPDEST PUSH0 DUP1 REVERT JUMPDEST PUSH2 0x99 PUSH1 0x4 DUP1 CALLDATASIZE SUB DUP2 ADD SWAP1 PUSH2 0x94 SWAP2 SWAP1 PUSH2 0x893 JUMP JUMPDEST PUSH2 0x186 JUMP JUMPDEST PUSH1 0x40 MLOAD PUSH2 0xA9 SWAP5 SWAP4 SWAP3 SWAP2 SWAP1 PUSH2 0x95F JUMP JUMPDEST PUSH1 0x40 MLOAD DUP1 SWAP2 SUB SWAP1 RETURN JUMPDEST PUSH2 0xCC PUSH1 0x4 DUP1 CALLDATASIZE SUB DUP2 ADD SWAP1 PUSH2 0xC7 SWAP2 SWAP1 PUSH2 0x893 JUMP JUMPDEST PUSH2 0x271 JUMP JUMPDEST PUSH1 0x40 MLOAD PUSH2 0xD9 SWAP2 SWAP1 PUSH2 0xA6F JUMP JUMPDEST PUSH1 0x40 MLOAD DUP1 SWAP2 SUB SWAP1 RETURN JUMPDEST PUSH2 0xFC PUSH1 0x4 DUP1 CALLDATASIZE SUB DUP2 ADD SWAP1 PUSH2 0xF7 SWAP2 SWAP1 PUSH2 0xAC6 JUMP JUMPDEST PUSH2 0x3DF JUMP JUMPDEST STOP JUMPDEST PUSH2 0x106 PUSH2 0x48C JUMP JUMPDEST PUSH1 0x40 MLOAD PUSH2 0x113 SWAP2 SWAP1 PUSH2 0xB00 JUMP JUMPDEST PUSH1 0x40 MLOAD DUP1 SWAP2 SUB SWAP1 RETURN JUMPDEST PUSH2 0x124 PUSH2 0x49D JUMP JUMPDEST PUSH1 0x40 MLOAD PUSH2 0x131 SWAP2 SWAP1 PUSH2 0xB19 JUMP JUMPDEST PUSH1 0x40 MLOAD DUP1 SWAP2 SUB SWAP1 RETURN JUMPDEST PUSH2 0x154 PUSH1 0x4 DUP1 CALLDATASIZE SUB DUP2 ADD SWAP1 PUSH2 0x14F SWAP2 SWAP1 PUSH2 0xB32 JUMP JUMPDEST PUSH2 0x4C2 JUMP JUMPDEST PUSH1 0x40 MLOAD PUSH2 0x161 SWAP2 SWAP1 PUSH2 0xC78 JUMP JUMPDEST PUSH1 0x40 MLOAD DUP1 SWAP2 SUB SWAP1 RETURN JUMPDEST PUSH2 0x184 PUSH1 0x4 DUP1 CALLDATASIZE SUB DUP2 ADD SWAP1 PUSH2 0x17F SWAP2 SWAP1 PUSH2 0xDC4 JUMP JUMPDEST PUSH2 0x653 JUMP JUMPDEST STOP JUMPDEST PUSH1 0x1 PUSH1 0x20 MSTORE DUP2 PUSH0 MSTORE PUSH1 0x40 PUSH0 KECCAK256 DUP2 DUP2 SLOAD DUP2 LT PUSH2 0x19F JUMPI PUSH0 DUP1 REVERT JUMPDEST SWAP1 PUSH0 MSTORE PUSH1 0x20 PUSH0 KECCAK256 SWAP1 PUSH1 0x4 MUL ADD PUSH0 SWAP2 POP SWAP2 POP POP DUP1 PUSH0 ADD PUSH0 SWAP1 SLOAD SWAP1 PUSH2 0x100 EXP SWAP1 DIV PUSH20 0xFFFFFFFFFFFFFFFFFFFFFFFFFFFFFFFFFFFFFFFF AND SWAP1 DUP1 PUSH1 0x1 ADD DUP1 SLOAD PUSH2 0x1E4 SWAP1 PUSH2 0xE38 JUMP JUMPDEST DUP1 PUSH1 0x1F ADD PUSH1 0x20 DUP1 SWAP2 DIV MUL PUSH1 0x20 ADD PUSH1 0x40 MLOAD SWAP1 DUP2 ADD PUSH1 0x40 MSTORE DUP1 SWAP3 SWAP2 SWAP1 DUP2 DUP2 MSTORE PUSH1 0x20 ADD DUP3 DUP1 SLOAD PUSH2 0x210 SWAP1 PUSH2 0xE38 JUMP JUMPDEST DUP1 ISZERO PUSH2 0x25B JUMPI DUP1 PUSH1 0x1F LT PUSH2 0x232 JUMPI PUSH2 0x100 DUP1 DUP4 SLOAD DIV MUL DUP4 MSTORE SWAP2 PUSH1 0x20 ADD SWAP2 PUSH2 0x25B JUMP JUMPDEST DUP3 ADD SWAP2 SWAP1 PUSH0 MSTORE PUSH1 0x20 PUSH0 KECCAK256 SWAP1 JUMPDEST DUP2 SLOAD DUP2 MSTORE SWAP1 PUSH1 0x1 ADD SWAP1 PUSH1 0x20 ADD DUP1 DUP4 GT PUSH2 0x23E JUMPI DUP3 SWAP1 SUB PUSH1 0x1F AND DUP3 ADD SWAP2 JUMPDEST POP POP POP POP POP SWAP1 DUP1 PUSH1 0x2 ADD SLOAD SWAP1 DUP1 PUSH1 0x3 ADD SLOAD SWAP1 POP DUP5 JUMP JUMPDEST PUSH2 0x279 PUSH2 0x7BA JUMP JUMPDEST PUSH1 0x1 PUSH0 DUP5 PUSH20 0xFFFFFFFFFFFFFFFFFFFFFFFFFFFFFFFFFFFFFFFF AND PUSH20 0xFFFFFFFFFFFFFFFFFFFFFFFFFFFFFFFFFFFFFFFF AND DUP2 MSTORE PUSH1 0x20 ADD SWAP1 DUP2 MSTORE PUSH1 0x20 ADD PUSH0 KECCAK256 DUP3 DUP2 SLOAD DUP2 LT PUSH2 0x2C8 JUMPI PUSH2 0x2C7 PUSH2 0xE68 JUMP JUMPDEST JUMPDEST SWAP1 PUSH0 MSTORE PUSH1 0x20 PUSH0 KECCAK256 SWAP1 PUSH1 0x4 MUL ADD PUSH1 0x40 MLOAD DUP1 PUSH1 0x80 ADD PUSH1 0x40 MSTORE SWAP1 DUP2 PUSH0 DUP3 ADD PUSH0 SWAP1 SLOAD SWAP1 PUSH2 0x100 EXP SWAP1 DIV PUSH20 0xFFFFFFFFFFFFFFFFFFFFFFFFFFFFFFFFFFFFFFFF AND PUSH20 0xFFFFFFFFFFFFFFFFFFFFFFFFFFFFFFFFFFFFFFFF AND PUSH20 0xFFFFFFFFFFFFFFFFFFFFFFFFFFFFFFFFFFFFFFFF AND DUP2 MSTORE PUSH1 0x20 ADD PUSH1 0x1 DUP3 ADD DUP1 SLOAD PUSH2 0x343 SWAP1 PUSH2 0xE38 JUMP JUMPDEST DUP1 PUSH1 0x1F ADD PUSH1 0x20 DUP1 SWAP2 DIV MUL PUSH1 0x20 ADD PUSH1 0x40 MLOAD SWAP1 DUP2 ADD PUSH1 0x40 MSTORE DUP1 SWAP3 SWAP2 SWAP1 DUP2 DUP2 MSTORE PUSH1 0x20 ADD DUP3 DUP1 SLOAD PUSH2 0x36F SWAP1 PUSH2 0xE38 JUMP JUMPDEST DUP1 ISZERO PUSH2 0x3BA JUMPI DUP1 PUSH1 0x1F LT PUSH2 0x391 JUMPI PUSH2 0x100 DUP1 DUP4 SLOAD DIV MUL DUP4 MSTORE SWAP2 PUSH1 0x20 ADD SWAP2 PUSH2 0x3BA JUMP JUMPDEST DUP3 ADD SWAP2 SWAP1 PUSH0 MSTORE PUSH1 0x20 PUSH0 KECCAK256 SWAP1 JUMPDEST DUP2 SLOAD DUP2 MSTORE SWAP1 PUSH1 0x1 ADD SWAP1 PUSH1 0x20 ADD DUP1 DUP4 GT PUSH2 0x39D JUMPI DUP3 SWAP1 SUB PUSH1 0x1F AND DUP3 ADD SWAP2 JUMPDEST POP POP POP POP POP DUP2 MSTORE PUSH1 0x20 ADD PUSH1 0x2 DUP3 ADD SLOAD DUP2 MSTORE PUSH1 0x20 ADD PUSH1 0x3 DUP3 ADD SLOAD DUP2 MSTORE POP POP SWAP1 POP SWAP3 SWAP2 POP POP JUMP JUMPDEST PUSH1 0x2 PUSH0 SWAP1 SLOAD SWAP1 PUSH2 0x100 EXP SWAP1 DIV PUSH20 0xFFFFFFFFFFFFFFFFFFFFFFFFFFFFFFFFFFFFFFFF AND PUSH20 0xFFFFFFFFFFFFFFFFFFFFFFFFFFFFFFFFFFFFFFFF AND CALLER PUSH20 0xFFFFFFFFFFFFFFFFFFFFFFFFFFFFFFFFFFFFFFFF AND EQ PUSH2 0x46E JUMPI PUSH1 0x40 MLOAD PUSH32 0x8C379A000000000000000000000000000000000000000000000000000000000 DUP2 MSTORE PUSH1 0x4 ADD PUSH2 0x465 SWAP1 PUSH2 0xF05 JUMP JUMPDEST PUSH1 0x40 MLOAD DUP1 SWAP2 SUB SWAP1 REVERT JUMPDEST DUP1 PUSH0 DUP1 PUSH2 0x100 EXP DUP2 SLOAD DUP2 PUSH2 0xFFFF MUL NOT AND SWAP1 DUP4 PUSH2 0xFFFF AND MUL OR SWAP1 SSTORE POP POP JUMP JUMPDEST PUSH0 DUP1 SLOAD SWAP1 PUSH2 0x100 EXP SWAP1 DIV PUSH2 0xFFFF AND DUP2 JUMP JUMPDEST PUSH1 0x2 PUSH0 SWAP1 SLOAD SWAP1 PUSH2 0x100 EXP SWAP1 DIV PUSH20 0xFFFFFFFFFFFFFFFFFFFFFFFFFFFFFFFFFFFFFFFF AND DUP2 JUMP JUMPDEST PUSH1 0x60 PUSH1 0x1 PUSH0 DUP4 PUSH20 0xFFFFFFFFFFFFFFFFFFFFFFFFFFFFFFFFFFFFFFFF AND PUSH20 0xFFFFFFFFFFFFFFFFFFFFFFFFFFFFFFFFFFFFFFFF AND DUP2 MSTORE PUSH1 0x20 ADD SWAP1 DUP2 MSTORE PUSH1 0x20 ADD PUSH0 KECCAK256 DUP1 SLOAD DUP1 PUSH1 0x20 MUL PUSH1 0x20 ADD PUSH1 0x40 MLOAD SWAP1 DUP2 ADD PUSH1 0x40 MSTORE DUP1 SWAP3 SWAP2 SWAP1 DUP2 DUP2 MSTORE PUSH1 0x20 ADD PUSH0 SWAP1 JUMPDEST DUP3 DUP3 LT ISZERO PUSH2 0x648 JUMPI DUP4 DUP3 SWAP1 PUSH0 MSTORE PUSH1 0x20 PUSH0 KECCAK256 SWAP1 PUSH1 0x4 MUL ADD PUSH1 0x40 MLOAD DUP1 PUSH1 0x80 ADD PUSH1 0x40 MSTORE SWAP1 DUP2 PUSH0 DUP3 ADD PUSH0 SWAP1 SLOAD SWAP1 PUSH2 0x100 EXP SWAP1 DIV PUSH20 0xFFFFFFFFFFFFFFFFFFFFFFFFFFFFFFFFFFFFFFFF AND PUSH20 0xFFFFFFFFFFFFFFFFFFFFFFFFFFFFFFFFFFFFFFFF AND PUSH20 0xFFFFFFFFFFFFFFFFFFFFFFFFFFFFFFFFFFFFFFFF AND DUP2 MSTORE PUSH1 0x20 ADD PUSH1 0x1 DUP3 ADD DUP1 SLOAD PUSH2 0x5A5 SWAP1 PUSH2 0xE38 JUMP JUMPDEST DUP1 PUSH1 0x1F ADD PUSH1 0x20 DUP1 SWAP2 DIV MUL PUSH1 0x20 ADD PUSH1 0x40 MLOAD SWAP1 DUP2 ADD PUSH1 0x40 MSTORE DUP1 SWAP3 SWAP2 SWAP1 DUP2 DUP2 MSTORE PUSH1 0x20 ADD DUP3 DUP1 SLOAD PUSH2 0x5D1 SWAP1 PUSH2 0xE38 JUMP JUMPDEST DUP1 ISZERO PUSH2 0x61C JUMPI DUP1 PUSH1 0x1F LT PUSH2 0x5F3 JUMPI PUSH2 0x100 DUP1 DUP4 SLOAD DIV MUL DUP4 MSTORE SWAP2 PUSH1 0x20 ADD SWAP2 PUSH2 0x61C JUMP JUMPDEST DUP3 ADD SWAP2 SWAP1 PUSH0 MSTORE PUSH1 0x20 PUSH0 KECCAK256 SWAP1 JUMPDEST DUP2 SLOAD DUP2 MSTORE SWAP1 PUSH1 0x1 ADD SWAP1 PUSH1 0x20 ADD DUP1 DUP4 GT PUSH2 0x5FF JUMPI DUP3 SWAP1 SUB PUSH1 0x1F AND DUP3 ADD SWAP2 JUMPDEST POP POP POP POP POP DUP2 MSTORE PUSH1 0x20 ADD PUSH1 0x2 DUP3 ADD SLOAD DUP2 MSTORE PUSH1 0x20 ADD PUSH1 0x3 DUP3 ADD SLOAD DUP2 MSTORE POP POP DUP2 MSTORE PUSH1 0x20 ADD SWAP1 PUSH1 0x1 ADD SWAP1 PUSH2 0x520 JUMP JUMPDEST POP POP POP POP SWAP1 POP SWAP2 SWAP1 POP JUMP JUMPDEST PUSH0 DUP1 SLOAD SWAP1 PUSH2 0x100 EXP SWAP1 DIV PUSH2 0xFFFF AND PUSH2 0xFFFF AND DUP2 MLOAD GT ISZERO PUSH2 0x6A8 JUMPI PUSH1 0x40 MLOAD PUSH32 0x8C379A000000000000000000000000000000000000000000000000000000000 DUP2 MSTORE PUSH1 0x4 ADD PUSH2 0x69F SWAP1 PUSH2 0xF6D JUMP JUMPDEST PUSH1 0x40 MLOAD DUP1 SWAP2 SUB SWAP1 REVERT JUMPDEST PUSH0 PUSH1 0x40 MLOAD DUP1 PUSH1 0x80 ADD PUSH1 0x40 MSTORE DUP1 CALLER PUSH20 0xFFFFFFFFFFFFFFFFFFFFFFFFFFFFFFFFFFFFFFFF AND DUP2 MSTORE PUSH1 0x20 ADD DUP4 DUP2 MSTORE PUSH1 0x20 ADD TIMESTAMP DUP2 MSTORE PUSH1 0x20 ADD PUSH0 DUP2 MSTORE POP SWAP1 POP PUSH1 0x1 PUSH0 CALLER PUSH20 0xFFFFFFFFFFFFFFFFFFFFFFFFFFFFFFFFFFFFFFFF AND PUSH20 0xFFFFFFFFFFFFFFFFFFFFFFFFFFFFFFFFFFFFFFFF AND DUP2 MSTORE PUSH1 0x20 ADD SWAP1 DUP2 MSTORE PUSH1 0x20 ADD PUSH0 KECCAK256 DUP2 SWAP1 DUP1 PUSH1 0x1 DUP2 SLOAD ADD DUP1 DUP3 SSTORE DUP1 SWAP2 POP POP PUSH1 0x1 SWAP1 SUB SWAP1 PUSH0 MSTORE PUSH1 0x20 PUSH0 KECCAK256 SWAP1 PUSH1 0x4 MUL ADD PUSH0 SWAP1 SWAP2 SWAP1 SWAP2 SWAP1 SWAP2 POP PUSH0 DUP3 ADD MLOAD DUP2 PUSH0 ADD PUSH0 PUSH2 0x100 EXP DUP2 SLOAD DUP2 PUSH20 0xFFFFFFFFFFFFFFFFFFFFFFFFFFFFFFFFFFFFFFFF MUL NOT AND SWAP1 DUP4 PUSH20 0xFFFFFFFFFFFFFFFFFFFFFFFFFFFFFFFFFFFFFFFF AND MUL OR SWAP1 SSTORE POP PUSH1 0x20 DUP3 ADD MLOAD DUP2 PUSH1 0x1 ADD SWAP1 DUP2 PUSH2 0x79F SWAP2 SWAP1 PUSH2 0x1128 JUMP JUMPDEST POP PUSH1 0x40 DUP3 ADD MLOAD DUP2 PUSH1 0x2 ADD SSTORE PUSH1 0x60 DUP3 ADD MLOAD DUP2 PUSH1 0x3 ADD SSTORE POP POP POP POP JUMP JUMPDEST PUSH1 0x40 MLOAD DUP1 PUSH1 0x80 ADD PUSH1 0x40 MSTORE DUP1 PUSH0 PUSH20 0xFFFFFFFFFFFFFFFFFFFFFFFFFFFFFFFFFFFFFFFF AND DUP2 MSTORE PUSH1 0x20 ADD PUSH1 0x60 DUP2 MSTORE PUSH1 0x20 ADD PUSH0 DUP2 MSTORE PUSH1 0x20 ADD PUSH0 DUP2 MSTORE POP SWAP1 JUMP JUMPDEST PUSH0 PUSH1 0x40 MLOAD SWAP1 POP SWAP1 JUMP JUMPDEST PUSH0 DUP1 REVERT JUMPDEST PUSH0 DUP1 REVERT JUMPDEST PUSH0 PUSH20 0xFFFFFFFFFFFFFFFFFFFFFFFFFFFFFFFFFFFFFFFF DUP3 AND SWAP1 POP SWAP2 SWAP1 POP JUMP JUMPDEST PUSH0 PUSH2 0x82F DUP3 PUSH2 0x806 JUMP JUMPDEST SWAP1 POP SWAP2 SWAP1 POP JUMP JUMPDEST PUSH2 0x83F DUP2 PUSH2 0x825 JUMP JUMPDEST DUP2 EQ PUSH2 0x849 JUMPI PUSH0 DUP1 REVERT JUMPDEST POP JUMP JUMPDEST PUSH0 DUP2 CALLDATALOAD SWAP1 POP PUSH2 0x85A DUP2 PUSH2 0x836 JUMP JUMPDEST SWAP3 SWAP2 POP POP JUMP JUMPDEST PUSH0 DUP2 SWAP1 POP SWAP2 SWAP1 POP JUMP JUMPDEST PUSH2 0x872 DUP2 PUSH2 0x860 JUMP JUMPDEST DUP2 EQ PUSH2 0x87C JUMPI PUSH0 DUP1 REVERT JUMPDEST POP JUMP JUMPDEST PUSH0 DUP2 CALLDATALOAD SWAP1 POP PUSH2 0x88D DUP2 PUSH2 0x869 JUMP JUMPDEST SWAP3 SWAP2 POP POP JUMP JUMPDEST PUSH0 DUP1 PUSH1 0x40 DUP4 DUP6 SUB SLT ISZERO PUSH2 0x8A9 JUMPI PUSH2 0x8A8 PUSH2 0x7FE JUMP JUMPDEST JUMPDEST PUSH0 PUSH2 0x8B6 DUP6 DUP3 DUP7 ADD PUSH2 0x84C JUMP JUMPDEST SWAP3 POP POP PUSH1 0x20 PUSH2 0x8C7 DUP6 DUP3 DUP7 ADD PUSH2 0x87F JUMP JUMPDEST SWAP2 POP POP SWAP3 POP SWAP3 SWAP1 POP JUMP JUMPDEST PUSH2 0x8DA DUP2 PUSH2 0x825 JUMP JUMPDEST DUP3 MSTORE POP POP JUMP JUMPDEST PUSH0 DUP2 MLOAD SWAP1 POP SWAP2 SWAP1 POP JUMP JUMPDEST PUSH0 DUP3 DUP3 MSTORE PUSH1 0x20 DUP3 ADD SWAP1 POP SWAP3 SWAP2 POP POP JUMP JUMPDEST DUP3 DUP2 DUP4 MCOPY PUSH0 DUP4 DUP4 ADD MSTORE POP POP POP JUMP JUMPDEST PUSH0 PUSH1 0x1F NOT PUSH1 0x1F DUP4 ADD AND SWAP1 POP SWAP2 SWAP1 POP JUMP JUMPDEST PUSH0 PUSH2 0x922 DUP3 PUSH2 0x8E0 JUMP JUMPDEST PUSH2 0x92C DUP2 DUP6 PUSH2 0x8EA JUMP JUMPDEST SWAP4 POP PUSH2 0x93C DUP2 DUP6 PUSH1 0x20 DUP7 ADD PUSH2 0x8FA JUMP JUMPDEST PUSH2 0x945 DUP2 PUSH2 0x908 JUMP JUMPDEST DUP5 ADD SWAP2 POP POP SWAP3 SWAP2 POP POP JUMP JUMPDEST PUSH2 0x959 DUP2 PUSH2 0x860 JUMP JUMPDEST DUP3 MSTORE POP POP JUMP JUMPDEST PUSH0 PUSH1 0x80 DUP3 ADD SWAP1 POP PUSH2 0x972 PUSH0 DUP4 ADD DUP8 PUSH2 0x8D1 JUMP JUMPDEST DUP2 DUP2 SUB PUSH1 0x20 DUP4 ADD MSTORE PUSH2 0x984 DUP2 DUP7 PUSH2 0x918 JUMP JUMPDEST SWAP1 POP PUSH2 0x993 PUSH1 0x40 DUP4 ADD DUP6 PUSH2 0x950 JUMP JUMPDEST PUSH2 0x9A0 PUSH1 0x60 DUP4 ADD DUP5 PUSH2 0x950 JUMP JUMPDEST SWAP6 SWAP5 POP POP POP POP POP JUMP JUMPDEST PUSH2 0x9B2 DUP2 PUSH2 0x825 JUMP JUMPDEST DUP3 MSTORE POP POP JUMP JUMPDEST PUSH0 DUP3 DUP3 MSTORE PUSH1 0x20 DUP3 ADD SWAP1 POP SWAP3 SWAP2 POP POP JUMP JUMPDEST PUSH0 PUSH2 0x9D2 DUP3 PUSH2 0x8E0 JUMP JUMPDEST PUSH2 0x9DC DUP2 DUP6 PUSH2 0x9B8 JUMP JUMPDEST SWAP4 POP PUSH2 0x9EC DUP2 DUP6 PUSH1 0x20 DUP7 ADD PUSH2 0x8FA JUMP JUMPDEST PUSH2 0x9F5 DUP2 PUSH2 0x908 JUMP JUMPDEST DUP5 ADD SWAP2 POP POP SWAP3 SWAP2 POP POP JUMP JUMPDEST PUSH2 0xA09 DUP2 PUSH2 0x860 JUMP JUMPDEST DUP3 MSTORE POP POP JUMP JUMPDEST PUSH0 PUSH1 0x80 DUP4 ADD PUSH0 DUP4 ADD MLOAD PUSH2 0xA24 PUSH0 DUP7 ADD DUP3 PUSH2 0x9A9 JUMP JUMPDEST POP PUSH1 0x20 DUP4 ADD MLOAD DUP5 DUP3 SUB PUSH1 0x20 DUP7 ADD MSTORE PUSH2 0xA3C DUP3 DUP3 PUSH2 0x9C8 JUMP JUMPDEST SWAP2 POP POP PUSH1 0x40 DUP4 ADD MLOAD PUSH2 0xA51 PUSH1 0x40 DUP7 ADD DUP3 PUSH2 0xA00 JUMP JUMPDEST POP PUSH1 0x60 DUP4 ADD MLOAD PUSH2 0xA64 PUSH1 0x60 DUP7 ADD DUP3 PUSH2 0xA00 JUMP JUMPDEST POP DUP1 SWAP2 POP POP SWAP3 SWAP2 POP POP JUMP JUMPDEST PUSH0 PUSH1 0x20 DUP3 ADD SWAP1 POP DUP2 DUP2 SUB PUSH0 DUP4 ADD MSTORE PUSH2 0xA87 DUP2 DUP5 PUSH2 0xA0F JUMP JUMPDEST SWAP1 POP SWAP3 SWAP2 POP POP JUMP JUMPDEST PUSH0 PUSH2 0xFFFF DUP3 AND SWAP1 POP SWAP2 SWAP1 POP JUMP JUMPDEST PUSH2 0xAA5 DUP2 PUSH2 0xA8F JUMP JUMPDEST DUP2 EQ PUSH2 0xAAF JUMPI PUSH0 DUP1 REVERT JUMPDEST POP JUMP JUMPDEST PUSH0 DUP2 CALLDATALOAD SWAP1 POP PUSH2 0xAC0 DUP2 PUSH2 0xA9C JUMP JUMPDEST SWAP3 SWAP2 POP POP JUMP JUMPDEST PUSH0 PUSH1 0x20 DUP3 DUP5 SUB SLT ISZERO PUSH2 0xADB JUMPI PUSH2 0xADA PUSH2 0x7FE JUMP JUMPDEST JUMPDEST PUSH0 PUSH2 0xAE8 DUP5 DUP3 DUP6 ADD PUSH2 0xAB2 JUMP JUMPDEST SWAP2 POP POP SWAP3 SWAP2 POP POP JUMP JUMPDEST PUSH2 0xAFA DUP2 PUSH2 0xA8F JUMP JUMPDEST DUP3 MSTORE POP POP JUMP JUMPDEST PUSH0 PUSH1 0x20 DUP3 ADD SWAP1 POP PUSH2 0xB13 PUSH0 DUP4 ADD DUP5 PUSH2 0xAF1 JUMP JUMPDEST SWAP3 SWAP2 POP POP JUMP JUMPDEST PUSH0 PUSH1 0x20 DUP3 ADD SWAP1 POP PUSH2 0xB2C PUSH0 DUP4 ADD DUP5 PUSH2 0x8D1 JUMP JUMPDEST SWAP3 SWAP2 POP POP JUMP JUMPDEST PUSH0 PUSH1 0x20 DUP3 DUP5 SUB SLT ISZERO PUSH2 0xB47 JUMPI PUSH2 0xB46 PUSH2 0x7FE JUMP JUMPDEST JUMPDEST PUSH0 PUSH2 0xB54 DUP5 DUP3 DUP6 ADD PUSH2 0x84C JUMP JUMPDEST SWAP2 POP POP SWAP3 SWAP2 POP POP JUMP JUMPDEST PUSH0 DUP2 MLOAD SWAP1 POP SWAP2 SWAP1 POP JUMP JUMPDEST PUSH0 DUP3 DUP3 MSTORE PUSH1 0x20 DUP3 ADD SWAP1 POP SWAP3 SWAP2 POP POP JUMP JUMPDEST PUSH0 DUP2 SWAP1 POP PUSH1 0x20 DUP3 ADD SWAP1 POP SWAP2 SWAP1 POP JUMP JUMPDEST PUSH0 PUSH1 0x80 DUP4 ADD PUSH0 DUP4 ADD MLOAD PUSH2 0xB9B PUSH0 DUP7 ADD DUP3 PUSH2 0x9A9 JUMP JUMPDEST POP PUSH1 0x20 DUP4 ADD MLOAD DUP5 DUP3 SUB PUSH1 0x20 DUP7 ADD MSTORE PUSH2 0xBB3 DUP3 DUP3 PUSH2 0x9C8 JUMP JUMPDEST SWAP2 POP POP PUSH1 0x40 DUP4 ADD MLOAD PUSH2 0xBC8 PUSH1 0x40 DUP7 ADD DUP3 PUSH2 0xA00 JUMP JUMPDEST POP PUSH1 0x60 DUP4 ADD MLOAD PUSH2 0xBDB PUSH1 0x60 DUP7 ADD DUP3 PUSH2 0xA00 JUMP JUMPDEST POP DUP1 SWAP2 POP POP SWAP3 SWAP2 POP POP JUMP JUMPDEST PUSH0 PUSH2 0xBF1 DUP4 DUP4 PUSH2 0xB86 JUMP JUMPDEST SWAP1 POP SWAP3 SWAP2 POP POP JUMP JUMPDEST PUSH0 PUSH1 0x20 DUP3 ADD SWAP1 POP SWAP2 SWAP1 POP JUMP JUMPDEST PUSH0 PUSH2 0xC0F DUP3 PUSH2 0xB5D JUMP JUMPDEST PUSH2 0xC19 DUP2 DUP6 PUSH2 0xB67 JUMP JUMPDEST SWAP4 POP DUP4 PUSH1 0x20 DUP3 MUL DUP6 ADD PUSH2 0xC2B DUP6 PUSH2 0xB77 JUMP JUMPDEST DUP1 PUSH0 JUMPDEST DUP6 DUP2 LT ISZERO PUSH2 0xC66 JUMPI DUP5 DUP5 SUB DUP10 MSTORE DUP2 MLOAD PUSH2 0xC47 DUP6 DUP3 PUSH2 0xBE6 JUMP JUMPDEST SWAP5 POP PUSH2 0xC52 DUP4 PUSH2 0xBF9 JUMP JUMPDEST SWAP3 POP PUSH1 0x20 DUP11 ADD SWAP10 POP POP PUSH1 0x1 DUP2 ADD SWAP1 POP PUSH2 0xC2E JUMP JUMPDEST POP DUP3 SWAP8 POP DUP8 SWAP6 POP POP POP POP POP POP SWAP3 SWAP2 POP POP JUMP JUMPDEST PUSH0 PUSH1 0x20 DUP3 ADD SWAP1 POP DUP2 DUP2 SUB PUSH0 DUP4 ADD MSTORE PUSH2 0xC90 DUP2 DUP5 PUSH2 0xC05 JUMP JUMPDEST SWAP1 POP SWAP3 SWAP2 POP POP JUMP JUMPDEST PUSH0 DUP1 REVERT JUMPDEST PUSH0 DUP1 REVERT JUMPDEST PUSH32 0x4E487B7100000000000000000000000000000000000000000000000000000000 PUSH0 MSTORE PUSH1 0x41 PUSH1 0x4 MSTORE PUSH1 0x24 PUSH0 REVERT JUMPDEST PUSH2 0xCD6 DUP3 PUSH2 0x908 JUMP JUMPDEST DUP2 ADD DUP2 DUP2 LT PUSH8 0xFFFFFFFFFFFFFFFF DUP3 GT OR ISZERO PUSH2 0xCF5 JUMPI PUSH2 0xCF4 PUSH2 0xCA0 JUMP JUMPDEST JUMPDEST DUP1 PUSH1 0x40 MSTORE POP POP POP JUMP JUMPDEST PUSH0 PUSH2 0xD07 PUSH2 0x7F5 JUMP JUMPDEST SWAP1 POP PUSH2 0xD13 DUP3 DUP3 PUSH2 0xCCD JUMP JUMPDEST SWAP2 SWAP1 POP JUMP JUMPDEST PUSH0 PUSH8 0xFFFFFFFFFFFFFFFF DUP3 GT ISZERO PUSH2 0xD32 JUMPI PUSH2 0xD31 PUSH2 0xCA0 JUMP JUMPDEST JUMPDEST PUSH2 0xD3B DUP3 PUSH2 0x908 JUMP JUMPDEST SWAP1 POP PUSH1 0x20 DUP2 ADD SWAP1 POP SWAP2 SWAP1 POP JUMP JUMPDEST DUP3 DUP2 DUP4 CALLDATACOPY PUSH0 DUP4 DUP4 ADD MSTORE POP POP POP JUMP JUMPDEST PUSH0 PUSH2 0xD68 PUSH2 0xD63 DUP5 PUSH2 0xD18 JUMP JUMPDEST PUSH2 0xCFE JUMP JUMPDEST SWAP1 POP DUP3 DUP2 MSTORE PUSH1 0x20 DUP2 ADD DUP5 DUP5 DUP5 ADD GT ISZERO PUSH2 0xD84 JUMPI PUSH2 0xD83 PUSH2 0xC9C JUMP JUMPDEST JUMPDEST PUSH2 0xD8F DUP5 DUP3 DUP6 PUSH2 0xD48 JUMP JUMPDEST POP SWAP4 SWAP3 POP POP POP JUMP JUMPDEST PUSH0 DUP3 PUSH1 0x1F DUP4 ADD SLT PUSH2 0xDAB JUMPI PUSH2 0xDAA PUSH2 0xC98 JUMP JUMPDEST JUMPDEST DUP2 CALLDATALOAD PUSH2 0xDBB DUP5 DUP3 PUSH1 0x20 DUP7 ADD PUSH2 0xD56 JUMP JUMPDEST SWAP2 POP POP SWAP3 SWAP2 POP POP JUMP JUMPDEST PUSH0 PUSH1 0x20 DUP3 DUP5 SUB SLT ISZERO PUSH2 0xDD9 JUMPI PUSH2 0xDD8 PUSH2 0x7FE JUMP JUMPDEST JUMPDEST PUSH0 DUP3 ADD CALLDATALOAD PUSH8 0xFFFFFFFFFFFFFFFF DUP2 GT ISZERO PUSH2 0xDF6 JUMPI PUSH2 0xDF5 PUSH2 0x802 JUMP JUMPDEST JUMPDEST PUSH2 0xE02 DUP5 DUP3 DUP6 ADD PUSH2 0xD97 JUMP JUMPDEST SWAP2 POP POP SWAP3 SWAP2 POP POP JUMP JUMPDEST PUSH32 0x4E487B7100000000000000000000000000000000000000000000000000000000 PUSH0 MSTORE PUSH1 0x22 PUSH1 0x4 MSTORE PUSH1 0x24 PUSH0 REVERT JUMPDEST PUSH0 PUSH1 0x2 DUP3 DIV SWAP1 POP PUSH1 0x1 DUP3 AND DUP1 PUSH2 0xE4F JUMPI PUSH1 0x7F DUP3 AND SWAP2 POP JUMPDEST PUSH1 0x20 DUP3 LT DUP2 SUB PUSH2 0xE62 JUMPI PUSH2 0xE61 PUSH2 0xE0B JUMP JUMPDEST JUMPDEST POP SWAP2 SWAP1 POP JUMP JUMPDEST PUSH32 0x4E487B7100000000000000000000000000000000000000000000000000000000 PUSH0 MSTORE PUSH1 0x32 PUSH1 0x4 MSTORE PUSH1 0x24 PUSH0 REVERT JUMPDEST PUSH32 0x796F7520617265206E6F7420746865206F776E6572206F662074686520636F6E PUSH0 DUP3 ADD MSTORE PUSH32 0x7472616374210000000000000000000000000000000000000000000000000000 PUSH1 0x20 DUP3 ADD MSTORE POP JUMP JUMPDEST PUSH0 PUSH2 0xEEF PUSH1 0x26 DUP4 PUSH2 0x8EA JUMP JUMPDEST SWAP2 POP PUSH2 0xEFA DUP3 PUSH2 0xE95 JUMP JUMPDEST PUSH1 0x40 DUP3 ADD SWAP1 POP SWAP2 SWAP1 POP JUMP JUMPDEST PUSH0 PUSH1 0x20 DUP3 ADD SWAP1 POP DUP2 DUP2 SUB PUSH0 DUP4 ADD MSTORE PUSH2 0xF1C DUP2 PUSH2 0xEE3 JUMP JUMPDEST SWAP1 POP SWAP2 SWAP1 POP JUMP JUMPDEST PUSH32 0x746F6F206C6F6E67210000000000000000000000000000000000000000000000 PUSH0 DUP3 ADD MSTORE POP JUMP JUMPDEST PUSH0 PUSH2 0xF57 PUSH1 0x9 DUP4 PUSH2 0x8EA JUMP JUMPDEST SWAP2 POP PUSH2 0xF62 DUP3 PUSH2 0xF23 JUMP JUMPDEST PUSH1 0x20 DUP3 ADD SWAP1 POP SWAP2 SWAP1 POP JUMP JUMPDEST PUSH0 PUSH1 0x20 DUP3 ADD SWAP1 POP DUP2 DUP2 SUB PUSH0 DUP4 ADD MSTORE PUSH2 0xF84 DUP2 PUSH2 0xF4B JUMP JUMPDEST SWAP1 POP SWAP2 SWAP1 POP JUMP JUMPDEST PUSH0 DUP2 SWAP1 POP DUP2 PUSH0 MSTORE PUSH1 0x20 PUSH0 KECCAK256 SWAP1 POP SWAP2 SWAP1 POP JUMP JUMPDEST PUSH0 PUSH1 0x20 PUSH1 0x1F DUP4 ADD DIV SWAP1 POP SWAP2 SWAP1 POP JUMP JUMPDEST PUSH0 DUP3 DUP3 SHL SWAP1 POP SWAP3 SWAP2 POP POP JUMP JUMPDEST PUSH0 PUSH1 0x8 DUP4 MUL PUSH2 0xFE7 PUSH32 0xFFFFFFFFFFFFFFFFFFFFFFFFFFFFFFFFFFFFFFFFFFFFFFFFFFFFFFFFFFFFFFFF DUP3 PUSH2 0xFAC JUMP JUMPDEST PUSH2 0xFF1 DUP7 DUP4 PUSH2 0xFAC JUMP JUMPDEST SWAP6 POP DUP1 NOT DUP5 AND SWAP4 POP DUP1 DUP7 AND DUP5 OR SWAP3 POP POP POP SWAP4 SWAP3 POP POP POP JUMP JUMPDEST PUSH0 DUP2 SWAP1 POP SWAP2 SWAP1 POP JUMP JUMPDEST PUSH0 PUSH2 0x102C PUSH2 0x1027 PUSH2 0x1022 DUP5 PUSH2 0x860 JUMP JUMPDEST PUSH2 0x1009 JUMP JUMPDEST PUSH2 0x860 JUMP JUMPDEST SWAP1 POP SWAP2 SWAP1 POP JUMP JUMPDEST PUSH0 DUP2 SWAP1 POP SWAP2 SWAP1 POP JUMP JUMPDEST PUSH2 0x1045 DUP4 PUSH2 0x1012 JUMP JUMPDEST PUSH2 0x1059 PUSH2 0x1051 DUP3 PUSH2 0x1033 JUMP JUMPDEST DUP5 DUP5 SLOAD PUSH2 0xFB8 JUMP JUMPDEST DUP3 SSTORE POP POP POP POP JUMP JUMPDEST PUSH0 SWAP1 JUMP JUMPDEST PUSH2 0x106D PUSH2 0x1061 JUMP JUMPDEST PUSH2 0x1078 DUP2 DUP5 DUP5 PUSH2 0x103C JUMP JUMPDEST POP POP POP JUMP JUMPDEST JUMPDEST DUP2 DUP2 LT ISZERO PUSH2 0x109B JUMPI PUSH2 0x1090 PUSH0 DUP3 PUSH2 0x1065 JUMP JUMPDEST PUSH1 0x1 DUP2 ADD SWAP1 POP PUSH2 0x107E JUMP JUMPDEST POP POP JUMP JUMPDEST PUSH1 0x1F DUP3 GT ISZERO PUSH2 0x10E0 JUMPI PUSH2 0x10B1 DUP2 PUSH2 0xF8B JUMP JUMPDEST PUSH2 0x10BA DUP5 PUSH2 0xF9D JUMP JUMPDEST DUP2 ADD PUSH1 0x20 DUP6 LT ISZERO PUSH2 0x10C9 JUMPI DUP2 SWAP1 POP JUMPDEST PUSH2 0x10DD PUSH2 0x10D5 DUP6 PUSH2 0xF9D JUMP JUMPDEST DUP4 ADD DUP3 PUSH2 0x107D JUMP JUMPDEST POP POP JUMPDEST POP POP POP JUMP JUMPDEST PUSH0 DUP3 DUP3 SHR SWAP1 POP SWAP3 SWAP2 POP POP JUMP JUMPDEST PUSH0 PUSH2 0x1100 PUSH0 NOT DUP5 PUSH1 0x8 MUL PUSH2 0x10E5 JUMP JUMPDEST NOT DUP1 DUP4 AND SWAP2 POP POP SWAP3 SWAP2 POP POP JUMP JUMPDEST PUSH0 PUSH2 0x1118 DUP4 DUP4 PUSH2 0x10F1 JUMP JUMPDEST SWAP2 POP DUP3 PUSH1 0x2 MUL DUP3 OR SWAP1 POP SWAP3 SWAP2 POP POP JUMP JUMPDEST PUSH2 0x1131 DUP3 PUSH2 0x8E0 JUMP JUMPDEST PUSH8 0xFFFFFFFFFFFFFFFF DUP2 GT ISZERO PUSH2 0x114A JUMPI PUSH2 0x1149 PUSH2 0xCA0 JUMP JUMPDEST JUMPDEST PUSH2 0x1154 DUP3 SLOAD PUSH2 0xE38 JUMP JUMPDEST PUSH2 0x115F DUP3 DUP3 DUP6 PUSH2 0x109F JUMP JUMPDEST PUSH0 PUSH1 0x20 SWAP1 POP PUSH1 0x1F DUP4 GT PUSH1 0x1 DUP2 EQ PUSH2 0x1190 JUMPI PUSH0 DUP5 ISZERO PUSH2 0x117E JUMPI DUP3 DUP8 ADD MLOAD SWAP1 POP JUMPDEST PUSH2 0x1188 DUP6 DUP3 PUSH2 0x110D JUMP JUMPDEST DUP7 SSTORE POP PUSH2 0x11EF JUMP JUMPDEST PUSH1 0x1F NOT DUP5 AND PUSH2 0x119E DUP7 PUSH2 0xF8B JUMP JUMPDEST PUSH0 JUMPDEST DUP3 DUP2 LT ISZERO PUSH2 0x11C5 JUMPI DUP5 DUP10 ADD MLOAD DUP3 SSTORE PUSH1 0x1 DUP3 ADD SWAP2 POP PUSH1 0x20 DUP6 ADD SWAP5 POP PUSH1 0x20 DUP2 ADD SWAP1 POP PUSH2 0x11A0 JUMP JUMPDEST DUP7 DUP4 LT ISZERO PUSH2 0x11E2 JUMPI DUP5 DUP10 ADD MLOAD PUSH2 0x11DE PUSH1 0x1F DUP10 AND DUP3 PUSH2 0x10F1 JUMP JUMPDEST DUP4 SSTORE POP JUMPDEST PUSH1 0x1 PUSH1 0x2 DUP9 MUL ADD DUP9 SSTORE POP POP POP JUMPDEST POP POP POP POP POP POP JUMP INVALID LOG2 PUSH5 0x6970667358 0x22 SLT KECCAK256 0xC3 0xA8 PUSH30 0xFB34A04B13306C048941304274216D0663F7F3B2E07DDE0113ED44C22264 PUSH20 0x6F6C634300081A00330000000000000000000000 "
				},
				"gasEstimates": {
					"creation": {
						"codeDepositCost": "930600",
						"executionCost": "49497",
						"totalCost": "980097"
					},
					"external": {
						"changeTweetLength(uint16)": "26887",
						"getAllTweet(address)": "infinite",
						"getTweet(address,uint256)": "infinite",
						"max_char_in_tweet()": "2463",
						"owner()": "2530",
						"tweet(string)": "infinite",
						"tweets(address,uint256)": "infinite"
					}
				},
				"methodIdentifiers": {
					"changeTweetLength(uint16)": "58bfa4ab",
					"getAllTweet(address)": "b64988b8",
					"getTweet(address,uint256)": "112f54e3",
					"max_char_in_tweet()": "63a7c3aa",
					"owner()": "8da5cb5b",
					"tweet(string)": "fb46d4c5",
					"tweets(address,uint256)": "05a1b4a9"
				}
			},
			"storageLayout": {
				"storage": [
					{
						"astId": 4,
						"contract": "contracts/Twitter.sol:Twitter",
						"label": "max_char_in_tweet",
						"offset": 0,
						"slot": "0",
						"type": "t_uint16"
					},
					{
						"astId": 19,
						"contract": "contracts/Twitter.sol:Twitter",
						"label": "tweets",
						"offset": 0,
						"slot": "1",
						"type": "t_mapping(t_address,t_array(t_struct(Tweet)13_storage)dyn_storage)"
					},
					{
						"astId": 21,
						"contract": "contracts/Twitter.sol:Twitter",
						"label": "owner",
						"offset": 0,
						"slot": "2",
						"type": "t_address"
					}
				],
				"types": {
					"t_address": {
						"encoding": "inplace",
						"label": "address",
						"numberOfBytes": "20"
					},
					"t_array(t_struct(Tweet)13_storage)dyn_storage": {
						"base": "t_struct(Tweet)13_storage",
						"encoding": "dynamic_array",
						"label": "struct Twitter.Tweet[]",
						"numberOfBytes": "32"
					},
					"t_mapping(t_address,t_array(t_struct(Tweet)13_storage)dyn_storage)": {
						"encoding": "mapping",
						"key": "t_address",
						"label": "mapping(address => struct Twitter.Tweet[])",
						"numberOfBytes": "32",
						"value": "t_array(t_struct(Tweet)13_storage)dyn_storage"
					},
					"t_string_storage": {
						"encoding": "bytes",
						"label": "string",
						"numberOfBytes": "32"
					},
					"t_struct(Tweet)13_storage": {
						"encoding": "inplace",
						"label": "struct Twitter.Tweet",
						"members": [
							{
								"astId": 6,
								"contract": "contracts/Twitter.sol:Twitter",
								"label": "author",
								"offset": 0,
								"slot": "0",
								"type": "t_address"
							},
							{
								"astId": 8,
								"contract": "contracts/Twitter.sol:Twitter",
								"label": "content",
								"offset": 0,
								"slot": "1",
								"type": "t_string_storage"
							},
							{
								"astId": 10,
								"contract": "contracts/Twitter.sol:Twitter",
								"label": "timestamp",
								"offset": 0,
								"slot": "2",
								"type": "t_uint256"
							},
							{
								"astId": 12,
								"contract": "contracts/Twitter.sol:Twitter",
								"label": "likes",
								"offset": 0,
								"slot": "3",
								"type": "t_uint256"
							}
						],
						"numberOfBytes": "128"
					},
					"t_uint16": {
						"encoding": "inplace",
						"label": "uint16",
						"numberOfBytes": "2"
					},
					"t_uint256": {
						"encoding": "inplace",
						"label": "uint256",
						"numberOfBytes": "32"
					}
				}
			},
			"userdoc": {
				"kind": "user",
				"methods": {},
				"version": 1
			}
		}
	}
}