{
	"contracts/Twitter.sol": {
		"Twitter": {
			"abi": [
				{
					"inputs": [],
					"stateMutability": "nonpayable",
					"type": "constructor"
				},
				{
					"inputs": [
						{
							"internalType": "uint16",
							"name": "newLength",
							"type": "uint16"
						}
					],
					"name": "changeTweetLength",
					"outputs": [],
					"stateMutability": "nonpayable",
					"type": "function"
				},
				{
					"inputs": [
						{
							"internalType": "string",
							"name": "_tweet",
							"type": "string"
						}
					],
					"name": "createTweet",
					"outputs": [],
					"stateMutability": "nonpayable",
					"type": "function"
				},
				{
					"inputs": [
						{
							"internalType": "address",
							"name": "author",
							"type": "address"
						},
						{
							"internalType": "uint256",
							"name": "id",
							"type": "uint256"
						}
					],
					"name": "dislikeTweet",
					"outputs": [],
					"stateMutability": "nonpayable",
					"type": "function"
				},
				{
					"inputs": [
						{
							"internalType": "address",
							"name": "_owner",
							"type": "address"
						}
					],
					"name": "getAllTweet",
					"outputs": [
						{
							"components": [
								{
									"internalType": "uint256",
									"name": "id",
									"type": "uint256"
								},
								{
									"internalType": "address",
									"name": "author",
									"type": "address"
								},
								{
									"internalType": "string",
									"name": "content",
									"type": "string"
								},
								{
									"internalType": "uint256",
									"name": "timestamp",
									"type": "uint256"
								},
								{
									"internalType": "uint256",
									"name": "likes",
									"type": "uint256"
								}
							],
							"internalType": "struct Twitter.Tweet[]",
							"name": "",
							"type": "tuple[]"
						}
					],
					"stateMutability": "view",
					"type": "function"
				},
				{
					"inputs": [
						{
							"internalType": "address",
							"name": "_owner",
							"type": "address"
						},
						{
							"internalType": "uint256",
							"name": "_i",
							"type": "uint256"
						}
					],
					"name": "getTweet",
					"outputs": [
						{
							"components": [
								{
									"internalType": "uint256",
									"name": "id",
									"type": "uint256"
								},
								{
									"internalType": "address",
									"name": "author",
									"type": "address"
								},
								{
									"internalType": "string",
									"name": "content",
									"type": "string"
								},
								{
									"internalType": "uint256",
									"name": "timestamp",
									"type": "uint256"
								},
								{
									"internalType": "uint256",
									"name": "likes",
									"type": "uint256"
								}
							],
							"internalType": "struct Twitter.Tweet",
							"name": "",
							"type": "tuple"
						}
					],
					"stateMutability": "view",
					"type": "function"
				},
				{
					"inputs": [
						{
							"internalType": "address",
							"name": "author",
							"type": "address"
						},
						{
							"internalType": "uint256",
							"name": "id",
							"type": "uint256"
						}
					],
					"name": "likeTweet",
					"outputs": [],
					"stateMutability": "nonpayable",
					"type": "function"
				},
				{
					"inputs": [],
					"name": "max_char_in_tweet",
					"outputs": [
						{
							"internalType": "uint16",
							"name": "",
							"type": "uint16"
						}
					],
					"stateMutability": "view",
					"type": "function"
				},
				{
					"inputs": [],
					"name": "owner",
					"outputs": [
						{
							"internalType": "address",
							"name": "",
							"type": "address"
						}
					],
					"stateMutability": "view",
					"type": "function"
				},
				{
					"inputs": [
						{
							"internalType": "address",
							"name": "",
							"type": "address"
						},
						{
							"internalType": "uint256",
							"name": "",
							"type": "uint256"
						}
					],
					"name": "tweets",
					"outputs": [
						{
							"internalType": "uint256",
							"name": "id",
							"type": "uint256"
						},
						{
							"internalType": "address",
							"name": "author",
							"type": "address"
						},
						{
							"internalType": "string",
							"name": "content",
							"type": "string"
						},
						{
							"internalType": "uint256",
							"name": "timestamp",
							"type": "uint256"
						},
						{
							"internalType": "uint256",
							"name": "likes",
							"type": "uint256"
						}
					],
					"stateMutability": "view",
					"type": "function"
				}
			],
			"devdoc": {
				"kind": "dev",
				"methods": {},
				"version": 1
			},
			"evm": {
				"assembly": "    /* \"contracts/Twitter.sol\":64:1636  contract Twitter {... */\n  mstore(0x40, 0x80)\n    /* \"contracts/Twitter.sol\":121:124  100 */\n  0x64\n    /* \"contracts/Twitter.sol\":87:124  uint16 public max_char_in_tweet = 100 */\n  0x00\n  dup1\n  0x0100\n  exp\n  dup2\n  sload\n  dup2\n  0xffff\n  mul\n  not\n  and\n  swap1\n  dup4\n  0xffff\n  and\n  mul\n  or\n  swap1\n  sstore\n  pop\n    /* \"contracts/Twitter.sol\":345:395  constructor () {... */\n  callvalue\n  dup1\n  iszero\n  tag_1\n  jumpi\n  0x00\n  dup1\n  revert\ntag_1:\n  pop\n    /* \"contracts/Twitter.sol\":378:388  msg.sender */\n  caller\n    /* \"contracts/Twitter.sol\":370:375  owner */\n  0x02\n  0x00\n    /* \"contracts/Twitter.sol\":370:388  owner = msg.sender */\n  0x0100\n  exp\n  dup2\n  sload\n  dup2\n  0xffffffffffffffffffffffffffffffffffffffff\n  mul\n  not\n  and\n  swap1\n  dup4\n  0xffffffffffffffffffffffffffffffffffffffff\n  and\n  mul\n  or\n  swap1\n  sstore\n  pop\n    /* \"contracts/Twitter.sol\":64:1636  contract Twitter {... */\n  dataSize(sub_0)\n  dup1\n  dataOffset(sub_0)\n  0x00\n  codecopy\n  0x00\n  return\nstop\n\nsub_0: assembly {\n        /* \"contracts/Twitter.sol\":64:1636  contract Twitter {... */\n      mstore(0x40, 0x80)\n      callvalue\n      dup1\n      iszero\n      tag_1\n      jumpi\n      0x00\n      dup1\n      revert\n    tag_1:\n      pop\n      jumpi(tag_2, lt(calldatasize, 0x04))\n      shr(0xe0, calldataload(0x00))\n      dup1\n      0x63a7c3aa\n      gt\n      tag_12\n      jumpi\n      dup1\n      0x63a7c3aa\n      eq\n      tag_7\n      jumpi\n      dup1\n      0x7c9cd2bc\n      eq\n      tag_8\n      jumpi\n      dup1\n      0x8da5cb5b\n      eq\n      tag_9\n      jumpi\n      dup1\n      0xae775e95\n      eq\n      tag_10\n      jumpi\n      dup1\n      0xb64988b8\n      eq\n      tag_11\n      jumpi\n      jump(tag_2)\n    tag_12:\n      dup1\n      0x05a1b4a9\n      eq\n      tag_3\n      jumpi\n      dup1\n      0x112f54e3\n      eq\n      tag_4\n      jumpi\n      dup1\n      0x58bfa4ab\n      eq\n      tag_5\n      jumpi\n      dup1\n      0x63378216\n      eq\n      tag_6\n      jumpi\n    tag_2:\n      0x00\n      dup1\n      revert\n        /* \"contracts/Twitter.sol\":269:311  mapping (address => Tweet[]) public tweets */\n    tag_3:\n      tag_13\n      0x04\n      dup1\n      calldatasize\n      sub\n      dup2\n      add\n      swap1\n      tag_14\n      swap2\n      swap1\n      tag_15\n      jump\t// in\n    tag_14:\n      tag_16\n      jump\t// in\n    tag_13:\n      mload(0x40)\n      tag_17\n      swap6\n      swap5\n      swap4\n      swap3\n      swap2\n      swap1\n      tag_18\n      jump\t// in\n    tag_17:\n      mload(0x40)\n      dup1\n      swap2\n      sub\n      swap1\n      return\n        /* \"contracts/Twitter.sol\":1392:1514  function getTweet(address _owner, uint _i) external view returns (Tweet memory) {... */\n    tag_4:\n      tag_19\n      0x04\n      dup1\n      calldatasize\n      sub\n      dup2\n      add\n      swap1\n      tag_20\n      swap2\n      swap1\n      tag_15\n      jump\t// in\n    tag_20:\n      tag_21\n      jump\t// in\n    tag_19:\n      mload(0x40)\n      tag_22\n      swap2\n      swap1\n      tag_23\n      jump\t// in\n    tag_22:\n      mload(0x40)\n      dup1\n      swap2\n      sub\n      swap1\n      return\n        /* \"contracts/Twitter.sol\":524:635  function changeTweetLength (uint16 newLength) external onlyOwner {... */\n    tag_5:\n      tag_24\n      0x04\n      dup1\n      calldatasize\n      sub\n      dup2\n      add\n      swap1\n      tag_25\n      swap2\n      swap1\n      tag_26\n      jump\t// in\n    tag_25:\n      tag_27\n      jump\t// in\n    tag_24:\n      stop\n        /* \"contracts/Twitter.sol\":1043:1210  function likeTweet(address author, uint256 id) external {... */\n    tag_6:\n      tag_28\n      0x04\n      dup1\n      calldatasize\n      sub\n      dup2\n      add\n      swap1\n      tag_29\n      swap2\n      swap1\n      tag_15\n      jump\t// in\n    tag_29:\n      tag_30\n      jump\t// in\n    tag_28:\n      stop\n        /* \"contracts/Twitter.sol\":87:124  uint16 public max_char_in_tweet = 100 */\n    tag_7:\n      tag_31\n      tag_32\n      jump\t// in\n    tag_31:\n      mload(0x40)\n      tag_33\n      swap2\n      swap1\n      tag_34\n      jump\t// in\n    tag_33:\n      mload(0x40)\n      dup1\n      swap2\n      sub\n      swap1\n      return\n        /* \"contracts/Twitter.sol\":641:1037  function createTweet(string memory _tweet) external {... */\n    tag_8:\n      tag_35\n      0x04\n      dup1\n      calldatasize\n      sub\n      dup2\n      add\n      swap1\n      tag_36\n      swap2\n      swap1\n      tag_37\n      jump\t// in\n    tag_36:\n      tag_38\n      jump\t// in\n    tag_35:\n      stop\n        /* \"contracts/Twitter.sol\":317:337  address public owner */\n    tag_9:\n      tag_39\n      tag_40\n      jump\t// in\n    tag_39:\n      mload(0x40)\n      tag_41\n      swap2\n      swap1\n      tag_42\n      jump\t// in\n    tag_41:\n      mload(0x40)\n      dup1\n      swap2\n      sub\n      swap1\n      return\n        /* \"contracts/Twitter.sol\":1216:1386  function dislikeTweet(address author, uint256 id) external {... */\n    tag_10:\n      tag_43\n      0x04\n      dup1\n      calldatasize\n      sub\n      dup2\n      add\n      swap1\n      tag_44\n      swap2\n      swap1\n      tag_15\n      jump\t// in\n    tag_44:\n      tag_45\n      jump\t// in\n    tag_43:\n      stop\n        /* \"contracts/Twitter.sol\":1520:1634  function getAllTweet(address _owner) external view returns (Tweet[] memory) {... */\n    tag_11:\n      tag_46\n      0x04\n      dup1\n      calldatasize\n      sub\n      dup2\n      add\n      swap1\n      tag_47\n      swap2\n      swap1\n      tag_48\n      jump\t// in\n    tag_47:\n      tag_49\n      jump\t// in\n    tag_46:\n      mload(0x40)\n      tag_50\n      swap2\n      swap1\n      tag_51\n      jump\t// in\n    tag_50:\n      mload(0x40)\n      dup1\n      swap2\n      sub\n      swap1\n      return\n        /* \"contracts/Twitter.sol\":269:311  mapping (address => Tweet[]) public tweets */\n    tag_16:\n      mstore(0x20, 0x01)\n      dup2\n      0x00\n      mstore\n      keccak256(0x00, 0x40)\n      dup2\n      dup2\n      sload\n      dup2\n      lt\n      tag_52\n      jumpi\n      0x00\n      dup1\n      revert\n    tag_52:\n      swap1\n      0x00\n      mstore\n      keccak256(0x00, 0x20)\n      swap1\n      0x05\n      mul\n      add\n      0x00\n      swap2\n      pop\n      swap2\n      pop\n      pop\n      dup1\n      0x00\n      add\n      sload\n      swap1\n      dup1\n      0x01\n      add\n      0x00\n      swap1\n      sload\n      swap1\n      0x0100\n      exp\n      swap1\n      div\n      0xffffffffffffffffffffffffffffffffffffffff\n      and\n      swap1\n      dup1\n      0x02\n      add\n      dup1\n      sload\n      tag_54\n      swap1\n      tag_55\n      jump\t// in\n    tag_54:\n      dup1\n      0x1f\n      add\n      0x20\n      dup1\n      swap2\n      div\n      mul\n      0x20\n      add\n      mload(0x40)\n      swap1\n      dup2\n      add\n      0x40\n      mstore\n      dup1\n      swap3\n      swap2\n      swap1\n      dup2\n      dup2\n      mstore\n      0x20\n      add\n      dup3\n      dup1\n      sload\n      tag_56\n      swap1\n      tag_55\n      jump\t// in\n    tag_56:\n      dup1\n      iszero\n      tag_57\n      jumpi\n      dup1\n      0x1f\n      lt\n      tag_58\n      jumpi\n      0x0100\n      dup1\n      dup4\n      sload\n      div\n      mul\n      dup4\n      mstore\n      swap2\n      0x20\n      add\n      swap2\n      jump(tag_57)\n    tag_58:\n      dup3\n      add\n      swap2\n      swap1\n      0x00\n      mstore\n      keccak256(0x00, 0x20)\n      swap1\n    tag_59:\n      dup2\n      sload\n      dup2\n      mstore\n      swap1\n      0x01\n      add\n      swap1\n      0x20\n      add\n      dup1\n      dup4\n      gt\n      tag_59\n      jumpi\n      dup3\n      swap1\n      sub\n      0x1f\n      and\n      dup3\n      add\n      swap2\n    tag_57:\n      pop\n      pop\n      pop\n      pop\n      pop\n      swap1\n      dup1\n      0x03\n      add\n      sload\n      swap1\n      dup1\n      0x04\n      add\n      sload\n      swap1\n      pop\n      dup6\n      jump\t// out\n        /* \"contracts/Twitter.sol\":1392:1514  function getTweet(address _owner, uint _i) external view returns (Tweet memory) {... */\n    tag_21:\n        /* \"contracts/Twitter.sol\":1458:1470  Tweet memory */\n      tag_60\n      tag_61\n      jump\t// in\n    tag_60:\n        /* \"contracts/Twitter.sol\":1489:1495  tweets */\n      0x01\n        /* \"contracts/Twitter.sol\":1489:1503  tweets[_owner] */\n      0x00\n        /* \"contracts/Twitter.sol\":1496:1502  _owner */\n      dup5\n        /* \"contracts/Twitter.sol\":1489:1503  tweets[_owner] */\n      0xffffffffffffffffffffffffffffffffffffffff\n      and\n      0xffffffffffffffffffffffffffffffffffffffff\n      and\n      dup2\n      mstore\n      0x20\n      add\n      swap1\n      dup2\n      mstore\n      0x20\n      add\n      0x00\n      keccak256\n        /* \"contracts/Twitter.sol\":1504:1506  _i */\n      dup3\n        /* \"contracts/Twitter.sol\":1489:1507  tweets[_owner][_i] */\n      dup2\n      sload\n      dup2\n      lt\n      tag_63\n      jumpi\n      tag_64\n      tag_65\n      jump\t// in\n    tag_64:\n    tag_63:\n      swap1\n      0x00\n      mstore\n      keccak256(0x00, 0x20)\n      swap1\n      0x05\n      mul\n      add\n        /* \"contracts/Twitter.sol\":1482:1507  return tweets[_owner][_i] */\n      mload(0x40)\n      dup1\n      0xa0\n      add\n      0x40\n      mstore\n      swap1\n      dup2\n      0x00\n      dup3\n      add\n      sload\n      dup2\n      mstore\n      0x20\n      add\n      0x01\n      dup3\n      add\n      0x00\n      swap1\n      sload\n      swap1\n      0x0100\n      exp\n      swap1\n      div\n      0xffffffffffffffffffffffffffffffffffffffff\n      and\n      0xffffffffffffffffffffffffffffffffffffffff\n      and\n      0xffffffffffffffffffffffffffffffffffffffff\n      and\n      dup2\n      mstore\n      0x20\n      add\n      0x02\n      dup3\n      add\n      dup1\n      sload\n      tag_67\n      swap1\n      tag_55\n      jump\t// in\n    tag_67:\n      dup1\n      0x1f\n      add\n      0x20\n      dup1\n      swap2\n      div\n      mul\n      0x20\n      add\n      mload(0x40)\n      swap1\n      dup2\n      add\n      0x40\n      mstore\n      dup1\n      swap3\n      swap2\n      swap1\n      dup2\n      dup2\n      mstore\n      0x20\n      add\n      dup3\n      dup1\n      sload\n      tag_68\n      swap1\n      tag_55\n      jump\t// in\n    tag_68:\n      dup1\n      iszero\n      tag_69\n      jumpi\n      dup1\n      0x1f\n      lt\n      tag_70\n      jumpi\n      0x0100\n      dup1\n      dup4\n      sload\n      div\n      mul\n      dup4\n      mstore\n      swap2\n      0x20\n      add\n      swap2\n      jump(tag_69)\n    tag_70:\n      dup3\n      add\n      swap2\n      swap1\n      0x00\n      mstore\n      keccak256(0x00, 0x20)\n      swap1\n    tag_71:\n      dup2\n      sload\n      dup2\n      mstore\n      swap1\n      0x01\n      add\n      swap1\n      0x20\n      add\n      dup1\n      dup4\n      gt\n      tag_71\n      jumpi\n      dup3\n      swap1\n      sub\n      0x1f\n      and\n      dup3\n      add\n      swap2\n    tag_69:\n      pop\n      pop\n      pop\n      pop\n      pop\n      dup2\n      mstore\n      0x20\n      add\n      0x03\n      dup3\n      add\n      sload\n      dup2\n      mstore\n      0x20\n      add\n      0x04\n      dup3\n      add\n      sload\n      dup2\n      mstore\n      pop\n      pop\n      swap1\n      pop\n        /* \"contracts/Twitter.sol\":1392:1514  function getTweet(address _owner, uint _i) external view returns (Tweet memory) {... */\n      swap3\n      swap2\n      pop\n      pop\n      jump\t// out\n        /* \"contracts/Twitter.sol\":524:635  function changeTweetLength (uint16 newLength) external onlyOwner {... */\n    tag_27:\n        /* \"contracts/Twitter.sol\":452:457  owner */\n      0x02\n      0x00\n      swap1\n      sload\n      swap1\n      0x0100\n      exp\n      swap1\n      div\n      0xffffffffffffffffffffffffffffffffffffffff\n      and\n        /* \"contracts/Twitter.sol\":438:457  msg.sender == owner */\n      0xffffffffffffffffffffffffffffffffffffffff\n      and\n        /* \"contracts/Twitter.sol\":438:448  msg.sender */\n      caller\n        /* \"contracts/Twitter.sol\":438:457  msg.sender == owner */\n      0xffffffffffffffffffffffffffffffffffffffff\n      and\n      eq\n        /* \"contracts/Twitter.sol\":430:500  require(msg.sender == owner, \"you are not the owner of the contract!\") */\n      tag_73\n      jumpi\n      mload(0x40)\n      0x08c379a000000000000000000000000000000000000000000000000000000000\n      dup2\n      mstore\n      0x04\n      add\n      tag_74\n      swap1\n      tag_75\n      jump\t// in\n    tag_74:\n      mload(0x40)\n      dup1\n      swap2\n      sub\n      swap1\n      revert\n    tag_73:\n        /* \"contracts/Twitter.sol\":619:628  newLength */\n      dup1\n        /* \"contracts/Twitter.sol\":599:616  max_char_in_tweet */\n      0x00\n      dup1\n        /* \"contracts/Twitter.sol\":599:628  max_char_in_tweet = newLength */\n      0x0100\n      exp\n      dup2\n      sload\n      dup2\n      0xffff\n      mul\n      not\n      and\n      swap1\n      dup4\n      0xffff\n      and\n      mul\n      or\n      swap1\n      sstore\n      pop\n        /* \"contracts/Twitter.sol\":524:635  function changeTweetLength (uint16 newLength) external onlyOwner {... */\n      pop\n      jump\t// out\n        /* \"contracts/Twitter.sol\":1043:1210  function likeTweet(address author, uint256 id) external {... */\n    tag_30:\n        /* \"contracts/Twitter.sol\":1142:1144  id */\n      dup1\n        /* \"contracts/Twitter.sol\":1117:1123  tweets */\n      0x01\n        /* \"contracts/Twitter.sol\":1117:1131  tweets[author] */\n      0x00\n        /* \"contracts/Twitter.sol\":1124:1130  author */\n      dup5\n        /* \"contracts/Twitter.sol\":1117:1131  tweets[author] */\n      0xffffffffffffffffffffffffffffffffffffffff\n      and\n      0xffffffffffffffffffffffffffffffffffffffff\n      and\n      dup2\n      mstore\n      0x20\n      add\n      swap1\n      dup2\n      mstore\n      0x20\n      add\n      0x00\n      keccak256\n        /* \"contracts/Twitter.sol\":1132:1134  id */\n      dup3\n        /* \"contracts/Twitter.sol\":1117:1135  tweets[author][id] */\n      dup2\n      sload\n      dup2\n      lt\n      tag_78\n      jumpi\n      tag_79\n      tag_65\n      jump\t// in\n    tag_79:\n    tag_78:\n      swap1\n      0x00\n      mstore\n      keccak256(0x00, 0x20)\n      swap1\n      0x05\n      mul\n      add\n        /* \"contracts/Twitter.sol\":1117:1138  tweets[author][id].id */\n      0x00\n      add\n      sload\n        /* \"contracts/Twitter.sol\":1117:1144  tweets[author][id].id == id */\n      eq\n        /* \"contracts/Twitter.sol\":1109:1167  require(tweets[author][id].id == id,\"tweet doesn't exist\") */\n      tag_81\n      jumpi\n      mload(0x40)\n      0x08c379a000000000000000000000000000000000000000000000000000000000\n      dup2\n      mstore\n      0x04\n      add\n      tag_82\n      swap1\n      tag_83\n      jump\t// in\n    tag_82:\n      mload(0x40)\n      dup1\n      swap2\n      sub\n      swap1\n      revert\n    tag_81:\n        /* \"contracts/Twitter.sol\":1177:1183  tweets */\n      0x01\n        /* \"contracts/Twitter.sol\":1177:1191  tweets[author] */\n      0x00\n        /* \"contracts/Twitter.sol\":1184:1190  author */\n      dup4\n        /* \"contracts/Twitter.sol\":1177:1191  tweets[author] */\n      0xffffffffffffffffffffffffffffffffffffffff\n      and\n      0xffffffffffffffffffffffffffffffffffffffff\n      and\n      dup2\n      mstore\n      0x20\n      add\n      swap1\n      dup2\n      mstore\n      0x20\n      add\n      0x00\n      keccak256\n        /* \"contracts/Twitter.sol\":1192:1194  id */\n      dup2\n        /* \"contracts/Twitter.sol\":1177:1195  tweets[author][id] */\n      dup2\n      sload\n      dup2\n      lt\n      tag_84\n      jumpi\n      tag_85\n      tag_65\n      jump\t// in\n    tag_85:\n    tag_84:\n      swap1\n      0x00\n      mstore\n      keccak256(0x00, 0x20)\n      swap1\n      0x05\n      mul\n      add\n        /* \"contracts/Twitter.sol\":1177:1201  tweets[author][id].likes */\n      0x04\n      add\n      0x00\n        /* \"contracts/Twitter.sol\":1177:1203  tweets[author][id].likes++ */\n      dup2\n      sload\n      dup1\n      swap3\n      swap2\n      swap1\n      tag_87\n      swap1\n      tag_88\n      jump\t// in\n    tag_87:\n      swap2\n      swap1\n      pop\n      sstore\n      pop\n        /* \"contracts/Twitter.sol\":1043:1210  function likeTweet(address author, uint256 id) external {... */\n      pop\n      pop\n      jump\t// out\n        /* \"contracts/Twitter.sol\":87:124  uint16 public max_char_in_tweet = 100 */\n    tag_32:\n      0x00\n      dup1\n      sload\n      swap1\n      0x0100\n      exp\n      swap1\n      div\n      0xffff\n      and\n      dup2\n      jump\t// out\n        /* \"contracts/Twitter.sol\":641:1037  function createTweet(string memory _tweet) external {... */\n    tag_38:\n        /* \"contracts/Twitter.sol\":736:753  max_char_in_tweet */\n      0x00\n      dup1\n      sload\n      swap1\n      0x0100\n      exp\n      swap1\n      div\n      0xffff\n      and\n        /* \"contracts/Twitter.sol\":712:753  bytes(_tweet).length <= max_char_in_tweet */\n      0xffff\n      and\n        /* \"contracts/Twitter.sol\":718:724  _tweet */\n      dup2\n        /* \"contracts/Twitter.sol\":712:732  bytes(_tweet).length */\n      mload\n        /* \"contracts/Twitter.sol\":712:753  bytes(_tweet).length <= max_char_in_tweet */\n      gt\n      iszero\n        /* \"contracts/Twitter.sol\":704:767  require(bytes(_tweet).length <= max_char_in_tweet, \"too long!\") */\n      tag_90\n      jumpi\n      mload(0x40)\n      0x08c379a000000000000000000000000000000000000000000000000000000000\n      dup2\n      mstore\n      0x04\n      add\n      tag_91\n      swap1\n      tag_92\n      jump\t// in\n    tag_91:\n      mload(0x40)\n      dup1\n      swap2\n      sub\n      swap1\n      revert\n    tag_90:\n        /* \"contracts/Twitter.sol\":778:799  Tweet memory newTweet */\n      0x00\n        /* \"contracts/Twitter.sol\":802:985  Tweet({... */\n      mload(0x40)\n      dup1\n      0xa0\n      add\n      0x40\n      mstore\n      dup1\n        /* \"contracts/Twitter.sol\":826:832  tweets */\n      0x01\n        /* \"contracts/Twitter.sol\":826:844  tweets[msg.sender] */\n      0x00\n        /* \"contracts/Twitter.sol\":833:843  msg.sender */\n      caller\n        /* \"contracts/Twitter.sol\":826:844  tweets[msg.sender] */\n      0xffffffffffffffffffffffffffffffffffffffff\n      and\n      0xffffffffffffffffffffffffffffffffffffffff\n      and\n      dup2\n      mstore\n      0x20\n      add\n      swap1\n      dup2\n      mstore\n      0x20\n      add\n      0x00\n      keccak256\n        /* \"contracts/Twitter.sol\":826:851  tweets[msg.sender].length */\n      dup1\n      sload\n      swap1\n      pop\n        /* \"contracts/Twitter.sol\":802:985  Tweet({... */\n      dup2\n      mstore\n      0x20\n      add\n        /* \"contracts/Twitter.sol\":873:883  msg.sender */\n      caller\n        /* \"contracts/Twitter.sol\":802:985  Tweet({... */\n      0xffffffffffffffffffffffffffffffffffffffff\n      and\n      dup2\n      mstore\n      0x20\n      add\n        /* \"contracts/Twitter.sol\":906:912  _tweet */\n      dup4\n        /* \"contracts/Twitter.sol\":802:985  Tweet({... */\n      dup2\n      mstore\n      0x20\n      add\n        /* \"contracts/Twitter.sol\":937:952  block.timestamp */\n      timestamp\n        /* \"contracts/Twitter.sol\":802:985  Tweet({... */\n      dup2\n      mstore\n      0x20\n      add\n        /* \"contracts/Twitter.sol\":973:974  0 */\n      0x00\n        /* \"contracts/Twitter.sol\":802:985  Tweet({... */\n      dup2\n      mstore\n      pop\n        /* \"contracts/Twitter.sol\":778:985  Tweet memory newTweet = Tweet({... */\n      swap1\n      pop\n        /* \"contracts/Twitter.sol\":996:1002  tweets */\n      0x01\n        /* \"contracts/Twitter.sol\":996:1014  tweets[msg.sender] */\n      0x00\n        /* \"contracts/Twitter.sol\":1003:1013  msg.sender */\n      caller\n        /* \"contracts/Twitter.sol\":996:1014  tweets[msg.sender] */\n      0xffffffffffffffffffffffffffffffffffffffff\n      and\n      0xffffffffffffffffffffffffffffffffffffffff\n      and\n      dup2\n      mstore\n      0x20\n      add\n      swap1\n      dup2\n      mstore\n      0x20\n      add\n      0x00\n      keccak256\n        /* \"contracts/Twitter.sol\":1020:1028  newTweet */\n      dup2\n        /* \"contracts/Twitter.sol\":996:1029  tweets[msg.sender].push(newTweet) */\n      swap1\n      dup1\n      0x01\n      dup2\n      sload\n      add\n      dup1\n      dup3\n      sstore\n      dup1\n      swap2\n      pop\n      pop\n      0x01\n      swap1\n      sub\n      swap1\n      0x00\n      mstore\n      keccak256(0x00, 0x20)\n      swap1\n      0x05\n      mul\n      add\n      0x00\n      swap1\n      swap2\n      swap1\n      swap2\n      swap1\n      swap2\n      pop\n      0x00\n      dup3\n      add\n      mload\n      dup2\n      0x00\n      add\n      sstore\n      0x20\n      dup3\n      add\n      mload\n      dup2\n      0x01\n      add\n      exp(0x0100, 0x00)\n      dup2\n      sload\n      dup2\n      0xffffffffffffffffffffffffffffffffffffffff\n      mul\n      not\n      and\n      swap1\n      dup4\n      0xffffffffffffffffffffffffffffffffffffffff\n      and\n      mul\n      or\n      swap1\n      sstore\n      pop\n      0x40\n      dup3\n      add\n      mload\n      dup2\n      0x02\n      add\n      swap1\n      dup2\n      tag_94\n      swap2\n      swap1\n      tag_95\n      jump\t// in\n    tag_94:\n      pop\n      0x60\n      dup3\n      add\n      mload\n      dup2\n      0x03\n      add\n      sstore\n      0x80\n      dup3\n      add\n      mload\n      dup2\n      0x04\n      add\n      sstore\n      pop\n      pop\n        /* \"contracts/Twitter.sol\":693:1037  {... */\n      pop\n        /* \"contracts/Twitter.sol\":641:1037  function createTweet(string memory _tweet) external {... */\n      pop\n      jump\t// out\n        /* \"contracts/Twitter.sol\":317:337  address public owner */\n    tag_40:\n      0x02\n      0x00\n      swap1\n      sload\n      swap1\n      0x0100\n      exp\n      swap1\n      div\n      0xffffffffffffffffffffffffffffffffffffffff\n      and\n      dup2\n      jump\t// out\n        /* \"contracts/Twitter.sol\":1216:1386  function dislikeTweet(address author, uint256 id) external {... */\n    tag_45:\n        /* \"contracts/Twitter.sol\":1318:1320  id */\n      dup1\n        /* \"contracts/Twitter.sol\":1293:1299  tweets */\n      0x01\n        /* \"contracts/Twitter.sol\":1293:1307  tweets[author] */\n      0x00\n        /* \"contracts/Twitter.sol\":1300:1306  author */\n      dup5\n        /* \"contracts/Twitter.sol\":1293:1307  tweets[author] */\n      0xffffffffffffffffffffffffffffffffffffffff\n      and\n      0xffffffffffffffffffffffffffffffffffffffff\n      and\n      dup2\n      mstore\n      0x20\n      add\n      swap1\n      dup2\n      mstore\n      0x20\n      add\n      0x00\n      keccak256\n        /* \"contracts/Twitter.sol\":1308:1310  id */\n      dup3\n        /* \"contracts/Twitter.sol\":1293:1311  tweets[author][id] */\n      dup2\n      sload\n      dup2\n      lt\n      tag_97\n      jumpi\n      tag_98\n      tag_65\n      jump\t// in\n    tag_98:\n    tag_97:\n      swap1\n      0x00\n      mstore\n      keccak256(0x00, 0x20)\n      swap1\n      0x05\n      mul\n      add\n        /* \"contracts/Twitter.sol\":1293:1314  tweets[author][id].id */\n      0x00\n      add\n      sload\n        /* \"contracts/Twitter.sol\":1293:1320  tweets[author][id].id == id */\n      eq\n        /* \"contracts/Twitter.sol\":1285:1343  require(tweets[author][id].id == id,\"tweet doesn't exist\") */\n      tag_100\n      jumpi\n      mload(0x40)\n      0x08c379a000000000000000000000000000000000000000000000000000000000\n      dup2\n      mstore\n      0x04\n      add\n      tag_101\n      swap1\n      tag_83\n      jump\t// in\n    tag_101:\n      mload(0x40)\n      dup1\n      swap2\n      sub\n      swap1\n      revert\n    tag_100:\n        /* \"contracts/Twitter.sol\":1353:1359  tweets */\n      0x01\n        /* \"contracts/Twitter.sol\":1353:1367  tweets[author] */\n      0x00\n        /* \"contracts/Twitter.sol\":1360:1366  author */\n      dup4\n        /* \"contracts/Twitter.sol\":1353:1367  tweets[author] */\n      0xffffffffffffffffffffffffffffffffffffffff\n      and\n      0xffffffffffffffffffffffffffffffffffffffff\n      and\n      dup2\n      mstore\n      0x20\n      add\n      swap1\n      dup2\n      mstore\n      0x20\n      add\n      0x00\n      keccak256\n        /* \"contracts/Twitter.sol\":1368:1370  id */\n      dup2\n        /* \"contracts/Twitter.sol\":1353:1371  tweets[author][id] */\n      dup2\n      sload\n      dup2\n      lt\n      tag_102\n      jumpi\n      tag_103\n      tag_65\n      jump\t// in\n    tag_103:\n    tag_102:\n      swap1\n      0x00\n      mstore\n      keccak256(0x00, 0x20)\n      swap1\n      0x05\n      mul\n      add\n        /* \"contracts/Twitter.sol\":1353:1377  tweets[author][id].likes */\n      0x04\n      add\n      0x00\n        /* \"contracts/Twitter.sol\":1353:1379  tweets[author][id].likes-- */\n      dup2\n      sload\n      dup1\n      swap3\n      swap2\n      swap1\n      tag_105\n      swap1\n      tag_106\n      jump\t// in\n    tag_105:\n      swap2\n      swap1\n      pop\n      sstore\n      pop\n        /* \"contracts/Twitter.sol\":1216:1386  function dislikeTweet(address author, uint256 id) external {... */\n      pop\n      pop\n      jump\t// out\n        /* \"contracts/Twitter.sol\":1520:1634  function getAllTweet(address _owner) external view returns (Tweet[] memory) {... */\n    tag_49:\n        /* \"contracts/Twitter.sol\":1580:1594  Tweet[] memory */\n      0x60\n        /* \"contracts/Twitter.sol\":1613:1619  tweets */\n      0x01\n        /* \"contracts/Twitter.sol\":1613:1627  tweets[_owner] */\n      0x00\n        /* \"contracts/Twitter.sol\":1620:1626  _owner */\n      dup4\n        /* \"contracts/Twitter.sol\":1613:1627  tweets[_owner] */\n      0xffffffffffffffffffffffffffffffffffffffff\n      and\n      0xffffffffffffffffffffffffffffffffffffffff\n      and\n      dup2\n      mstore\n      0x20\n      add\n      swap1\n      dup2\n      mstore\n      0x20\n      add\n      0x00\n      keccak256\n        /* \"contracts/Twitter.sol\":1606:1627  return tweets[_owner] */\n      dup1\n      sload\n      dup1\n      0x20\n      mul\n      0x20\n      add\n      mload(0x40)\n      swap1\n      dup2\n      add\n      0x40\n      mstore\n      dup1\n      swap3\n      swap2\n      swap1\n      dup2\n      dup2\n      mstore\n      0x20\n      add\n      0x00\n      swap1\n    tag_108:\n      dup3\n      dup3\n      lt\n      iszero\n      tag_109\n      jumpi\n      dup4\n      dup3\n      swap1\n      0x00\n      mstore\n      keccak256(0x00, 0x20)\n      swap1\n      0x05\n      mul\n      add\n      mload(0x40)\n      dup1\n      0xa0\n      add\n      0x40\n      mstore\n      swap1\n      dup2\n      0x00\n      dup3\n      add\n      sload\n      dup2\n      mstore\n      0x20\n      add\n      0x01\n      dup3\n      add\n      0x00\n      swap1\n      sload\n      swap1\n      0x0100\n      exp\n      swap1\n      div\n      0xffffffffffffffffffffffffffffffffffffffff\n      and\n      0xffffffffffffffffffffffffffffffffffffffff\n      and\n      0xffffffffffffffffffffffffffffffffffffffff\n      and\n      dup2\n      mstore\n      0x20\n      add\n      0x02\n      dup3\n      add\n      dup1\n      sload\n      tag_111\n      swap1\n      tag_55\n      jump\t// in\n    tag_111:\n      dup1\n      0x1f\n      add\n      0x20\n      dup1\n      swap2\n      div\n      mul\n      0x20\n      add\n      mload(0x40)\n      swap1\n      dup2\n      add\n      0x40\n      mstore\n      dup1\n      swap3\n      swap2\n      swap1\n      dup2\n      dup2\n      mstore\n      0x20\n      add\n      dup3\n      dup1\n      sload\n      tag_112\n      swap1\n      tag_55\n      jump\t// in\n    tag_112:\n      dup1\n      iszero\n      tag_113\n      jumpi\n      dup1\n      0x1f\n      lt\n      tag_114\n      jumpi\n      0x0100\n      dup1\n      dup4\n      sload\n      div\n      mul\n      dup4\n      mstore\n      swap2\n      0x20\n      add\n      swap2\n      jump(tag_113)\n    tag_114:\n      dup3\n      add\n      swap2\n      swap1\n      0x00\n      mstore\n      keccak256(0x00, 0x20)\n      swap1\n    tag_115:\n      dup2\n      sload\n      dup2\n      mstore\n      swap1\n      0x01\n      add\n      swap1\n      0x20\n      add\n      dup1\n      dup4\n      gt\n      tag_115\n      jumpi\n      dup3\n      swap1\n      sub\n      0x1f\n      and\n      dup3\n      add\n      swap2\n    tag_113:\n      pop\n      pop\n      pop\n      pop\n      pop\n      dup2\n      mstore\n      0x20\n      add\n      0x03\n      dup3\n      add\n      sload\n      dup2\n      mstore\n      0x20\n      add\n      0x04\n      dup3\n      add\n      sload\n      dup2\n      mstore\n      pop\n      pop\n      dup2\n      mstore\n      0x20\n      add\n      swap1\n      0x01\n      add\n      swap1\n      jump(tag_108)\n    tag_109:\n      pop\n      pop\n      pop\n      pop\n      swap1\n      pop\n        /* \"contracts/Twitter.sol\":1520:1634  function getAllTweet(address _owner) external view returns (Tweet[] memory) {... */\n      swap2\n      swap1\n      pop\n      jump\t// out\n    tag_61:\n      mload(0x40)\n      dup1\n      0xa0\n      add\n      0x40\n      mstore\n      dup1\n      0x00\n      dup2\n      mstore\n      0x20\n      add\n      and(0xffffffffffffffffffffffffffffffffffffffff, 0x00)\n      dup2\n      mstore\n      0x20\n      add\n      0x60\n      dup2\n      mstore\n      0x20\n      add\n      0x00\n      dup2\n      mstore\n      0x20\n      add\n      0x00\n      dup2\n      mstore\n      pop\n      swap1\n      jump\t// out\n        /* \"#utility.yul\":7:82   */\n    tag_116:\n        /* \"#utility.yul\":40:46   */\n      0x00\n        /* \"#utility.yul\":73:75   */\n      0x40\n        /* \"#utility.yul\":67:76   */\n      mload\n        /* \"#utility.yul\":57:76   */\n      swap1\n      pop\n        /* \"#utility.yul\":7:82   */\n      swap1\n      jump\t// out\n        /* \"#utility.yul\":88:205   */\n    tag_117:\n        /* \"#utility.yul\":197:198   */\n      0x00\n        /* \"#utility.yul\":194:195   */\n      dup1\n        /* \"#utility.yul\":187:199   */\n      revert\n        /* \"#utility.yul\":211:328   */\n    tag_118:\n        /* \"#utility.yul\":320:321   */\n      0x00\n        /* \"#utility.yul\":317:318   */\n      dup1\n        /* \"#utility.yul\":310:322   */\n      revert\n        /* \"#utility.yul\":334:460   */\n    tag_119:\n        /* \"#utility.yul\":371:378   */\n      0x00\n        /* \"#utility.yul\":411:453   */\n      0xffffffffffffffffffffffffffffffffffffffff\n        /* \"#utility.yul\":404:409   */\n      dup3\n        /* \"#utility.yul\":400:454   */\n      and\n        /* \"#utility.yul\":389:454   */\n      swap1\n      pop\n        /* \"#utility.yul\":334:460   */\n      swap2\n      swap1\n      pop\n      jump\t// out\n        /* \"#utility.yul\":466:562   */\n    tag_120:\n        /* \"#utility.yul\":503:510   */\n      0x00\n        /* \"#utility.yul\":532:556   */\n      tag_187\n        /* \"#utility.yul\":550:555   */\n      dup3\n        /* \"#utility.yul\":532:556   */\n      tag_119\n      jump\t// in\n    tag_187:\n        /* \"#utility.yul\":521:556   */\n      swap1\n      pop\n        /* \"#utility.yul\":466:562   */\n      swap2\n      swap1\n      pop\n      jump\t// out\n        /* \"#utility.yul\":568:690   */\n    tag_121:\n        /* \"#utility.yul\":641:665   */\n      tag_189\n        /* \"#utility.yul\":659:664   */\n      dup2\n        /* \"#utility.yul\":641:665   */\n      tag_120\n      jump\t// in\n    tag_189:\n        /* \"#utility.yul\":634:639   */\n      dup2\n        /* \"#utility.yul\":631:666   */\n      eq\n        /* \"#utility.yul\":621:684   */\n      tag_190\n      jumpi\n        /* \"#utility.yul\":680:681   */\n      0x00\n        /* \"#utility.yul\":677:678   */\n      dup1\n        /* \"#utility.yul\":670:682   */\n      revert\n        /* \"#utility.yul\":621:684   */\n    tag_190:\n        /* \"#utility.yul\":568:690   */\n      pop\n      jump\t// out\n        /* \"#utility.yul\":696:835   */\n    tag_122:\n        /* \"#utility.yul\":742:747   */\n      0x00\n        /* \"#utility.yul\":780:786   */\n      dup2\n        /* \"#utility.yul\":767:787   */\n      calldataload\n        /* \"#utility.yul\":758:787   */\n      swap1\n      pop\n        /* \"#utility.yul\":796:829   */\n      tag_192\n        /* \"#utility.yul\":823:828   */\n      dup2\n        /* \"#utility.yul\":796:829   */\n      tag_121\n      jump\t// in\n    tag_192:\n        /* \"#utility.yul\":696:835   */\n      swap3\n      swap2\n      pop\n      pop\n      jump\t// out\n        /* \"#utility.yul\":841:918   */\n    tag_123:\n        /* \"#utility.yul\":878:885   */\n      0x00\n        /* \"#utility.yul\":907:912   */\n      dup2\n        /* \"#utility.yul\":896:912   */\n      swap1\n      pop\n        /* \"#utility.yul\":841:918   */\n      swap2\n      swap1\n      pop\n      jump\t// out\n        /* \"#utility.yul\":924:1046   */\n    tag_124:\n        /* \"#utility.yul\":997:1021   */\n      tag_195\n        /* \"#utility.yul\":1015:1020   */\n      dup2\n        /* \"#utility.yul\":997:1021   */\n      tag_123\n      jump\t// in\n    tag_195:\n        /* \"#utility.yul\":990:995   */\n      dup2\n        /* \"#utility.yul\":987:1022   */\n      eq\n        /* \"#utility.yul\":977:1040   */\n      tag_196\n      jumpi\n        /* \"#utility.yul\":1036:1037   */\n      0x00\n        /* \"#utility.yul\":1033:1034   */\n      dup1\n        /* \"#utility.yul\":1026:1038   */\n      revert\n        /* \"#utility.yul\":977:1040   */\n    tag_196:\n        /* \"#utility.yul\":924:1046   */\n      pop\n      jump\t// out\n        /* \"#utility.yul\":1052:1191   */\n    tag_125:\n        /* \"#utility.yul\":1098:1103   */\n      0x00\n        /* \"#utility.yul\":1136:1142   */\n      dup2\n        /* \"#utility.yul\":1123:1143   */\n      calldataload\n        /* \"#utility.yul\":1114:1143   */\n      swap1\n      pop\n        /* \"#utility.yul\":1152:1185   */\n      tag_198\n        /* \"#utility.yul\":1179:1184   */\n      dup2\n        /* \"#utility.yul\":1152:1185   */\n      tag_124\n      jump\t// in\n    tag_198:\n        /* \"#utility.yul\":1052:1191   */\n      swap3\n      swap2\n      pop\n      pop\n      jump\t// out\n        /* \"#utility.yul\":1197:1671   */\n    tag_15:\n        /* \"#utility.yul\":1265:1271   */\n      0x00\n        /* \"#utility.yul\":1273:1279   */\n      dup1\n        /* \"#utility.yul\":1322:1324   */\n      0x40\n        /* \"#utility.yul\":1310:1319   */\n      dup4\n        /* \"#utility.yul\":1301:1308   */\n      dup6\n        /* \"#utility.yul\":1297:1320   */\n      sub\n        /* \"#utility.yul\":1293:1325   */\n      slt\n        /* \"#utility.yul\":1290:1409   */\n      iszero\n      tag_200\n      jumpi\n        /* \"#utility.yul\":1328:1407   */\n      tag_201\n      tag_117\n      jump\t// in\n    tag_201:\n        /* \"#utility.yul\":1290:1409   */\n    tag_200:\n        /* \"#utility.yul\":1448:1449   */\n      0x00\n        /* \"#utility.yul\":1473:1526   */\n      tag_202\n        /* \"#utility.yul\":1518:1525   */\n      dup6\n        /* \"#utility.yul\":1509:1515   */\n      dup3\n        /* \"#utility.yul\":1498:1507   */\n      dup7\n        /* \"#utility.yul\":1494:1516   */\n      add\n        /* \"#utility.yul\":1473:1526   */\n      tag_122\n      jump\t// in\n    tag_202:\n        /* \"#utility.yul\":1463:1526   */\n      swap3\n      pop\n        /* \"#utility.yul\":1419:1536   */\n      pop\n        /* \"#utility.yul\":1575:1577   */\n      0x20\n        /* \"#utility.yul\":1601:1654   */\n      tag_203\n        /* \"#utility.yul\":1646:1653   */\n      dup6\n        /* \"#utility.yul\":1637:1643   */\n      dup3\n        /* \"#utility.yul\":1626:1635   */\n      dup7\n        /* \"#utility.yul\":1622:1644   */\n      add\n        /* \"#utility.yul\":1601:1654   */\n      tag_125\n      jump\t// in\n    tag_203:\n        /* \"#utility.yul\":1591:1654   */\n      swap2\n      pop\n        /* \"#utility.yul\":1546:1664   */\n      pop\n        /* \"#utility.yul\":1197:1671   */\n      swap3\n      pop\n      swap3\n      swap1\n      pop\n      jump\t// out\n        /* \"#utility.yul\":1677:1795   */\n    tag_126:\n        /* \"#utility.yul\":1764:1788   */\n      tag_205\n        /* \"#utility.yul\":1782:1787   */\n      dup2\n        /* \"#utility.yul\":1764:1788   */\n      tag_123\n      jump\t// in\n    tag_205:\n        /* \"#utility.yul\":1759:1762   */\n      dup3\n        /* \"#utility.yul\":1752:1789   */\n      mstore\n        /* \"#utility.yul\":1677:1795   */\n      pop\n      pop\n      jump\t// out\n        /* \"#utility.yul\":1801:1919   */\n    tag_127:\n        /* \"#utility.yul\":1888:1912   */\n      tag_207\n        /* \"#utility.yul\":1906:1911   */\n      dup2\n        /* \"#utility.yul\":1888:1912   */\n      tag_120\n      jump\t// in\n    tag_207:\n        /* \"#utility.yul\":1883:1886   */\n      dup3\n        /* \"#utility.yul\":1876:1913   */\n      mstore\n        /* \"#utility.yul\":1801:1919   */\n      pop\n      pop\n      jump\t// out\n        /* \"#utility.yul\":1925:2024   */\n    tag_128:\n        /* \"#utility.yul\":1977:1983   */\n      0x00\n        /* \"#utility.yul\":2011:2016   */\n      dup2\n        /* \"#utility.yul\":2005:2017   */\n      mload\n        /* \"#utility.yul\":1995:2017   */\n      swap1\n      pop\n        /* \"#utility.yul\":1925:2024   */\n      swap2\n      swap1\n      pop\n      jump\t// out\n        /* \"#utility.yul\":2030:2199   */\n    tag_129:\n        /* \"#utility.yul\":2114:2125   */\n      0x00\n        /* \"#utility.yul\":2148:2154   */\n      dup3\n        /* \"#utility.yul\":2143:2146   */\n      dup3\n        /* \"#utility.yul\":2136:2155   */\n      mstore\n        /* \"#utility.yul\":2188:2192   */\n      0x20\n        /* \"#utility.yul\":2183:2186   */\n      dup3\n        /* \"#utility.yul\":2179:2193   */\n      add\n        /* \"#utility.yul\":2164:2193   */\n      swap1\n      pop\n        /* \"#utility.yul\":2030:2199   */\n      swap3\n      swap2\n      pop\n      pop\n      jump\t// out\n        /* \"#utility.yul\":2205:2344   */\n    tag_130:\n        /* \"#utility.yul\":2294:2300   */\n      dup3\n        /* \"#utility.yul\":2289:2292   */\n      dup2\n        /* \"#utility.yul\":2284:2287   */\n      dup4\n        /* \"#utility.yul\":2278:2301   */\n      mcopy\n        /* \"#utility.yul\":2335:2336   */\n      0x00\n        /* \"#utility.yul\":2326:2332   */\n      dup4\n        /* \"#utility.yul\":2321:2324   */\n      dup4\n        /* \"#utility.yul\":2317:2333   */\n      add\n        /* \"#utility.yul\":2310:2337   */\n      mstore\n        /* \"#utility.yul\":2205:2344   */\n      pop\n      pop\n      pop\n      jump\t// out\n        /* \"#utility.yul\":2350:2452   */\n    tag_131:\n        /* \"#utility.yul\":2391:2397   */\n      0x00\n        /* \"#utility.yul\":2442:2444   */\n      0x1f\n        /* \"#utility.yul\":2438:2445   */\n      not\n        /* \"#utility.yul\":2433:2435   */\n      0x1f\n        /* \"#utility.yul\":2426:2431   */\n      dup4\n        /* \"#utility.yul\":2422:2436   */\n      add\n        /* \"#utility.yul\":2418:2446   */\n      and\n        /* \"#utility.yul\":2408:2446   */\n      swap1\n      pop\n        /* \"#utility.yul\":2350:2452   */\n      swap2\n      swap1\n      pop\n      jump\t// out\n        /* \"#utility.yul\":2458:2835   */\n    tag_132:\n        /* \"#utility.yul\":2546:2549   */\n      0x00\n        /* \"#utility.yul\":2574:2613   */\n      tag_213\n        /* \"#utility.yul\":2607:2612   */\n      dup3\n        /* \"#utility.yul\":2574:2613   */\n      tag_128\n      jump\t// in\n    tag_213:\n        /* \"#utility.yul\":2629:2700   */\n      tag_214\n        /* \"#utility.yul\":2693:2699   */\n      dup2\n        /* \"#utility.yul\":2688:2691   */\n      dup6\n        /* \"#utility.yul\":2629:2700   */\n      tag_129\n      jump\t// in\n    tag_214:\n        /* \"#utility.yul\":2622:2700   */\n      swap4\n      pop\n        /* \"#utility.yul\":2709:2774   */\n      tag_215\n        /* \"#utility.yul\":2767:2773   */\n      dup2\n        /* \"#utility.yul\":2762:2765   */\n      dup6\n        /* \"#utility.yul\":2755:2759   */\n      0x20\n        /* \"#utility.yul\":2748:2753   */\n      dup7\n        /* \"#utility.yul\":2744:2760   */\n      add\n        /* \"#utility.yul\":2709:2774   */\n      tag_130\n      jump\t// in\n    tag_215:\n        /* \"#utility.yul\":2799:2828   */\n      tag_216\n        /* \"#utility.yul\":2821:2827   */\n      dup2\n        /* \"#utility.yul\":2799:2828   */\n      tag_131\n      jump\t// in\n    tag_216:\n        /* \"#utility.yul\":2794:2797   */\n      dup5\n        /* \"#utility.yul\":2790:2829   */\n      add\n        /* \"#utility.yul\":2783:2829   */\n      swap2\n      pop\n        /* \"#utility.yul\":2550:2835   */\n      pop\n        /* \"#utility.yul\":2458:2835   */\n      swap3\n      swap2\n      pop\n      pop\n      jump\t// out\n        /* \"#utility.yul\":2841:3596   */\n    tag_18:\n        /* \"#utility.yul\":3066:3070   */\n      0x00\n        /* \"#utility.yul\":3104:3107   */\n      0xa0\n        /* \"#utility.yul\":3093:3102   */\n      dup3\n        /* \"#utility.yul\":3089:3108   */\n      add\n        /* \"#utility.yul\":3081:3108   */\n      swap1\n      pop\n        /* \"#utility.yul\":3118:3189   */\n      tag_218\n        /* \"#utility.yul\":3186:3187   */\n      0x00\n        /* \"#utility.yul\":3175:3184   */\n      dup4\n        /* \"#utility.yul\":3171:3188   */\n      add\n        /* \"#utility.yul\":3162:3168   */\n      dup9\n        /* \"#utility.yul\":3118:3189   */\n      tag_126\n      jump\t// in\n    tag_218:\n        /* \"#utility.yul\":3199:3271   */\n      tag_219\n        /* \"#utility.yul\":3267:3269   */\n      0x20\n        /* \"#utility.yul\":3256:3265   */\n      dup4\n        /* \"#utility.yul\":3252:3270   */\n      add\n        /* \"#utility.yul\":3243:3249   */\n      dup8\n        /* \"#utility.yul\":3199:3271   */\n      tag_127\n      jump\t// in\n    tag_219:\n        /* \"#utility.yul\":3318:3327   */\n      dup2\n        /* \"#utility.yul\":3312:3316   */\n      dup2\n        /* \"#utility.yul\":3308:3328   */\n      sub\n        /* \"#utility.yul\":3303:3305   */\n      0x40\n        /* \"#utility.yul\":3292:3301   */\n      dup4\n        /* \"#utility.yul\":3288:3306   */\n      add\n        /* \"#utility.yul\":3281:3329   */\n      mstore\n        /* \"#utility.yul\":3346:3424   */\n      tag_220\n        /* \"#utility.yul\":3419:3423   */\n      dup2\n        /* \"#utility.yul\":3410:3416   */\n      dup7\n        /* \"#utility.yul\":3346:3424   */\n      tag_132\n      jump\t// in\n    tag_220:\n        /* \"#utility.yul\":3338:3424   */\n      swap1\n      pop\n        /* \"#utility.yul\":3434:3506   */\n      tag_221\n        /* \"#utility.yul\":3502:3504   */\n      0x60\n        /* \"#utility.yul\":3491:3500   */\n      dup4\n        /* \"#utility.yul\":3487:3505   */\n      add\n        /* \"#utility.yul\":3478:3484   */\n      dup6\n        /* \"#utility.yul\":3434:3506   */\n      tag_126\n      jump\t// in\n    tag_221:\n        /* \"#utility.yul\":3516:3589   */\n      tag_222\n        /* \"#utility.yul\":3584:3587   */\n      0x80\n        /* \"#utility.yul\":3573:3582   */\n      dup4\n        /* \"#utility.yul\":3569:3588   */\n      add\n        /* \"#utility.yul\":3560:3566   */\n      dup5\n        /* \"#utility.yul\":3516:3589   */\n      tag_126\n      jump\t// in\n    tag_222:\n        /* \"#utility.yul\":2841:3596   */\n      swap7\n      swap6\n      pop\n      pop\n      pop\n      pop\n      pop\n      pop\n      jump\t// out\n        /* \"#utility.yul\":3602:3710   */\n    tag_133:\n        /* \"#utility.yul\":3679:3703   */\n      tag_224\n        /* \"#utility.yul\":3697:3702   */\n      dup2\n        /* \"#utility.yul\":3679:3703   */\n      tag_123\n      jump\t// in\n    tag_224:\n        /* \"#utility.yul\":3674:3677   */\n      dup3\n        /* \"#utility.yul\":3667:3704   */\n      mstore\n        /* \"#utility.yul\":3602:3710   */\n      pop\n      pop\n      jump\t// out\n        /* \"#utility.yul\":3716:3824   */\n    tag_134:\n        /* \"#utility.yul\":3793:3817   */\n      tag_226\n        /* \"#utility.yul\":3811:3816   */\n      dup2\n        /* \"#utility.yul\":3793:3817   */\n      tag_120\n      jump\t// in\n    tag_226:\n        /* \"#utility.yul\":3788:3791   */\n      dup3\n        /* \"#utility.yul\":3781:3818   */\n      mstore\n        /* \"#utility.yul\":3716:3824   */\n      pop\n      pop\n      jump\t// out\n        /* \"#utility.yul\":3830:3989   */\n    tag_135:\n        /* \"#utility.yul\":3904:3915   */\n      0x00\n        /* \"#utility.yul\":3938:3944   */\n      dup3\n        /* \"#utility.yul\":3933:3936   */\n      dup3\n        /* \"#utility.yul\":3926:3945   */\n      mstore\n        /* \"#utility.yul\":3978:3982   */\n      0x20\n        /* \"#utility.yul\":3973:3976   */\n      dup3\n        /* \"#utility.yul\":3969:3983   */\n      add\n        /* \"#utility.yul\":3954:3983   */\n      swap1\n      pop\n        /* \"#utility.yul\":3830:3989   */\n      swap3\n      swap2\n      pop\n      pop\n      jump\t// out\n        /* \"#utility.yul\":3995:4352   */\n    tag_136:\n        /* \"#utility.yul\":4073:4076   */\n      0x00\n        /* \"#utility.yul\":4101:4140   */\n      tag_229\n        /* \"#utility.yul\":4134:4139   */\n      dup3\n        /* \"#utility.yul\":4101:4140   */\n      tag_128\n      jump\t// in\n    tag_229:\n        /* \"#utility.yul\":4156:4217   */\n      tag_230\n        /* \"#utility.yul\":4210:4216   */\n      dup2\n        /* \"#utility.yul\":4205:4208   */\n      dup6\n        /* \"#utility.yul\":4156:4217   */\n      tag_135\n      jump\t// in\n    tag_230:\n        /* \"#utility.yul\":4149:4217   */\n      swap4\n      pop\n        /* \"#utility.yul\":4226:4291   */\n      tag_231\n        /* \"#utility.yul\":4284:4290   */\n      dup2\n        /* \"#utility.yul\":4279:4282   */\n      dup6\n        /* \"#utility.yul\":4272:4276   */\n      0x20\n        /* \"#utility.yul\":4265:4270   */\n      dup7\n        /* \"#utility.yul\":4261:4277   */\n      add\n        /* \"#utility.yul\":4226:4291   */\n      tag_130\n      jump\t// in\n    tag_231:\n        /* \"#utility.yul\":4316:4345   */\n      tag_232\n        /* \"#utility.yul\":4338:4344   */\n      dup2\n        /* \"#utility.yul\":4316:4345   */\n      tag_131\n      jump\t// in\n    tag_232:\n        /* \"#utility.yul\":4311:4314   */\n      dup5\n        /* \"#utility.yul\":4307:4346   */\n      add\n        /* \"#utility.yul\":4300:4346   */\n      swap2\n      pop\n        /* \"#utility.yul\":4077:4352   */\n      pop\n        /* \"#utility.yul\":3995:4352   */\n      swap3\n      swap2\n      pop\n      pop\n      jump\t// out\n        /* \"#utility.yul\":4410:5539   */\n    tag_137:\n        /* \"#utility.yul\":4521:4524   */\n      0x00\n        /* \"#utility.yul\":4557:4561   */\n      0xa0\n        /* \"#utility.yul\":4552:4555   */\n      dup4\n        /* \"#utility.yul\":4548:4562   */\n      add\n        /* \"#utility.yul\":4642:4646   */\n      0x00\n        /* \"#utility.yul\":4635:4640   */\n      dup4\n        /* \"#utility.yul\":4631:4647   */\n      add\n        /* \"#utility.yul\":4625:4648   */\n      mload\n        /* \"#utility.yul\":4661:4724   */\n      tag_234\n        /* \"#utility.yul\":4718:4722   */\n      0x00\n        /* \"#utility.yul\":4713:4716   */\n      dup7\n        /* \"#utility.yul\":4709:4723   */\n      add\n        /* \"#utility.yul\":4695:4707   */\n      dup3\n        /* \"#utility.yul\":4661:4724   */\n      tag_133\n      jump\t// in\n    tag_234:\n        /* \"#utility.yul\":4572:4734   */\n      pop\n        /* \"#utility.yul\":4818:4822   */\n      0x20\n        /* \"#utility.yul\":4811:4816   */\n      dup4\n        /* \"#utility.yul\":4807:4823   */\n      add\n        /* \"#utility.yul\":4801:4824   */\n      mload\n        /* \"#utility.yul\":4837:4900   */\n      tag_235\n        /* \"#utility.yul\":4894:4898   */\n      0x20\n        /* \"#utility.yul\":4889:4892   */\n      dup7\n        /* \"#utility.yul\":4885:4899   */\n      add\n        /* \"#utility.yul\":4871:4883   */\n      dup3\n        /* \"#utility.yul\":4837:4900   */\n      tag_134\n      jump\t// in\n    tag_235:\n        /* \"#utility.yul\":4744:4910   */\n      pop\n        /* \"#utility.yul\":4995:4999   */\n      0x40\n        /* \"#utility.yul\":4988:4993   */\n      dup4\n        /* \"#utility.yul\":4984:5000   */\n      add\n        /* \"#utility.yul\":4978:5001   */\n      mload\n        /* \"#utility.yul\":5048:5051   */\n      dup5\n        /* \"#utility.yul\":5042:5046   */\n      dup3\n        /* \"#utility.yul\":5038:5052   */\n      sub\n        /* \"#utility.yul\":5031:5035   */\n      0x40\n        /* \"#utility.yul\":5026:5029   */\n      dup7\n        /* \"#utility.yul\":5022:5036   */\n      add\n        /* \"#utility.yul\":5015:5053   */\n      mstore\n        /* \"#utility.yul\":5074:5147   */\n      tag_236\n        /* \"#utility.yul\":5142:5146   */\n      dup3\n        /* \"#utility.yul\":5128:5140   */\n      dup3\n        /* \"#utility.yul\":5074:5147   */\n      tag_136\n      jump\t// in\n    tag_236:\n        /* \"#utility.yul\":5066:5147   */\n      swap2\n      pop\n        /* \"#utility.yul\":4920:5158   */\n      pop\n        /* \"#utility.yul\":5245:5249   */\n      0x60\n        /* \"#utility.yul\":5238:5243   */\n      dup4\n        /* \"#utility.yul\":5234:5250   */\n      add\n        /* \"#utility.yul\":5228:5251   */\n      mload\n        /* \"#utility.yul\":5264:5327   */\n      tag_237\n        /* \"#utility.yul\":5321:5325   */\n      0x60\n        /* \"#utility.yul\":5316:5319   */\n      dup7\n        /* \"#utility.yul\":5312:5326   */\n      add\n        /* \"#utility.yul\":5298:5310   */\n      dup3\n        /* \"#utility.yul\":5264:5327   */\n      tag_133\n      jump\t// in\n    tag_237:\n        /* \"#utility.yul\":5168:5337   */\n      pop\n        /* \"#utility.yul\":5420:5424   */\n      0x80\n        /* \"#utility.yul\":5413:5418   */\n      dup4\n        /* \"#utility.yul\":5409:5425   */\n      add\n        /* \"#utility.yul\":5403:5426   */\n      mload\n        /* \"#utility.yul\":5439:5502   */\n      tag_238\n        /* \"#utility.yul\":5496:5500   */\n      0x80\n        /* \"#utility.yul\":5491:5494   */\n      dup7\n        /* \"#utility.yul\":5487:5501   */\n      add\n        /* \"#utility.yul\":5473:5485   */\n      dup3\n        /* \"#utility.yul\":5439:5502   */\n      tag_133\n      jump\t// in\n    tag_238:\n        /* \"#utility.yul\":5347:5512   */\n      pop\n        /* \"#utility.yul\":5529:5533   */\n      dup1\n        /* \"#utility.yul\":5522:5533   */\n      swap2\n      pop\n        /* \"#utility.yul\":4526:5539   */\n      pop\n        /* \"#utility.yul\":4410:5539   */\n      swap3\n      swap2\n      pop\n      pop\n      jump\t// out\n        /* \"#utility.yul\":5545:5902   */\n    tag_23:\n        /* \"#utility.yul\":5680:5684   */\n      0x00\n        /* \"#utility.yul\":5718:5720   */\n      0x20\n        /* \"#utility.yul\":5707:5716   */\n      dup3\n        /* \"#utility.yul\":5703:5721   */\n      add\n        /* \"#utility.yul\":5695:5721   */\n      swap1\n      pop\n        /* \"#utility.yul\":5767:5776   */\n      dup2\n        /* \"#utility.yul\":5761:5765   */\n      dup2\n        /* \"#utility.yul\":5757:5777   */\n      sub\n        /* \"#utility.yul\":5753:5754   */\n      0x00\n        /* \"#utility.yul\":5742:5751   */\n      dup4\n        /* \"#utility.yul\":5738:5755   */\n      add\n        /* \"#utility.yul\":5731:5778   */\n      mstore\n        /* \"#utility.yul\":5795:5895   */\n      tag_240\n        /* \"#utility.yul\":5890:5894   */\n      dup2\n        /* \"#utility.yul\":5881:5887   */\n      dup5\n        /* \"#utility.yul\":5795:5895   */\n      tag_137\n      jump\t// in\n    tag_240:\n        /* \"#utility.yul\":5787:5895   */\n      swap1\n      pop\n        /* \"#utility.yul\":5545:5902   */\n      swap3\n      swap2\n      pop\n      pop\n      jump\t// out\n        /* \"#utility.yul\":5908:5997   */\n    tag_138:\n        /* \"#utility.yul\":5944:5951   */\n      0x00\n        /* \"#utility.yul\":5984:5990   */\n      0xffff\n        /* \"#utility.yul\":5977:5982   */\n      dup3\n        /* \"#utility.yul\":5973:5991   */\n      and\n        /* \"#utility.yul\":5962:5991   */\n      swap1\n      pop\n        /* \"#utility.yul\":5908:5997   */\n      swap2\n      swap1\n      pop\n      jump\t// out\n        /* \"#utility.yul\":6003:6123   */\n    tag_139:\n        /* \"#utility.yul\":6075:6098   */\n      tag_243\n        /* \"#utility.yul\":6092:6097   */\n      dup2\n        /* \"#utility.yul\":6075:6098   */\n      tag_138\n      jump\t// in\n    tag_243:\n        /* \"#utility.yul\":6068:6073   */\n      dup2\n        /* \"#utility.yul\":6065:6099   */\n      eq\n        /* \"#utility.yul\":6055:6117   */\n      tag_244\n      jumpi\n        /* \"#utility.yul\":6113:6114   */\n      0x00\n        /* \"#utility.yul\":6110:6111   */\n      dup1\n        /* \"#utility.yul\":6103:6115   */\n      revert\n        /* \"#utility.yul\":6055:6117   */\n    tag_244:\n        /* \"#utility.yul\":6003:6123   */\n      pop\n      jump\t// out\n        /* \"#utility.yul\":6129:6266   */\n    tag_140:\n        /* \"#utility.yul\":6174:6179   */\n      0x00\n        /* \"#utility.yul\":6212:6218   */\n      dup2\n        /* \"#utility.yul\":6199:6219   */\n      calldataload\n        /* \"#utility.yul\":6190:6219   */\n      swap1\n      pop\n        /* \"#utility.yul\":6228:6260   */\n      tag_246\n        /* \"#utility.yul\":6254:6259   */\n      dup2\n        /* \"#utility.yul\":6228:6260   */\n      tag_139\n      jump\t// in\n    tag_246:\n        /* \"#utility.yul\":6129:6266   */\n      swap3\n      swap2\n      pop\n      pop\n      jump\t// out\n        /* \"#utility.yul\":6272:6599   */\n    tag_26:\n        /* \"#utility.yul\":6330:6336   */\n      0x00\n        /* \"#utility.yul\":6379:6381   */\n      0x20\n        /* \"#utility.yul\":6367:6376   */\n      dup3\n        /* \"#utility.yul\":6358:6365   */\n      dup5\n        /* \"#utility.yul\":6354:6377   */\n      sub\n        /* \"#utility.yul\":6350:6382   */\n      slt\n        /* \"#utility.yul\":6347:6466   */\n      iszero\n      tag_248\n      jumpi\n        /* \"#utility.yul\":6385:6464   */\n      tag_249\n      tag_117\n      jump\t// in\n    tag_249:\n        /* \"#utility.yul\":6347:6466   */\n    tag_248:\n        /* \"#utility.yul\":6505:6506   */\n      0x00\n        /* \"#utility.yul\":6530:6582   */\n      tag_250\n        /* \"#utility.yul\":6574:6581   */\n      dup5\n        /* \"#utility.yul\":6565:6571   */\n      dup3\n        /* \"#utility.yul\":6554:6563   */\n      dup6\n        /* \"#utility.yul\":6550:6572   */\n      add\n        /* \"#utility.yul\":6530:6582   */\n      tag_140\n      jump\t// in\n    tag_250:\n        /* \"#utility.yul\":6520:6582   */\n      swap2\n      pop\n        /* \"#utility.yul\":6476:6592   */\n      pop\n        /* \"#utility.yul\":6272:6599   */\n      swap3\n      swap2\n      pop\n      pop\n      jump\t// out\n        /* \"#utility.yul\":6605:6720   */\n    tag_141:\n        /* \"#utility.yul\":6690:6713   */\n      tag_252\n        /* \"#utility.yul\":6707:6712   */\n      dup2\n        /* \"#utility.yul\":6690:6713   */\n      tag_138\n      jump\t// in\n    tag_252:\n        /* \"#utility.yul\":6685:6688   */\n      dup3\n        /* \"#utility.yul\":6678:6714   */\n      mstore\n        /* \"#utility.yul\":6605:6720   */\n      pop\n      pop\n      jump\t// out\n        /* \"#utility.yul\":6726:6944   */\n    tag_34:\n        /* \"#utility.yul\":6817:6821   */\n      0x00\n        /* \"#utility.yul\":6855:6857   */\n      0x20\n        /* \"#utility.yul\":6844:6853   */\n      dup3\n        /* \"#utility.yul\":6840:6858   */\n      add\n        /* \"#utility.yul\":6832:6858   */\n      swap1\n      pop\n        /* \"#utility.yul\":6868:6937   */\n      tag_254\n        /* \"#utility.yul\":6934:6935   */\n      0x00\n        /* \"#utility.yul\":6923:6932   */\n      dup4\n        /* \"#utility.yul\":6919:6936   */\n      add\n        /* \"#utility.yul\":6910:6916   */\n      dup5\n        /* \"#utility.yul\":6868:6937   */\n      tag_141\n      jump\t// in\n    tag_254:\n        /* \"#utility.yul\":6726:6944   */\n      swap3\n      swap2\n      pop\n      pop\n      jump\t// out\n        /* \"#utility.yul\":6950:7067   */\n    tag_142:\n        /* \"#utility.yul\":7059:7060   */\n      0x00\n        /* \"#utility.yul\":7056:7057   */\n      dup1\n        /* \"#utility.yul\":7049:7061   */\n      revert\n        /* \"#utility.yul\":7073:7190   */\n    tag_143:\n        /* \"#utility.yul\":7182:7183   */\n      0x00\n        /* \"#utility.yul\":7179:7180   */\n      dup1\n        /* \"#utility.yul\":7172:7184   */\n      revert\n        /* \"#utility.yul\":7196:7376   */\n    tag_144:\n        /* \"#utility.yul\":7244:7321   */\n      0x4e487b7100000000000000000000000000000000000000000000000000000000\n        /* \"#utility.yul\":7241:7242   */\n      0x00\n        /* \"#utility.yul\":7234:7322   */\n      mstore\n        /* \"#utility.yul\":7341:7345   */\n      0x41\n        /* \"#utility.yul\":7338:7339   */\n      0x04\n        /* \"#utility.yul\":7331:7346   */\n      mstore\n        /* \"#utility.yul\":7365:7369   */\n      0x24\n        /* \"#utility.yul\":7362:7363   */\n      0x00\n        /* \"#utility.yul\":7355:7370   */\n      revert\n        /* \"#utility.yul\":7382:7663   */\n    tag_145:\n        /* \"#utility.yul\":7465:7492   */\n      tag_259\n        /* \"#utility.yul\":7487:7491   */\n      dup3\n        /* \"#utility.yul\":7465:7492   */\n      tag_131\n      jump\t// in\n    tag_259:\n        /* \"#utility.yul\":7457:7463   */\n      dup2\n        /* \"#utility.yul\":7453:7493   */\n      add\n        /* \"#utility.yul\":7595:7601   */\n      dup2\n        /* \"#utility.yul\":7583:7593   */\n      dup2\n        /* \"#utility.yul\":7580:7602   */\n      lt\n        /* \"#utility.yul\":7559:7577   */\n      0xffffffffffffffff\n        /* \"#utility.yul\":7547:7557   */\n      dup3\n        /* \"#utility.yul\":7544:7578   */\n      gt\n        /* \"#utility.yul\":7541:7603   */\n      or\n        /* \"#utility.yul\":7538:7626   */\n      iszero\n      tag_260\n      jumpi\n        /* \"#utility.yul\":7606:7624   */\n      tag_261\n      tag_144\n      jump\t// in\n    tag_261:\n        /* \"#utility.yul\":7538:7626   */\n    tag_260:\n        /* \"#utility.yul\":7646:7656   */\n      dup1\n        /* \"#utility.yul\":7642:7644   */\n      0x40\n        /* \"#utility.yul\":7635:7657   */\n      mstore\n        /* \"#utility.yul\":7425:7663   */\n      pop\n        /* \"#utility.yul\":7382:7663   */\n      pop\n      pop\n      jump\t// out\n        /* \"#utility.yul\":7669:7798   */\n    tag_146:\n        /* \"#utility.yul\":7703:7709   */\n      0x00\n        /* \"#utility.yul\":7730:7750   */\n      tag_263\n      tag_116\n      jump\t// in\n    tag_263:\n        /* \"#utility.yul\":7720:7750   */\n      swap1\n      pop\n        /* \"#utility.yul\":7759:7792   */\n      tag_264\n        /* \"#utility.yul\":7787:7791   */\n      dup3\n        /* \"#utility.yul\":7779:7785   */\n      dup3\n        /* \"#utility.yul\":7759:7792   */\n      tag_145\n      jump\t// in\n    tag_264:\n        /* \"#utility.yul\":7669:7798   */\n      swap2\n      swap1\n      pop\n      jump\t// out\n        /* \"#utility.yul\":7804:8112   */\n    tag_147:\n        /* \"#utility.yul\":7866:7870   */\n      0x00\n        /* \"#utility.yul\":7956:7974   */\n      0xffffffffffffffff\n        /* \"#utility.yul\":7948:7954   */\n      dup3\n        /* \"#utility.yul\":7945:7975   */\n      gt\n        /* \"#utility.yul\":7942:7998   */\n      iszero\n      tag_266\n      jumpi\n        /* \"#utility.yul\":7978:7996   */\n      tag_267\n      tag_144\n      jump\t// in\n    tag_267:\n        /* \"#utility.yul\":7942:7998   */\n    tag_266:\n        /* \"#utility.yul\":8016:8045   */\n      tag_268\n        /* \"#utility.yul\":8038:8044   */\n      dup3\n        /* \"#utility.yul\":8016:8045   */\n      tag_131\n      jump\t// in\n    tag_268:\n        /* \"#utility.yul\":8008:8045   */\n      swap1\n      pop\n        /* \"#utility.yul\":8100:8104   */\n      0x20\n        /* \"#utility.yul\":8094:8098   */\n      dup2\n        /* \"#utility.yul\":8090:8105   */\n      add\n        /* \"#utility.yul\":8082:8105   */\n      swap1\n      pop\n        /* \"#utility.yul\":7804:8112   */\n      swap2\n      swap1\n      pop\n      jump\t// out\n        /* \"#utility.yul\":8118:8266   */\n    tag_148:\n        /* \"#utility.yul\":8216:8222   */\n      dup3\n        /* \"#utility.yul\":8211:8214   */\n      dup2\n        /* \"#utility.yul\":8206:8209   */\n      dup4\n        /* \"#utility.yul\":8193:8223   */\n      calldatacopy\n        /* \"#utility.yul\":8257:8258   */\n      0x00\n        /* \"#utility.yul\":8248:8254   */\n      dup4\n        /* \"#utility.yul\":8243:8246   */\n      dup4\n        /* \"#utility.yul\":8239:8255   */\n      add\n        /* \"#utility.yul\":8232:8259   */\n      mstore\n        /* \"#utility.yul\":8118:8266   */\n      pop\n      pop\n      pop\n      jump\t// out\n        /* \"#utility.yul\":8272:8697   */\n    tag_149:\n        /* \"#utility.yul\":8350:8355   */\n      0x00\n        /* \"#utility.yul\":8375:8441   */\n      tag_271\n        /* \"#utility.yul\":8391:8440   */\n      tag_272\n        /* \"#utility.yul\":8433:8439   */\n      dup5\n        /* \"#utility.yul\":8391:8440   */\n      tag_147\n      jump\t// in\n    tag_272:\n        /* \"#utility.yul\":8375:8441   */\n      tag_146\n      jump\t// in\n    tag_271:\n        /* \"#utility.yul\":8366:8441   */\n      swap1\n      pop\n        /* \"#utility.yul\":8464:8470   */\n      dup3\n        /* \"#utility.yul\":8457:8462   */\n      dup2\n        /* \"#utility.yul\":8450:8471   */\n      mstore\n        /* \"#utility.yul\":8502:8506   */\n      0x20\n        /* \"#utility.yul\":8495:8500   */\n      dup2\n        /* \"#utility.yul\":8491:8507   */\n      add\n        /* \"#utility.yul\":8540:8543   */\n      dup5\n        /* \"#utility.yul\":8531:8537   */\n      dup5\n        /* \"#utility.yul\":8526:8529   */\n      dup5\n        /* \"#utility.yul\":8522:8538   */\n      add\n        /* \"#utility.yul\":8519:8544   */\n      gt\n        /* \"#utility.yul\":8516:8628   */\n      iszero\n      tag_273\n      jumpi\n        /* \"#utility.yul\":8547:8626   */\n      tag_274\n      tag_143\n      jump\t// in\n    tag_274:\n        /* \"#utility.yul\":8516:8628   */\n    tag_273:\n        /* \"#utility.yul\":8637:8691   */\n      tag_275\n        /* \"#utility.yul\":8684:8690   */\n      dup5\n        /* \"#utility.yul\":8679:8682   */\n      dup3\n        /* \"#utility.yul\":8674:8677   */\n      dup6\n        /* \"#utility.yul\":8637:8691   */\n      tag_148\n      jump\t// in\n    tag_275:\n        /* \"#utility.yul\":8356:8697   */\n      pop\n        /* \"#utility.yul\":8272:8697   */\n      swap4\n      swap3\n      pop\n      pop\n      pop\n      jump\t// out\n        /* \"#utility.yul\":8717:9057   */\n    tag_150:\n        /* \"#utility.yul\":8773:8778   */\n      0x00\n        /* \"#utility.yul\":8822:8825   */\n      dup3\n        /* \"#utility.yul\":8815:8819   */\n      0x1f\n        /* \"#utility.yul\":8807:8813   */\n      dup4\n        /* \"#utility.yul\":8803:8820   */\n      add\n        /* \"#utility.yul\":8799:8826   */\n      slt\n        /* \"#utility.yul\":8789:8911   */\n      tag_277\n      jumpi\n        /* \"#utility.yul\":8830:8909   */\n      tag_278\n      tag_142\n      jump\t// in\n    tag_278:\n        /* \"#utility.yul\":8789:8911   */\n    tag_277:\n        /* \"#utility.yul\":8947:8953   */\n      dup2\n        /* \"#utility.yul\":8934:8954   */\n      calldataload\n        /* \"#utility.yul\":8972:9051   */\n      tag_279\n        /* \"#utility.yul\":9047:9050   */\n      dup5\n        /* \"#utility.yul\":9039:9045   */\n      dup3\n        /* \"#utility.yul\":9032:9036   */\n      0x20\n        /* \"#utility.yul\":9024:9030   */\n      dup7\n        /* \"#utility.yul\":9020:9037   */\n      add\n        /* \"#utility.yul\":8972:9051   */\n      tag_149\n      jump\t// in\n    tag_279:\n        /* \"#utility.yul\":8963:9051   */\n      swap2\n      pop\n        /* \"#utility.yul\":8779:9057   */\n      pop\n        /* \"#utility.yul\":8717:9057   */\n      swap3\n      swap2\n      pop\n      pop\n      jump\t// out\n        /* \"#utility.yul\":9063:9572   */\n    tag_37:\n        /* \"#utility.yul\":9132:9138   */\n      0x00\n        /* \"#utility.yul\":9181:9183   */\n      0x20\n        /* \"#utility.yul\":9169:9178   */\n      dup3\n        /* \"#utility.yul\":9160:9167   */\n      dup5\n        /* \"#utility.yul\":9156:9179   */\n      sub\n        /* \"#utility.yul\":9152:9184   */\n      slt\n        /* \"#utility.yul\":9149:9268   */\n      iszero\n      tag_281\n      jumpi\n        /* \"#utility.yul\":9187:9266   */\n      tag_282\n      tag_117\n      jump\t// in\n    tag_282:\n        /* \"#utility.yul\":9149:9268   */\n    tag_281:\n        /* \"#utility.yul\":9335:9336   */\n      0x00\n        /* \"#utility.yul\":9324:9333   */\n      dup3\n        /* \"#utility.yul\":9320:9337   */\n      add\n        /* \"#utility.yul\":9307:9338   */\n      calldataload\n        /* \"#utility.yul\":9365:9383   */\n      0xffffffffffffffff\n        /* \"#utility.yul\":9357:9363   */\n      dup2\n        /* \"#utility.yul\":9354:9384   */\n      gt\n        /* \"#utility.yul\":9351:9468   */\n      iszero\n      tag_283\n      jumpi\n        /* \"#utility.yul\":9387:9466   */\n      tag_284\n      tag_118\n      jump\t// in\n    tag_284:\n        /* \"#utility.yul\":9351:9468   */\n    tag_283:\n        /* \"#utility.yul\":9492:9555   */\n      tag_285\n        /* \"#utility.yul\":9547:9554   */\n      dup5\n        /* \"#utility.yul\":9538:9544   */\n      dup3\n        /* \"#utility.yul\":9527:9536   */\n      dup6\n        /* \"#utility.yul\":9523:9545   */\n      add\n        /* \"#utility.yul\":9492:9555   */\n      tag_150\n      jump\t// in\n    tag_285:\n        /* \"#utility.yul\":9482:9555   */\n      swap2\n      pop\n        /* \"#utility.yul\":9278:9565   */\n      pop\n        /* \"#utility.yul\":9063:9572   */\n      swap3\n      swap2\n      pop\n      pop\n      jump\t// out\n        /* \"#utility.yul\":9578:9800   */\n    tag_42:\n        /* \"#utility.yul\":9671:9675   */\n      0x00\n        /* \"#utility.yul\":9709:9711   */\n      0x20\n        /* \"#utility.yul\":9698:9707   */\n      dup3\n        /* \"#utility.yul\":9694:9712   */\n      add\n        /* \"#utility.yul\":9686:9712   */\n      swap1\n      pop\n        /* \"#utility.yul\":9722:9793   */\n      tag_287\n        /* \"#utility.yul\":9790:9791   */\n      0x00\n        /* \"#utility.yul\":9779:9788   */\n      dup4\n        /* \"#utility.yul\":9775:9792   */\n      add\n        /* \"#utility.yul\":9766:9772   */\n      dup5\n        /* \"#utility.yul\":9722:9793   */\n      tag_127\n      jump\t// in\n    tag_287:\n        /* \"#utility.yul\":9578:9800   */\n      swap3\n      swap2\n      pop\n      pop\n      jump\t// out\n        /* \"#utility.yul\":9806:10135   */\n    tag_48:\n        /* \"#utility.yul\":9865:9871   */\n      0x00\n        /* \"#utility.yul\":9914:9916   */\n      0x20\n        /* \"#utility.yul\":9902:9911   */\n      dup3\n        /* \"#utility.yul\":9893:9900   */\n      dup5\n        /* \"#utility.yul\":9889:9912   */\n      sub\n        /* \"#utility.yul\":9885:9917   */\n      slt\n        /* \"#utility.yul\":9882:10001   */\n      iszero\n      tag_289\n      jumpi\n        /* \"#utility.yul\":9920:9999   */\n      tag_290\n      tag_117\n      jump\t// in\n    tag_290:\n        /* \"#utility.yul\":9882:10001   */\n    tag_289:\n        /* \"#utility.yul\":10040:10041   */\n      0x00\n        /* \"#utility.yul\":10065:10118   */\n      tag_291\n        /* \"#utility.yul\":10110:10117   */\n      dup5\n        /* \"#utility.yul\":10101:10107   */\n      dup3\n        /* \"#utility.yul\":10090:10099   */\n      dup6\n        /* \"#utility.yul\":10086:10108   */\n      add\n        /* \"#utility.yul\":10065:10118   */\n      tag_122\n      jump\t// in\n    tag_291:\n        /* \"#utility.yul\":10055:10118   */\n      swap2\n      pop\n        /* \"#utility.yul\":10011:10128   */\n      pop\n        /* \"#utility.yul\":9806:10135   */\n      swap3\n      swap2\n      pop\n      pop\n      jump\t// out\n        /* \"#utility.yul\":10141:10276   */\n    tag_151:\n        /* \"#utility.yul\":10229:10235   */\n      0x00\n        /* \"#utility.yul\":10263:10268   */\n      dup2\n        /* \"#utility.yul\":10257:10269   */\n      mload\n        /* \"#utility.yul\":10247:10269   */\n      swap1\n      pop\n        /* \"#utility.yul\":10141:10276   */\n      swap2\n      swap1\n      pop\n      jump\t// out\n        /* \"#utility.yul\":10282:10487   */\n    tag_152:\n        /* \"#utility.yul\":10402:10413   */\n      0x00\n        /* \"#utility.yul\":10436:10442   */\n      dup3\n        /* \"#utility.yul\":10431:10434   */\n      dup3\n        /* \"#utility.yul\":10424:10443   */\n      mstore\n        /* \"#utility.yul\":10476:10480   */\n      0x20\n        /* \"#utility.yul\":10471:10474   */\n      dup3\n        /* \"#utility.yul\":10467:10481   */\n      add\n        /* \"#utility.yul\":10452:10481   */\n      swap1\n      pop\n        /* \"#utility.yul\":10282:10487   */\n      swap3\n      swap2\n      pop\n      pop\n      jump\t// out\n        /* \"#utility.yul\":10493:10646   */\n    tag_153:\n        /* \"#utility.yul\":10581:10585   */\n      0x00\n        /* \"#utility.yul\":10604:10607   */\n      dup2\n        /* \"#utility.yul\":10596:10607   */\n      swap1\n      pop\n        /* \"#utility.yul\":10634:10638   */\n      0x20\n        /* \"#utility.yul\":10629:10632   */\n      dup3\n        /* \"#utility.yul\":10625:10639   */\n      add\n        /* \"#utility.yul\":10617:10639   */\n      swap1\n      pop\n        /* \"#utility.yul\":10493:10646   */\n      swap2\n      swap1\n      pop\n      jump\t// out\n        /* \"#utility.yul\":10704:11823   */\n    tag_154:\n        /* \"#utility.yul\":10805:10808   */\n      0x00\n        /* \"#utility.yul\":10841:10845   */\n      0xa0\n        /* \"#utility.yul\":10836:10839   */\n      dup4\n        /* \"#utility.yul\":10832:10846   */\n      add\n        /* \"#utility.yul\":10926:10930   */\n      0x00\n        /* \"#utility.yul\":10919:10924   */\n      dup4\n        /* \"#utility.yul\":10915:10931   */\n      add\n        /* \"#utility.yul\":10909:10932   */\n      mload\n        /* \"#utility.yul\":10945:11008   */\n      tag_296\n        /* \"#utility.yul\":11002:11006   */\n      0x00\n        /* \"#utility.yul\":10997:11000   */\n      dup7\n        /* \"#utility.yul\":10993:11007   */\n      add\n        /* \"#utility.yul\":10979:10991   */\n      dup3\n        /* \"#utility.yul\":10945:11008   */\n      tag_133\n      jump\t// in\n    tag_296:\n        /* \"#utility.yul\":10856:11018   */\n      pop\n        /* \"#utility.yul\":11102:11106   */\n      0x20\n        /* \"#utility.yul\":11095:11100   */\n      dup4\n        /* \"#utility.yul\":11091:11107   */\n      add\n        /* \"#utility.yul\":11085:11108   */\n      mload\n        /* \"#utility.yul\":11121:11184   */\n      tag_297\n        /* \"#utility.yul\":11178:11182   */\n      0x20\n        /* \"#utility.yul\":11173:11176   */\n      dup7\n        /* \"#utility.yul\":11169:11183   */\n      add\n        /* \"#utility.yul\":11155:11167   */\n      dup3\n        /* \"#utility.yul\":11121:11184   */\n      tag_134\n      jump\t// in\n    tag_297:\n        /* \"#utility.yul\":11028:11194   */\n      pop\n        /* \"#utility.yul\":11279:11283   */\n      0x40\n        /* \"#utility.yul\":11272:11277   */\n      dup4\n        /* \"#utility.yul\":11268:11284   */\n      add\n        /* \"#utility.yul\":11262:11285   */\n      mload\n        /* \"#utility.yul\":11332:11335   */\n      dup5\n        /* \"#utility.yul\":11326:11330   */\n      dup3\n        /* \"#utility.yul\":11322:11336   */\n      sub\n        /* \"#utility.yul\":11315:11319   */\n      0x40\n        /* \"#utility.yul\":11310:11313   */\n      dup7\n        /* \"#utility.yul\":11306:11320   */\n      add\n        /* \"#utility.yul\":11299:11337   */\n      mstore\n        /* \"#utility.yul\":11358:11431   */\n      tag_298\n        /* \"#utility.yul\":11426:11430   */\n      dup3\n        /* \"#utility.yul\":11412:11424   */\n      dup3\n        /* \"#utility.yul\":11358:11431   */\n      tag_136\n      jump\t// in\n    tag_298:\n        /* \"#utility.yul\":11350:11431   */\n      swap2\n      pop\n        /* \"#utility.yul\":11204:11442   */\n      pop\n        /* \"#utility.yul\":11529:11533   */\n      0x60\n        /* \"#utility.yul\":11522:11527   */\n      dup4\n        /* \"#utility.yul\":11518:11534   */\n      add\n        /* \"#utility.yul\":11512:11535   */\n      mload\n        /* \"#utility.yul\":11548:11611   */\n      tag_299\n        /* \"#utility.yul\":11605:11609   */\n      0x60\n        /* \"#utility.yul\":11600:11603   */\n      dup7\n        /* \"#utility.yul\":11596:11610   */\n      add\n        /* \"#utility.yul\":11582:11594   */\n      dup3\n        /* \"#utility.yul\":11548:11611   */\n      tag_133\n      jump\t// in\n    tag_299:\n        /* \"#utility.yul\":11452:11621   */\n      pop\n        /* \"#utility.yul\":11704:11708   */\n      0x80\n        /* \"#utility.yul\":11697:11702   */\n      dup4\n        /* \"#utility.yul\":11693:11709   */\n      add\n        /* \"#utility.yul\":11687:11710   */\n      mload\n        /* \"#utility.yul\":11723:11786   */\n      tag_300\n        /* \"#utility.yul\":11780:11784   */\n      0x80\n        /* \"#utility.yul\":11775:11778   */\n      dup7\n        /* \"#utility.yul\":11771:11785   */\n      add\n        /* \"#utility.yul\":11757:11769   */\n      dup3\n        /* \"#utility.yul\":11723:11786   */\n      tag_133\n      jump\t// in\n    tag_300:\n        /* \"#utility.yul\":11631:11796   */\n      pop\n        /* \"#utility.yul\":11813:11817   */\n      dup1\n        /* \"#utility.yul\":11806:11817   */\n      swap2\n      pop\n        /* \"#utility.yul\":10810:11823   */\n      pop\n        /* \"#utility.yul\":10704:11823   */\n      swap3\n      swap2\n      pop\n      pop\n      jump\t// out\n        /* \"#utility.yul\":11829:12069   */\n    tag_155:\n        /* \"#utility.yul\":11940:11950   */\n      0x00\n        /* \"#utility.yul\":11975:12063   */\n      tag_302\n        /* \"#utility.yul\":12059:12062   */\n      dup4\n        /* \"#utility.yul\":12051:12057   */\n      dup4\n        /* \"#utility.yul\":11975:12063   */\n      tag_154\n      jump\t// in\n    tag_302:\n        /* \"#utility.yul\":11961:12063   */\n      swap1\n      pop\n        /* \"#utility.yul\":11829:12069   */\n      swap3\n      swap2\n      pop\n      pop\n      jump\t// out\n        /* \"#utility.yul\":12075:12209   */\n    tag_156:\n        /* \"#utility.yul\":12166:12170   */\n      0x00\n        /* \"#utility.yul\":12198:12202   */\n      0x20\n        /* \"#utility.yul\":12193:12196   */\n      dup3\n        /* \"#utility.yul\":12189:12203   */\n      add\n        /* \"#utility.yul\":12181:12203   */\n      swap1\n      pop\n        /* \"#utility.yul\":12075:12209   */\n      swap2\n      swap1\n      pop\n      jump\t// out\n        /* \"#utility.yul\":12271:13350   */\n    tag_157:\n        /* \"#utility.yul\":12432:12435   */\n      0x00\n        /* \"#utility.yul\":12461:12536   */\n      tag_305\n        /* \"#utility.yul\":12530:12535   */\n      dup3\n        /* \"#utility.yul\":12461:12536   */\n      tag_151\n      jump\t// in\n    tag_305:\n        /* \"#utility.yul\":12552:12659   */\n      tag_306\n        /* \"#utility.yul\":12652:12658   */\n      dup2\n        /* \"#utility.yul\":12647:12650   */\n      dup6\n        /* \"#utility.yul\":12552:12659   */\n      tag_152\n      jump\t// in\n    tag_306:\n        /* \"#utility.yul\":12545:12659   */\n      swap4\n      pop\n        /* \"#utility.yul\":12685:12688   */\n      dup4\n        /* \"#utility.yul\":12730:12734   */\n      0x20\n        /* \"#utility.yul\":12722:12728   */\n      dup3\n        /* \"#utility.yul\":12718:12735   */\n      mul\n        /* \"#utility.yul\":12713:12716   */\n      dup6\n        /* \"#utility.yul\":12709:12736   */\n      add\n        /* \"#utility.yul\":12760:12837   */\n      tag_307\n        /* \"#utility.yul\":12831:12836   */\n      dup6\n        /* \"#utility.yul\":12760:12837   */\n      tag_153\n      jump\t// in\n    tag_307:\n        /* \"#utility.yul\":12860:12867   */\n      dup1\n        /* \"#utility.yul\":12891:12892   */\n      0x00\n        /* \"#utility.yul\":12876:13305   */\n    tag_308:\n        /* \"#utility.yul\":12901:12907   */\n      dup6\n        /* \"#utility.yul\":12898:12899   */\n      dup2\n        /* \"#utility.yul\":12895:12908   */\n      lt\n        /* \"#utility.yul\":12876:13305   */\n      iszero\n      tag_310\n      jumpi\n        /* \"#utility.yul\":12972:12981   */\n      dup5\n        /* \"#utility.yul\":12966:12970   */\n      dup5\n        /* \"#utility.yul\":12962:12982   */\n      sub\n        /* \"#utility.yul\":12957:12960   */\n      dup10\n        /* \"#utility.yul\":12950:12983   */\n      mstore\n        /* \"#utility.yul\":13023:13029   */\n      dup2\n        /* \"#utility.yul\":13017:13030   */\n      mload\n        /* \"#utility.yul\":13051:13157   */\n      tag_311\n        /* \"#utility.yul\":13152:13156   */\n      dup6\n        /* \"#utility.yul\":13137:13150   */\n      dup3\n        /* \"#utility.yul\":13051:13157   */\n      tag_155\n      jump\t// in\n    tag_311:\n        /* \"#utility.yul\":13043:13157   */\n      swap5\n      pop\n        /* \"#utility.yul\":13180:13261   */\n      tag_312\n        /* \"#utility.yul\":13254:13260   */\n      dup4\n        /* \"#utility.yul\":13180:13261   */\n      tag_156\n      jump\t// in\n    tag_312:\n        /* \"#utility.yul\":13170:13261   */\n      swap3\n      pop\n        /* \"#utility.yul\":13290:13294   */\n      0x20\n        /* \"#utility.yul\":13285:13288   */\n      dup11\n        /* \"#utility.yul\":13281:13295   */\n      add\n        /* \"#utility.yul\":13274:13295   */\n      swap10\n      pop\n        /* \"#utility.yul\":12936:13305   */\n      pop\n        /* \"#utility.yul\":12923:12924   */\n      0x01\n        /* \"#utility.yul\":12920:12921   */\n      dup2\n        /* \"#utility.yul\":12916:12925   */\n      add\n        /* \"#utility.yul\":12911:12925   */\n      swap1\n      pop\n        /* \"#utility.yul\":12876:13305   */\n      jump(tag_308)\n    tag_310:\n        /* \"#utility.yul\":12880:12894   */\n      pop\n        /* \"#utility.yul\":13321:13325   */\n      dup3\n        /* \"#utility.yul\":13314:13325   */\n      swap8\n      pop\n        /* \"#utility.yul\":13341:13344   */\n      dup8\n        /* \"#utility.yul\":13334:13344   */\n      swap6\n      pop\n        /* \"#utility.yul\":12437:13350   */\n      pop\n      pop\n      pop\n      pop\n      pop\n        /* \"#utility.yul\":12271:13350   */\n      swap3\n      swap2\n      pop\n      pop\n      jump\t// out\n        /* \"#utility.yul\":13356:13813   */\n    tag_51:\n        /* \"#utility.yul\":13541:13545   */\n      0x00\n        /* \"#utility.yul\":13579:13581   */\n      0x20\n        /* \"#utility.yul\":13568:13577   */\n      dup3\n        /* \"#utility.yul\":13564:13582   */\n      add\n        /* \"#utility.yul\":13556:13582   */\n      swap1\n      pop\n        /* \"#utility.yul\":13628:13637   */\n      dup2\n        /* \"#utility.yul\":13622:13626   */\n      dup2\n        /* \"#utility.yul\":13618:13638   */\n      sub\n        /* \"#utility.yul\":13614:13615   */\n      0x00\n        /* \"#utility.yul\":13603:13612   */\n      dup4\n        /* \"#utility.yul\":13599:13616   */\n      add\n        /* \"#utility.yul\":13592:13639   */\n      mstore\n        /* \"#utility.yul\":13656:13806   */\n      tag_314\n        /* \"#utility.yul\":13801:13805   */\n      dup2\n        /* \"#utility.yul\":13792:13798   */\n      dup5\n        /* \"#utility.yul\":13656:13806   */\n      tag_157\n      jump\t// in\n    tag_314:\n        /* \"#utility.yul\":13648:13806   */\n      swap1\n      pop\n        /* \"#utility.yul\":13356:13813   */\n      swap3\n      swap2\n      pop\n      pop\n      jump\t// out\n        /* \"#utility.yul\":13819:13999   */\n    tag_158:\n        /* \"#utility.yul\":13867:13944   */\n      0x4e487b7100000000000000000000000000000000000000000000000000000000\n        /* \"#utility.yul\":13864:13865   */\n      0x00\n        /* \"#utility.yul\":13857:13945   */\n      mstore\n        /* \"#utility.yul\":13964:13968   */\n      0x22\n        /* \"#utility.yul\":13961:13962   */\n      0x04\n        /* \"#utility.yul\":13954:13969   */\n      mstore\n        /* \"#utility.yul\":13988:13992   */\n      0x24\n        /* \"#utility.yul\":13985:13986   */\n      0x00\n        /* \"#utility.yul\":13978:13993   */\n      revert\n        /* \"#utility.yul\":14005:14325   */\n    tag_55:\n        /* \"#utility.yul\":14049:14055   */\n      0x00\n        /* \"#utility.yul\":14086:14087   */\n      0x02\n        /* \"#utility.yul\":14080:14084   */\n      dup3\n        /* \"#utility.yul\":14076:14088   */\n      div\n        /* \"#utility.yul\":14066:14088   */\n      swap1\n      pop\n        /* \"#utility.yul\":14133:14134   */\n      0x01\n        /* \"#utility.yul\":14127:14131   */\n      dup3\n        /* \"#utility.yul\":14123:14135   */\n      and\n        /* \"#utility.yul\":14154:14172   */\n      dup1\n        /* \"#utility.yul\":14144:14225   */\n      tag_317\n      jumpi\n        /* \"#utility.yul\":14210:14214   */\n      0x7f\n        /* \"#utility.yul\":14202:14208   */\n      dup3\n        /* \"#utility.yul\":14198:14215   */\n      and\n        /* \"#utility.yul\":14188:14215   */\n      swap2\n      pop\n        /* \"#utility.yul\":14144:14225   */\n    tag_317:\n        /* \"#utility.yul\":14272:14274   */\n      0x20\n        /* \"#utility.yul\":14264:14270   */\n      dup3\n        /* \"#utility.yul\":14261:14275   */\n      lt\n        /* \"#utility.yul\":14241:14259   */\n      dup2\n        /* \"#utility.yul\":14238:14276   */\n      sub\n        /* \"#utility.yul\":14235:14319   */\n      tag_318\n      jumpi\n        /* \"#utility.yul\":14291:14309   */\n      tag_319\n      tag_158\n      jump\t// in\n    tag_319:\n        /* \"#utility.yul\":14235:14319   */\n    tag_318:\n        /* \"#utility.yul\":14056:14325   */\n      pop\n        /* \"#utility.yul\":14005:14325   */\n      swap2\n      swap1\n      pop\n      jump\t// out\n        /* \"#utility.yul\":14331:14511   */\n    tag_65:\n        /* \"#utility.yul\":14379:14456   */\n      0x4e487b7100000000000000000000000000000000000000000000000000000000\n        /* \"#utility.yul\":14376:14377   */\n      0x00\n        /* \"#utility.yul\":14369:14457   */\n      mstore\n        /* \"#utility.yul\":14476:14480   */\n      0x32\n        /* \"#utility.yul\":14473:14474   */\n      0x04\n        /* \"#utility.yul\":14466:14481   */\n      mstore\n        /* \"#utility.yul\":14500:14504   */\n      0x24\n        /* \"#utility.yul\":14497:14498   */\n      0x00\n        /* \"#utility.yul\":14490:14505   */\n      revert\n        /* \"#utility.yul\":14517:14742   */\n    tag_159:\n        /* \"#utility.yul\":14657:14691   */\n      0x796f7520617265206e6f7420746865206f776e6572206f662074686520636f6e\n        /* \"#utility.yul\":14653:14654   */\n      0x00\n        /* \"#utility.yul\":14645:14651   */\n      dup3\n        /* \"#utility.yul\":14641:14655   */\n      add\n        /* \"#utility.yul\":14634:14692   */\n      mstore\n        /* \"#utility.yul\":14726:14734   */\n      0x7472616374210000000000000000000000000000000000000000000000000000\n        /* \"#utility.yul\":14721:14723   */\n      0x20\n        /* \"#utility.yul\":14713:14719   */\n      dup3\n        /* \"#utility.yul\":14709:14724   */\n      add\n        /* \"#utility.yul\":14702:14735   */\n      mstore\n        /* \"#utility.yul\":14517:14742   */\n      pop\n      jump\t// out\n        /* \"#utility.yul\":14748:15114   */\n    tag_160:\n        /* \"#utility.yul\":14890:14893   */\n      0x00\n        /* \"#utility.yul\":14911:14978   */\n      tag_323\n        /* \"#utility.yul\":14975:14977   */\n      0x26\n        /* \"#utility.yul\":14970:14973   */\n      dup4\n        /* \"#utility.yul\":14911:14978   */\n      tag_129\n      jump\t// in\n    tag_323:\n        /* \"#utility.yul\":14904:14978   */\n      swap2\n      pop\n        /* \"#utility.yul\":14987:15080   */\n      tag_324\n        /* \"#utility.yul\":15076:15079   */\n      dup3\n        /* \"#utility.yul\":14987:15080   */\n      tag_159\n      jump\t// in\n    tag_324:\n        /* \"#utility.yul\":15105:15107   */\n      0x40\n        /* \"#utility.yul\":15100:15103   */\n      dup3\n        /* \"#utility.yul\":15096:15108   */\n      add\n        /* \"#utility.yul\":15089:15108   */\n      swap1\n      pop\n        /* \"#utility.yul\":14748:15114   */\n      swap2\n      swap1\n      pop\n      jump\t// out\n        /* \"#utility.yul\":15120:15539   */\n    tag_75:\n        /* \"#utility.yul\":15286:15290   */\n      0x00\n        /* \"#utility.yul\":15324:15326   */\n      0x20\n        /* \"#utility.yul\":15313:15322   */\n      dup3\n        /* \"#utility.yul\":15309:15327   */\n      add\n        /* \"#utility.yul\":15301:15327   */\n      swap1\n      pop\n        /* \"#utility.yul\":15373:15382   */\n      dup2\n        /* \"#utility.yul\":15367:15371   */\n      dup2\n        /* \"#utility.yul\":15363:15383   */\n      sub\n        /* \"#utility.yul\":15359:15360   */\n      0x00\n        /* \"#utility.yul\":15348:15357   */\n      dup4\n        /* \"#utility.yul\":15344:15361   */\n      add\n        /* \"#utility.yul\":15337:15384   */\n      mstore\n        /* \"#utility.yul\":15401:15532   */\n      tag_326\n        /* \"#utility.yul\":15527:15531   */\n      dup2\n        /* \"#utility.yul\":15401:15532   */\n      tag_160\n      jump\t// in\n    tag_326:\n        /* \"#utility.yul\":15393:15532   */\n      swap1\n      pop\n        /* \"#utility.yul\":15120:15539   */\n      swap2\n      swap1\n      pop\n      jump\t// out\n        /* \"#utility.yul\":15545:15714   */\n    tag_161:\n        /* \"#utility.yul\":15685:15706   */\n      0x747765657420646f65736e277420657869737400000000000000000000000000\n        /* \"#utility.yul\":15681:15682   */\n      0x00\n        /* \"#utility.yul\":15673:15679   */\n      dup3\n        /* \"#utility.yul\":15669:15683   */\n      add\n        /* \"#utility.yul\":15662:15707   */\n      mstore\n        /* \"#utility.yul\":15545:15714   */\n      pop\n      jump\t// out\n        /* \"#utility.yul\":15720:16086   */\n    tag_162:\n        /* \"#utility.yul\":15862:15865   */\n      0x00\n        /* \"#utility.yul\":15883:15950   */\n      tag_329\n        /* \"#utility.yul\":15947:15949   */\n      0x13\n        /* \"#utility.yul\":15942:15945   */\n      dup4\n        /* \"#utility.yul\":15883:15950   */\n      tag_129\n      jump\t// in\n    tag_329:\n        /* \"#utility.yul\":15876:15950   */\n      swap2\n      pop\n        /* \"#utility.yul\":15959:16052   */\n      tag_330\n        /* \"#utility.yul\":16048:16051   */\n      dup3\n        /* \"#utility.yul\":15959:16052   */\n      tag_161\n      jump\t// in\n    tag_330:\n        /* \"#utility.yul\":16077:16079   */\n      0x20\n        /* \"#utility.yul\":16072:16075   */\n      dup3\n        /* \"#utility.yul\":16068:16080   */\n      add\n        /* \"#utility.yul\":16061:16080   */\n      swap1\n      pop\n        /* \"#utility.yul\":15720:16086   */\n      swap2\n      swap1\n      pop\n      jump\t// out\n        /* \"#utility.yul\":16092:16511   */\n    tag_83:\n        /* \"#utility.yul\":16258:16262   */\n      0x00\n        /* \"#utility.yul\":16296:16298   */\n      0x20\n        /* \"#utility.yul\":16285:16294   */\n      dup3\n        /* \"#utility.yul\":16281:16299   */\n      add\n        /* \"#utility.yul\":16273:16299   */\n      swap1\n      pop\n        /* \"#utility.yul\":16345:16354   */\n      dup2\n        /* \"#utility.yul\":16339:16343   */\n      dup2\n        /* \"#utility.yul\":16335:16355   */\n      sub\n        /* \"#utility.yul\":16331:16332   */\n      0x00\n        /* \"#utility.yul\":16320:16329   */\n      dup4\n        /* \"#utility.yul\":16316:16333   */\n      add\n        /* \"#utility.yul\":16309:16356   */\n      mstore\n        /* \"#utility.yul\":16373:16504   */\n      tag_332\n        /* \"#utility.yul\":16499:16503   */\n      dup2\n        /* \"#utility.yul\":16373:16504   */\n      tag_162\n      jump\t// in\n    tag_332:\n        /* \"#utility.yul\":16365:16504   */\n      swap1\n      pop\n        /* \"#utility.yul\":16092:16511   */\n      swap2\n      swap1\n      pop\n      jump\t// out\n        /* \"#utility.yul\":16517:16697   */\n    tag_163:\n        /* \"#utility.yul\":16565:16642   */\n      0x4e487b7100000000000000000000000000000000000000000000000000000000\n        /* \"#utility.yul\":16562:16563   */\n      0x00\n        /* \"#utility.yul\":16555:16643   */\n      mstore\n        /* \"#utility.yul\":16662:16666   */\n      0x11\n        /* \"#utility.yul\":16659:16660   */\n      0x04\n        /* \"#utility.yul\":16652:16667   */\n      mstore\n        /* \"#utility.yul\":16686:16690   */\n      0x24\n        /* \"#utility.yul\":16683:16684   */\n      0x00\n        /* \"#utility.yul\":16676:16691   */\n      revert\n        /* \"#utility.yul\":16703:16936   */\n    tag_88:\n        /* \"#utility.yul\":16742:16745   */\n      0x00\n        /* \"#utility.yul\":16765:16789   */\n      tag_335\n        /* \"#utility.yul\":16783:16788   */\n      dup3\n        /* \"#utility.yul\":16765:16789   */\n      tag_123\n      jump\t// in\n    tag_335:\n        /* \"#utility.yul\":16756:16789   */\n      swap2\n      pop\n        /* \"#utility.yul\":16811:16877   */\n      0xffffffffffffffffffffffffffffffffffffffffffffffffffffffffffffffff\n        /* \"#utility.yul\":16804:16809   */\n      dup3\n        /* \"#utility.yul\":16801:16878   */\n      sub\n        /* \"#utility.yul\":16798:16901   */\n      tag_336\n      jumpi\n        /* \"#utility.yul\":16881:16899   */\n      tag_337\n      tag_163\n      jump\t// in\n    tag_337:\n        /* \"#utility.yul\":16798:16901   */\n    tag_336:\n        /* \"#utility.yul\":16928:16929   */\n      0x01\n        /* \"#utility.yul\":16921:16926   */\n      dup3\n        /* \"#utility.yul\":16917:16930   */\n      add\n        /* \"#utility.yul\":16910:16930   */\n      swap1\n      pop\n        /* \"#utility.yul\":16703:16936   */\n      swap2\n      swap1\n      pop\n      jump\t// out\n        /* \"#utility.yul\":16942:17101   */\n    tag_164:\n        /* \"#utility.yul\":17082:17093   */\n      0x746f6f206c6f6e67210000000000000000000000000000000000000000000000\n        /* \"#utility.yul\":17078:17079   */\n      0x00\n        /* \"#utility.yul\":17070:17076   */\n      dup3\n        /* \"#utility.yul\":17066:17080   */\n      add\n        /* \"#utility.yul\":17059:17094   */\n      mstore\n        /* \"#utility.yul\":16942:17101   */\n      pop\n      jump\t// out\n        /* \"#utility.yul\":17107:17472   */\n    tag_165:\n        /* \"#utility.yul\":17249:17252   */\n      0x00\n        /* \"#utility.yul\":17270:17336   */\n      tag_340\n        /* \"#utility.yul\":17334:17335   */\n      0x09\n        /* \"#utility.yul\":17329:17332   */\n      dup4\n        /* \"#utility.yul\":17270:17336   */\n      tag_129\n      jump\t// in\n    tag_340:\n        /* \"#utility.yul\":17263:17336   */\n      swap2\n      pop\n        /* \"#utility.yul\":17345:17438   */\n      tag_341\n        /* \"#utility.yul\":17434:17437   */\n      dup3\n        /* \"#utility.yul\":17345:17438   */\n      tag_164\n      jump\t// in\n    tag_341:\n        /* \"#utility.yul\":17463:17465   */\n      0x20\n        /* \"#utility.yul\":17458:17461   */\n      dup3\n        /* \"#utility.yul\":17454:17466   */\n      add\n        /* \"#utility.yul\":17447:17466   */\n      swap1\n      pop\n        /* \"#utility.yul\":17107:17472   */\n      swap2\n      swap1\n      pop\n      jump\t// out\n        /* \"#utility.yul\":17478:17897   */\n    tag_92:\n        /* \"#utility.yul\":17644:17648   */\n      0x00\n        /* \"#utility.yul\":17682:17684   */\n      0x20\n        /* \"#utility.yul\":17671:17680   */\n      dup3\n        /* \"#utility.yul\":17667:17685   */\n      add\n        /* \"#utility.yul\":17659:17685   */\n      swap1\n      pop\n        /* \"#utility.yul\":17731:17740   */\n      dup2\n        /* \"#utility.yul\":17725:17729   */\n      dup2\n        /* \"#utility.yul\":17721:17741   */\n      sub\n        /* \"#utility.yul\":17717:17718   */\n      0x00\n        /* \"#utility.yul\":17706:17715   */\n      dup4\n        /* \"#utility.yul\":17702:17719   */\n      add\n        /* \"#utility.yul\":17695:17742   */\n      mstore\n        /* \"#utility.yul\":17759:17890   */\n      tag_343\n        /* \"#utility.yul\":17885:17889   */\n      dup2\n        /* \"#utility.yul\":17759:17890   */\n      tag_165\n      jump\t// in\n    tag_343:\n        /* \"#utility.yul\":17751:17890   */\n      swap1\n      pop\n        /* \"#utility.yul\":17478:17897   */\n      swap2\n      swap1\n      pop\n      jump\t// out\n        /* \"#utility.yul\":17903:18044   */\n    tag_166:\n        /* \"#utility.yul\":17952:17956   */\n      0x00\n        /* \"#utility.yul\":17975:17978   */\n      dup2\n        /* \"#utility.yul\":17967:17978   */\n      swap1\n      pop\n        /* \"#utility.yul\":17998:18001   */\n      dup2\n        /* \"#utility.yul\":17995:17996   */\n      0x00\n        /* \"#utility.yul\":17988:18002   */\n      mstore\n        /* \"#utility.yul\":18032:18036   */\n      0x20\n        /* \"#utility.yul\":18029:18030   */\n      0x00\n        /* \"#utility.yul\":18019:18037   */\n      keccak256\n        /* \"#utility.yul\":18011:18037   */\n      swap1\n      pop\n        /* \"#utility.yul\":17903:18044   */\n      swap2\n      swap1\n      pop\n      jump\t// out\n        /* \"#utility.yul\":18050:18143   */\n    tag_167:\n        /* \"#utility.yul\":18087:18093   */\n      0x00\n        /* \"#utility.yul\":18134:18136   */\n      0x20\n        /* \"#utility.yul\":18129:18131   */\n      0x1f\n        /* \"#utility.yul\":18122:18127   */\n      dup4\n        /* \"#utility.yul\":18118:18132   */\n      add\n        /* \"#utility.yul\":18114:18137   */\n      div\n        /* \"#utility.yul\":18104:18137   */\n      swap1\n      pop\n        /* \"#utility.yul\":18050:18143   */\n      swap2\n      swap1\n      pop\n      jump\t// out\n        /* \"#utility.yul\":18149:18256   */\n    tag_168:\n        /* \"#utility.yul\":18193:18201   */\n      0x00\n        /* \"#utility.yul\":18243:18248   */\n      dup3\n        /* \"#utility.yul\":18237:18241   */\n      dup3\n        /* \"#utility.yul\":18233:18249   */\n      shl\n        /* \"#utility.yul\":18212:18249   */\n      swap1\n      pop\n        /* \"#utility.yul\":18149:18256   */\n      swap3\n      swap2\n      pop\n      pop\n      jump\t// out\n        /* \"#utility.yul\":18262:18655   */\n    tag_169:\n        /* \"#utility.yul\":18331:18337   */\n      0x00\n        /* \"#utility.yul\":18381:18382   */\n      0x08\n        /* \"#utility.yul\":18369:18379   */\n      dup4\n        /* \"#utility.yul\":18365:18383   */\n      mul\n        /* \"#utility.yul\":18404:18501   */\n      tag_348\n        /* \"#utility.yul\":18434:18500   */\n      0xffffffffffffffffffffffffffffffffffffffffffffffffffffffffffffffff\n        /* \"#utility.yul\":18423:18432   */\n      dup3\n        /* \"#utility.yul\":18404:18501   */\n      tag_168\n      jump\t// in\n    tag_348:\n        /* \"#utility.yul\":18522:18561   */\n      tag_349\n        /* \"#utility.yul\":18552:18560   */\n      dup7\n        /* \"#utility.yul\":18541:18550   */\n      dup4\n        /* \"#utility.yul\":18522:18561   */\n      tag_168\n      jump\t// in\n    tag_349:\n        /* \"#utility.yul\":18510:18561   */\n      swap6\n      pop\n        /* \"#utility.yul\":18594:18598   */\n      dup1\n        /* \"#utility.yul\":18590:18599   */\n      not\n        /* \"#utility.yul\":18583:18588   */\n      dup5\n        /* \"#utility.yul\":18579:18600   */\n      and\n        /* \"#utility.yul\":18570:18600   */\n      swap4\n      pop\n        /* \"#utility.yul\":18643:18647   */\n      dup1\n        /* \"#utility.yul\":18633:18641   */\n      dup7\n        /* \"#utility.yul\":18629:18648   */\n      and\n        /* \"#utility.yul\":18622:18627   */\n      dup5\n        /* \"#utility.yul\":18619:18649   */\n      or\n        /* \"#utility.yul\":18609:18649   */\n      swap3\n      pop\n        /* \"#utility.yul\":18338:18655   */\n      pop\n      pop\n        /* \"#utility.yul\":18262:18655   */\n      swap4\n      swap3\n      pop\n      pop\n      pop\n      jump\t// out\n        /* \"#utility.yul\":18661:18721   */\n    tag_170:\n        /* \"#utility.yul\":18689:18692   */\n      0x00\n        /* \"#utility.yul\":18710:18715   */\n      dup2\n        /* \"#utility.yul\":18703:18715   */\n      swap1\n      pop\n        /* \"#utility.yul\":18661:18721   */\n      swap2\n      swap1\n      pop\n      jump\t// out\n        /* \"#utility.yul\":18727:18869   */\n    tag_171:\n        /* \"#utility.yul\":18777:18786   */\n      0x00\n        /* \"#utility.yul\":18810:18863   */\n      tag_352\n        /* \"#utility.yul\":18828:18862   */\n      tag_353\n        /* \"#utility.yul\":18837:18861   */\n      tag_354\n        /* \"#utility.yul\":18855:18860   */\n      dup5\n        /* \"#utility.yul\":18837:18861   */\n      tag_123\n      jump\t// in\n    tag_354:\n        /* \"#utility.yul\":18828:18862   */\n      tag_170\n      jump\t// in\n    tag_353:\n        /* \"#utility.yul\":18810:18863   */\n      tag_123\n      jump\t// in\n    tag_352:\n        /* \"#utility.yul\":18797:18863   */\n      swap1\n      pop\n        /* \"#utility.yul\":18727:18869   */\n      swap2\n      swap1\n      pop\n      jump\t// out\n        /* \"#utility.yul\":18875:18950   */\n    tag_172:\n        /* \"#utility.yul\":18918:18921   */\n      0x00\n        /* \"#utility.yul\":18939:18944   */\n      dup2\n        /* \"#utility.yul\":18932:18944   */\n      swap1\n      pop\n        /* \"#utility.yul\":18875:18950   */\n      swap2\n      swap1\n      pop\n      jump\t// out\n        /* \"#utility.yul\":18956:19225   */\n    tag_173:\n        /* \"#utility.yul\":19066:19105   */\n      tag_357\n        /* \"#utility.yul\":19097:19104   */\n      dup4\n        /* \"#utility.yul\":19066:19105   */\n      tag_171\n      jump\t// in\n    tag_357:\n        /* \"#utility.yul\":19127:19218   */\n      tag_358\n        /* \"#utility.yul\":19176:19217   */\n      tag_359\n        /* \"#utility.yul\":19200:19216   */\n      dup3\n        /* \"#utility.yul\":19176:19217   */\n      tag_172\n      jump\t// in\n    tag_359:\n        /* \"#utility.yul\":19168:19174   */\n      dup5\n        /* \"#utility.yul\":19161:19165   */\n      dup5\n        /* \"#utility.yul\":19155:19166   */\n      sload\n        /* \"#utility.yul\":19127:19218   */\n      tag_169\n      jump\t// in\n    tag_358:\n        /* \"#utility.yul\":19121:19125   */\n      dup3\n        /* \"#utility.yul\":19114:19219   */\n      sstore\n        /* \"#utility.yul\":19032:19225   */\n      pop\n        /* \"#utility.yul\":18956:19225   */\n      pop\n      pop\n      pop\n      jump\t// out\n        /* \"#utility.yul\":19231:19304   */\n    tag_174:\n        /* \"#utility.yul\":19276:19279   */\n      0x00\n        /* \"#utility.yul\":19231:19304   */\n      swap1\n      jump\t// out\n        /* \"#utility.yul\":19310:19499   */\n    tag_175:\n        /* \"#utility.yul\":19387:19419   */\n      tag_362\n      tag_174\n      jump\t// in\n    tag_362:\n        /* \"#utility.yul\":19428:19493   */\n      tag_363\n        /* \"#utility.yul\":19486:19492   */\n      dup2\n        /* \"#utility.yul\":19478:19484   */\n      dup5\n        /* \"#utility.yul\":19472:19476   */\n      dup5\n        /* \"#utility.yul\":19428:19493   */\n      tag_173\n      jump\t// in\n    tag_363:\n        /* \"#utility.yul\":19363:19499   */\n      pop\n        /* \"#utility.yul\":19310:19499   */\n      pop\n      pop\n      jump\t// out\n        /* \"#utility.yul\":19505:19691   */\n    tag_176:\n        /* \"#utility.yul\":19565:19685   */\n    tag_365:\n        /* \"#utility.yul\":19582:19585   */\n      dup2\n        /* \"#utility.yul\":19575:19580   */\n      dup2\n        /* \"#utility.yul\":19572:19586   */\n      lt\n        /* \"#utility.yul\":19565:19685   */\n      iszero\n      tag_367\n      jumpi\n        /* \"#utility.yul\":19636:19675   */\n      tag_368\n        /* \"#utility.yul\":19673:19674   */\n      0x00\n        /* \"#utility.yul\":19666:19671   */\n      dup3\n        /* \"#utility.yul\":19636:19675   */\n      tag_175\n      jump\t// in\n    tag_368:\n        /* \"#utility.yul\":19609:19610   */\n      0x01\n        /* \"#utility.yul\":19602:19607   */\n      dup2\n        /* \"#utility.yul\":19598:19611   */\n      add\n        /* \"#utility.yul\":19589:19611   */\n      swap1\n      pop\n        /* \"#utility.yul\":19565:19685   */\n      jump(tag_365)\n    tag_367:\n        /* \"#utility.yul\":19505:19691   */\n      pop\n      pop\n      jump\t// out\n        /* \"#utility.yul\":19697:20240   */\n    tag_177:\n        /* \"#utility.yul\":19798:19800   */\n      0x1f\n        /* \"#utility.yul\":19793:19796   */\n      dup3\n        /* \"#utility.yul\":19790:19801   */\n      gt\n        /* \"#utility.yul\":19787:20233   */\n      iszero\n      tag_370\n      jumpi\n        /* \"#utility.yul\":19832:19870   */\n      tag_371\n        /* \"#utility.yul\":19864:19869   */\n      dup2\n        /* \"#utility.yul\":19832:19870   */\n      tag_166\n      jump\t// in\n    tag_371:\n        /* \"#utility.yul\":19916:19945   */\n      tag_372\n        /* \"#utility.yul\":19934:19944   */\n      dup5\n        /* \"#utility.yul\":19916:19945   */\n      tag_167\n      jump\t// in\n    tag_372:\n        /* \"#utility.yul\":19906:19914   */\n      dup2\n        /* \"#utility.yul\":19902:19946   */\n      add\n        /* \"#utility.yul\":20099:20101   */\n      0x20\n        /* \"#utility.yul\":20087:20097   */\n      dup6\n        /* \"#utility.yul\":20084:20102   */\n      lt\n        /* \"#utility.yul\":20081:20130   */\n      iszero\n      tag_373\n      jumpi\n        /* \"#utility.yul\":20120:20128   */\n      dup2\n        /* \"#utility.yul\":20105:20128   */\n      swap1\n      pop\n        /* \"#utility.yul\":20081:20130   */\n    tag_373:\n        /* \"#utility.yul\":20143:20223   */\n      tag_374\n        /* \"#utility.yul\":20199:20221   */\n      tag_375\n        /* \"#utility.yul\":20217:20220   */\n      dup6\n        /* \"#utility.yul\":20199:20221   */\n      tag_167\n      jump\t// in\n    tag_375:\n        /* \"#utility.yul\":20189:20197   */\n      dup4\n        /* \"#utility.yul\":20185:20222   */\n      add\n        /* \"#utility.yul\":20172:20183   */\n      dup3\n        /* \"#utility.yul\":20143:20223   */\n      tag_176\n      jump\t// in\n    tag_374:\n        /* \"#utility.yul\":19802:20233   */\n      pop\n      pop\n        /* \"#utility.yul\":19787:20233   */\n    tag_370:\n        /* \"#utility.yul\":19697:20240   */\n      pop\n      pop\n      pop\n      jump\t// out\n        /* \"#utility.yul\":20246:20363   */\n    tag_178:\n        /* \"#utility.yul\":20300:20308   */\n      0x00\n        /* \"#utility.yul\":20350:20355   */\n      dup3\n        /* \"#utility.yul\":20344:20348   */\n      dup3\n        /* \"#utility.yul\":20340:20356   */\n      shr\n        /* \"#utility.yul\":20319:20356   */\n      swap1\n      pop\n        /* \"#utility.yul\":20246:20363   */\n      swap3\n      swap2\n      pop\n      pop\n      jump\t// out\n        /* \"#utility.yul\":20369:20538   */\n    tag_179:\n        /* \"#utility.yul\":20413:20419   */\n      0x00\n        /* \"#utility.yul\":20446:20497   */\n      tag_378\n        /* \"#utility.yul\":20494:20495   */\n      0x00\n        /* \"#utility.yul\":20490:20496   */\n      not\n        /* \"#utility.yul\":20482:20487   */\n      dup5\n        /* \"#utility.yul\":20479:20480   */\n      0x08\n        /* \"#utility.yul\":20475:20488   */\n      mul\n        /* \"#utility.yul\":20446:20497   */\n      tag_178\n      jump\t// in\n    tag_378:\n        /* \"#utility.yul\":20442:20498   */\n      not\n        /* \"#utility.yul\":20527:20531   */\n      dup1\n        /* \"#utility.yul\":20521:20525   */\n      dup4\n        /* \"#utility.yul\":20517:20532   */\n      and\n        /* \"#utility.yul\":20507:20532   */\n      swap2\n      pop\n        /* \"#utility.yul\":20420:20538   */\n      pop\n        /* \"#utility.yul\":20369:20538   */\n      swap3\n      swap2\n      pop\n      pop\n      jump\t// out\n        /* \"#utility.yul\":20543:20838   */\n    tag_180:\n        /* \"#utility.yul\":20619:20623   */\n      0x00\n        /* \"#utility.yul\":20765:20794   */\n      tag_380\n        /* \"#utility.yul\":20790:20793   */\n      dup4\n        /* \"#utility.yul\":20784:20788   */\n      dup4\n        /* \"#utility.yul\":20765:20794   */\n      tag_179\n      jump\t// in\n    tag_380:\n        /* \"#utility.yul\":20757:20794   */\n      swap2\n      pop\n        /* \"#utility.yul\":20827:20830   */\n      dup3\n        /* \"#utility.yul\":20824:20825   */\n      0x02\n        /* \"#utility.yul\":20820:20831   */\n      mul\n        /* \"#utility.yul\":20814:20818   */\n      dup3\n        /* \"#utility.yul\":20811:20832   */\n      or\n        /* \"#utility.yul\":20803:20832   */\n      swap1\n      pop\n        /* \"#utility.yul\":20543:20838   */\n      swap3\n      swap2\n      pop\n      pop\n      jump\t// out\n        /* \"#utility.yul\":20843:22238   */\n    tag_95:\n        /* \"#utility.yul\":20960:20997   */\n      tag_382\n        /* \"#utility.yul\":20993:20996   */\n      dup3\n        /* \"#utility.yul\":20960:20997   */\n      tag_128\n      jump\t// in\n    tag_382:\n        /* \"#utility.yul\":21062:21080   */\n      0xffffffffffffffff\n        /* \"#utility.yul\":21054:21060   */\n      dup2\n        /* \"#utility.yul\":21051:21081   */\n      gt\n        /* \"#utility.yul\":21048:21104   */\n      iszero\n      tag_383\n      jumpi\n        /* \"#utility.yul\":21084:21102   */\n      tag_384\n      tag_144\n      jump\t// in\n    tag_384:\n        /* \"#utility.yul\":21048:21104   */\n    tag_383:\n        /* \"#utility.yul\":21128:21166   */\n      tag_385\n        /* \"#utility.yul\":21160:21164   */\n      dup3\n        /* \"#utility.yul\":21154:21165   */\n      sload\n        /* \"#utility.yul\":21128:21166   */\n      tag_55\n      jump\t// in\n    tag_385:\n        /* \"#utility.yul\":21213:21280   */\n      tag_386\n        /* \"#utility.yul\":21273:21279   */\n      dup3\n        /* \"#utility.yul\":21265:21271   */\n      dup3\n        /* \"#utility.yul\":21259:21263   */\n      dup6\n        /* \"#utility.yul\":21213:21280   */\n      tag_177\n      jump\t// in\n    tag_386:\n        /* \"#utility.yul\":21307:21308   */\n      0x00\n        /* \"#utility.yul\":21331:21335   */\n      0x20\n        /* \"#utility.yul\":21318:21335   */\n      swap1\n      pop\n        /* \"#utility.yul\":21363:21365   */\n      0x1f\n        /* \"#utility.yul\":21355:21361   */\n      dup4\n        /* \"#utility.yul\":21352:21366   */\n      gt\n        /* \"#utility.yul\":21380:21381   */\n      0x01\n        /* \"#utility.yul\":21375:21993   */\n      dup2\n      eq\n      tag_388\n      jumpi\n        /* \"#utility.yul\":22037:22038   */\n      0x00\n        /* \"#utility.yul\":22054:22060   */\n      dup5\n        /* \"#utility.yul\":22051:22128   */\n      iszero\n      tag_389\n      jumpi\n        /* \"#utility.yul\":22103:22112   */\n      dup3\n        /* \"#utility.yul\":22098:22101   */\n      dup8\n        /* \"#utility.yul\":22094:22113   */\n      add\n        /* \"#utility.yul\":22088:22114   */\n      mload\n        /* \"#utility.yul\":22079:22114   */\n      swap1\n      pop\n        /* \"#utility.yul\":22051:22128   */\n    tag_389:\n        /* \"#utility.yul\":22154:22221   */\n      tag_390\n        /* \"#utility.yul\":22214:22220   */\n      dup6\n        /* \"#utility.yul\":22207:22212   */\n      dup3\n        /* \"#utility.yul\":22154:22221   */\n      tag_180\n      jump\t// in\n    tag_390:\n        /* \"#utility.yul\":22148:22152   */\n      dup7\n        /* \"#utility.yul\":22141:22222   */\n      sstore\n        /* \"#utility.yul\":22010:22232   */\n      pop\n        /* \"#utility.yul\":21345:22232   */\n      jump(tag_387)\n        /* \"#utility.yul\":21375:21993   */\n    tag_388:\n        /* \"#utility.yul\":21427:21431   */\n      0x1f\n        /* \"#utility.yul\":21423:21432   */\n      not\n        /* \"#utility.yul\":21415:21421   */\n      dup5\n        /* \"#utility.yul\":21411:21433   */\n      and\n        /* \"#utility.yul\":21461:21498   */\n      tag_391\n        /* \"#utility.yul\":21493:21497   */\n      dup7\n        /* \"#utility.yul\":21461:21498   */\n      tag_166\n      jump\t// in\n    tag_391:\n        /* \"#utility.yul\":21520:21521   */\n      0x00\n        /* \"#utility.yul\":21534:21742   */\n    tag_392:\n        /* \"#utility.yul\":21548:21555   */\n      dup3\n        /* \"#utility.yul\":21545:21546   */\n      dup2\n        /* \"#utility.yul\":21542:21556   */\n      lt\n        /* \"#utility.yul\":21534:21742   */\n      iszero\n      tag_394\n      jumpi\n        /* \"#utility.yul\":21627:21636   */\n      dup5\n        /* \"#utility.yul\":21622:21625   */\n      dup10\n        /* \"#utility.yul\":21618:21637   */\n      add\n        /* \"#utility.yul\":21612:21638   */\n      mload\n        /* \"#utility.yul\":21604:21610   */\n      dup3\n        /* \"#utility.yul\":21597:21639   */\n      sstore\n        /* \"#utility.yul\":21678:21679   */\n      0x01\n        /* \"#utility.yul\":21670:21676   */\n      dup3\n        /* \"#utility.yul\":21666:21680   */\n      add\n        /* \"#utility.yul\":21656:21680   */\n      swap2\n      pop\n        /* \"#utility.yul\":21725:21727   */\n      0x20\n        /* \"#utility.yul\":21714:21723   */\n      dup6\n        /* \"#utility.yul\":21710:21728   */\n      add\n        /* \"#utility.yul\":21697:21728   */\n      swap5\n      pop\n        /* \"#utility.yul\":21571:21575   */\n      0x20\n        /* \"#utility.yul\":21568:21569   */\n      dup2\n        /* \"#utility.yul\":21564:21576   */\n      add\n        /* \"#utility.yul\":21559:21576   */\n      swap1\n      pop\n        /* \"#utility.yul\":21534:21742   */\n      jump(tag_392)\n    tag_394:\n        /* \"#utility.yul\":21770:21776   */\n      dup7\n        /* \"#utility.yul\":21761:21768   */\n      dup4\n        /* \"#utility.yul\":21758:21777   */\n      lt\n        /* \"#utility.yul\":21755:21934   */\n      iszero\n      tag_395\n      jumpi\n        /* \"#utility.yul\":21828:21837   */\n      dup5\n        /* \"#utility.yul\":21823:21826   */\n      dup10\n        /* \"#utility.yul\":21819:21838   */\n      add\n        /* \"#utility.yul\":21813:21839   */\n      mload\n        /* \"#utility.yul\":21871:21919   */\n      tag_396\n        /* \"#utility.yul\":21913:21917   */\n      0x1f\n        /* \"#utility.yul\":21905:21911   */\n      dup10\n        /* \"#utility.yul\":21901:21918   */\n      and\n        /* \"#utility.yul\":21890:21899   */\n      dup3\n        /* \"#utility.yul\":21871:21919   */\n      tag_179\n      jump\t// in\n    tag_396:\n        /* \"#utility.yul\":21863:21869   */\n      dup4\n        /* \"#utility.yul\":21856:21920   */\n      sstore\n        /* \"#utility.yul\":21778:21934   */\n      pop\n        /* \"#utility.yul\":21755:21934   */\n    tag_395:\n        /* \"#utility.yul\":21980:21981   */\n      0x01\n        /* \"#utility.yul\":21976:21977   */\n      0x02\n        /* \"#utility.yul\":21968:21974   */\n      dup9\n        /* \"#utility.yul\":21964:21978   */\n      mul\n        /* \"#utility.yul\":21960:21982   */\n      add\n        /* \"#utility.yul\":21954:21958   */\n      dup9\n        /* \"#utility.yul\":21947:21983   */\n      sstore\n        /* \"#utility.yul\":21382:21993   */\n      pop\n      pop\n      pop\n        /* \"#utility.yul\":21345:22232   */\n    tag_387:\n      pop\n        /* \"#utility.yul\":20935:22238   */\n      pop\n      pop\n      pop\n        /* \"#utility.yul\":20843:22238   */\n      pop\n      pop\n      jump\t// out\n        /* \"#utility.yul\":22244:22415   */\n    tag_106:\n        /* \"#utility.yul\":22283:22286   */\n      0x00\n        /* \"#utility.yul\":22306:22330   */\n      tag_398\n        /* \"#utility.yul\":22324:22329   */\n      dup3\n        /* \"#utility.yul\":22306:22330   */\n      tag_123\n      jump\t// in\n    tag_398:\n        /* \"#utility.yul\":22297:22330   */\n      swap2\n      pop\n        /* \"#utility.yul\":22352:22356   */\n      0x00\n        /* \"#utility.yul\":22345:22350   */\n      dup3\n        /* \"#utility.yul\":22342:22357   */\n      sub\n        /* \"#utility.yul\":22339:22380   */\n      tag_399\n      jumpi\n        /* \"#utility.yul\":22360:22378   */\n      tag_400\n      tag_163\n      jump\t// in\n    tag_400:\n        /* \"#utility.yul\":22339:22380   */\n    tag_399:\n        /* \"#utility.yul\":22407:22408   */\n      0x01\n        /* \"#utility.yul\":22400:22405   */\n      dup3\n        /* \"#utility.yul\":22396:22409   */\n      sub\n        /* \"#utility.yul\":22389:22409   */\n      swap1\n      pop\n        /* \"#utility.yul\":22244:22415   */\n      swap2\n      swap1\n      pop\n      jump\t// out\n\n    auxdata: 0xa2646970667358221220d06da5bfb0066c373480533d2a24ff541d3521cbfb108707ee29c9fba15b664064736f6c634300081a0033\n}\n",
				"bytecode": {
					"linkReferences": {},
					"object": "608060405260645f806101000a81548161ffff021916908361ffff160217905550348015602a575f80fd5b503360025f6101000a81548173ffffffffffffffffffffffffffffffffffffffff021916908373ffffffffffffffffffffffffffffffffffffffff16021790555061164f806100785f395ff3fe608060405234801561000f575f80fd5b5060043610610091575f3560e01c806363a7c3aa1161006457806363a7c3aa146101315780637c9cd2bc1461014f5780638da5cb5b1461016b578063ae775e9514610189578063b64988b8146101a557610091565b806305a1b4a914610095578063112f54e3146100c957806358bfa4ab146100f95780636337821614610115575b5f80fd5b6100af60048036038101906100aa9190610b7e565b6101d5565b6040516100c0959493929190610c4a565b60405180910390f35b6100e360048036038101906100de9190610b7e565b6102c6565b6040516100f09190610d7b565b60405180910390f35b610113600480360381019061010e9190610dd2565b61043e565b005b61012f600480360381019061012a9190610b7e565b6104eb565b005b610139610601565b6040516101469190610e0c565b60405180910390f35b61016960048036038101906101649190610f51565b610612565b005b6101736107c9565b6040516101809190610f98565b60405180910390f35b6101a3600480360381019061019e9190610b7e565b6107ee565b005b6101bf60048036038101906101ba9190610fb1565b610904565b6040516101cc919061110a565b60405180910390f35b6001602052815f5260405f2081815481106101ee575f80fd5b905f5260205f2090600502015f9150915050805f015490806001015f9054906101000a900473ffffffffffffffffffffffffffffffffffffffff169080600201805461023990611157565b80601f016020809104026020016040519081016040528092919081815260200182805461026590611157565b80156102b05780601f10610287576101008083540402835291602001916102b0565b820191905f5260205f20905b81548152906001019060200180831161029357829003601f168201915b5050505050908060030154908060040154905085565b6102ce610a9f565b60015f8473ffffffffffffffffffffffffffffffffffffffff1673ffffffffffffffffffffffffffffffffffffffff1681526020019081526020015f20828154811061031d5761031c611187565b5b905f5260205f2090600502016040518060a00160405290815f8201548152602001600182015f9054906101000a900473ffffffffffffffffffffffffffffffffffffffff1673ffffffffffffffffffffffffffffffffffffffff1673ffffffffffffffffffffffffffffffffffffffff1681526020016002820180546103a290611157565b80601f01602080910402602001604051908101604052809291908181526020018280546103ce90611157565b80156104195780601f106103f057610100808354040283529160200191610419565b820191905f5260205f20905b8154815290600101906020018083116103fc57829003601f168201915b5050505050815260200160038201548152602001600482015481525050905092915050565b60025f9054906101000a900473ffffffffffffffffffffffffffffffffffffffff1673ffffffffffffffffffffffffffffffffffffffff163373ffffffffffffffffffffffffffffffffffffffff16146104cd576040517f08c379a00000000000000000000000000000000000000000000000000000000081526004016104c490611224565b60405180910390fd5b805f806101000a81548161ffff021916908361ffff16021790555050565b8060015f8473ffffffffffffffffffffffffffffffffffffffff1673ffffffffffffffffffffffffffffffffffffffff1681526020019081526020015f20828154811061053b5761053a611187565b5b905f5260205f2090600502015f01541461058a576040517f08c379a00000000000000000000000000000000000000000000000000000000081526004016105819061128c565b60405180910390fd5b60015f8373ffffffffffffffffffffffffffffffffffffffff1673ffffffffffffffffffffffffffffffffffffffff1681526020019081526020015f2081815481106105d9576105d8611187565b5b905f5260205f2090600502016004015f8154809291906105f8906112d7565b91905055505050565b5f8054906101000a900461ffff1681565b5f8054906101000a900461ffff1661ffff1681511115610667576040517f08c379a000000000000000000000000000000000000000000000000000000000815260040161065e90611368565b60405180910390fd5b5f6040518060a0016040528060015f3373ffffffffffffffffffffffffffffffffffffffff1673ffffffffffffffffffffffffffffffffffffffff1681526020019081526020015f208054905081526020013373ffffffffffffffffffffffffffffffffffffffff1681526020018381526020014281526020015f815250905060015f3373ffffffffffffffffffffffffffffffffffffffff1673ffffffffffffffffffffffffffffffffffffffff1681526020019081526020015f2081908060018154018082558091505060019003905f5260205f2090600502015f909190919091505f820151815f01556020820151816001015f6101000a81548173ffffffffffffffffffffffffffffffffffffffff021916908373ffffffffffffffffffffffffffffffffffffffff16021790555060408201518160020190816107ae9190611523565b50606082015181600301556080820151816004015550505050565b60025f9054906101000a900473ffffffffffffffffffffffffffffffffffffffff1681565b8060015f8473ffffffffffffffffffffffffffffffffffffffff1673ffffffffffffffffffffffffffffffffffffffff1681526020019081526020015f20828154811061083e5761083d611187565b5b905f5260205f2090600502015f01541461088d576040517f08c379a00000000000000000000000000000000000000000000000000000000081526004016108849061128c565b60405180910390fd5b60015f8373ffffffffffffffffffffffffffffffffffffffff1673ffffffffffffffffffffffffffffffffffffffff1681526020019081526020015f2081815481106108dc576108db611187565b5b905f5260205f2090600502016004015f8154809291906108fb906115f2565b91905055505050565b606060015f8373ffffffffffffffffffffffffffffffffffffffff1673ffffffffffffffffffffffffffffffffffffffff1681526020019081526020015f20805480602002602001604051908101604052809291908181526020015f905b82821015610a94578382905f5260205f2090600502016040518060a00160405290815f8201548152602001600182015f9054906101000a900473ffffffffffffffffffffffffffffffffffffffff1673ffffffffffffffffffffffffffffffffffffffff1673ffffffffffffffffffffffffffffffffffffffff1681526020016002820180546109f190611157565b80601f0160208091040260200160405190810160405280929190818152602001828054610a1d90611157565b8015610a685780601f10610a3f57610100808354040283529160200191610a68565b820191905f5260205f20905b815481529060010190602001808311610a4b57829003601f168201915b505050505081526020016003820154815260200160048201548152505081526020019060010190610962565b505050509050919050565b6040518060a001604052805f81526020015f73ffffffffffffffffffffffffffffffffffffffff168152602001606081526020015f81526020015f81525090565b5f604051905090565b5f80fd5b5f80fd5b5f73ffffffffffffffffffffffffffffffffffffffff82169050919050565b5f610b1a82610af1565b9050919050565b610b2a81610b10565b8114610b34575f80fd5b50565b5f81359050610b4581610b21565b92915050565b5f819050919050565b610b5d81610b4b565b8114610b67575f80fd5b50565b5f81359050610b7881610b54565b92915050565b5f8060408385031215610b9457610b93610ae9565b5b5f610ba185828601610b37565b9250506020610bb285828601610b6a565b9150509250929050565b610bc581610b4b565b82525050565b610bd481610b10565b82525050565b5f81519050919050565b5f82825260208201905092915050565b8281835e5f83830152505050565b5f601f19601f8301169050919050565b5f610c1c82610bda565b610c268185610be4565b9350610c36818560208601610bf4565b610c3f81610c02565b840191505092915050565b5f60a082019050610c5d5f830188610bbc565b610c6a6020830187610bcb565b8181036040830152610c7c8186610c12565b9050610c8b6060830185610bbc565b610c986080830184610bbc565b9695505050505050565b610cab81610b4b565b82525050565b610cba81610b10565b82525050565b5f82825260208201905092915050565b5f610cda82610bda565b610ce48185610cc0565b9350610cf4818560208601610bf4565b610cfd81610c02565b840191505092915050565b5f60a083015f830151610d1d5f860182610ca2565b506020830151610d306020860182610cb1565b5060408301518482036040860152610d488282610cd0565b9150506060830151610d5d6060860182610ca2565b506080830151610d706080860182610ca2565b508091505092915050565b5f6020820190508181035f830152610d938184610d08565b905092915050565b5f61ffff82169050919050565b610db181610d9b565b8114610dbb575f80fd5b50565b5f81359050610dcc81610da8565b92915050565b5f60208284031215610de757610de6610ae9565b5b5f610df484828501610dbe565b91505092915050565b610e0681610d9b565b82525050565b5f602082019050610e1f5f830184610dfd565b92915050565b5f80fd5b5f80fd5b7f4e487b71000000000000000000000000000000000000000000000000000000005f52604160045260245ffd5b610e6382610c02565b810181811067ffffffffffffffff82111715610e8257610e81610e2d565b5b80604052505050565b5f610e94610ae0565b9050610ea08282610e5a565b919050565b5f67ffffffffffffffff821115610ebf57610ebe610e2d565b5b610ec882610c02565b9050602081019050919050565b828183375f83830152505050565b5f610ef5610ef084610ea5565b610e8b565b905082815260208101848484011115610f1157610f10610e29565b5b610f1c848285610ed5565b509392505050565b5f82601f830112610f3857610f37610e25565b5b8135610f48848260208601610ee3565b91505092915050565b5f60208284031215610f6657610f65610ae9565b5b5f82013567ffffffffffffffff811115610f8357610f82610aed565b5b610f8f84828501610f24565b91505092915050565b5f602082019050610fab5f830184610bcb565b92915050565b5f60208284031215610fc657610fc5610ae9565b5b5f610fd384828501610b37565b91505092915050565b5f81519050919050565b5f82825260208201905092915050565b5f819050602082019050919050565b5f60a083015f83015161101a5f860182610ca2565b50602083015161102d6020860182610cb1565b50604083015184820360408601526110458282610cd0565b915050606083015161105a6060860182610ca2565b50608083015161106d6080860182610ca2565b508091505092915050565b5f6110838383611005565b905092915050565b5f602082019050919050565b5f6110a182610fdc565b6110ab8185610fe6565b9350836020820285016110bd85610ff6565b805f5b858110156110f857848403895281516110d98582611078565b94506110e48361108b565b925060208a019950506001810190506110c0565b50829750879550505050505092915050565b5f6020820190508181035f8301526111228184611097565b905092915050565b7f4e487b71000000000000000000000000000000000000000000000000000000005f52602260045260245ffd5b5f600282049050600182168061116e57607f821691505b6020821081036111815761118061112a565b5b50919050565b7f4e487b71000000000000000000000000000000000000000000000000000000005f52603260045260245ffd5b7f796f7520617265206e6f7420746865206f776e6572206f662074686520636f6e5f8201527f7472616374210000000000000000000000000000000000000000000000000000602082015250565b5f61120e602683610be4565b9150611219826111b4565b604082019050919050565b5f6020820190508181035f83015261123b81611202565b9050919050565b7f747765657420646f65736e2774206578697374000000000000000000000000005f82015250565b5f611276601383610be4565b915061128182611242565b602082019050919050565b5f6020820190508181035f8301526112a38161126a565b9050919050565b7f4e487b71000000000000000000000000000000000000000000000000000000005f52601160045260245ffd5b5f6112e182610b4b565b91507fffffffffffffffffffffffffffffffffffffffffffffffffffffffffffffffff8203611313576113126112aa565b5b600182019050919050565b7f746f6f206c6f6e672100000000000000000000000000000000000000000000005f82015250565b5f611352600983610be4565b915061135d8261131e565b602082019050919050565b5f6020820190508181035f83015261137f81611346565b9050919050565b5f819050815f5260205f209050919050565b5f6020601f8301049050919050565b5f82821b905092915050565b5f600883026113e27fffffffffffffffffffffffffffffffffffffffffffffffffffffffffffffffff826113a7565b6113ec86836113a7565b95508019841693508086168417925050509392505050565b5f819050919050565b5f61142761142261141d84610b4b565b611404565b610b4b565b9050919050565b5f819050919050565b6114408361140d565b61145461144c8261142e565b8484546113b3565b825550505050565b5f90565b61146861145c565b611473818484611437565b505050565b5b818110156114965761148b5f82611460565b600181019050611479565b5050565b601f8211156114db576114ac81611386565b6114b584611398565b810160208510156114c4578190505b6114d86114d085611398565b830182611478565b50505b505050565b5f82821c905092915050565b5f6114fb5f19846008026114e0565b1980831691505092915050565b5f61151383836114ec565b9150826002028217905092915050565b61152c82610bda565b67ffffffffffffffff81111561154557611544610e2d565b5b61154f8254611157565b61155a82828561149a565b5f60209050601f83116001811461158b575f8415611579578287015190505b6115838582611508565b8655506115ea565b601f19841661159986611386565b5f5b828110156115c05784890151825560018201915060208501945060208101905061159b565b868310156115dd57848901516115d9601f8916826114ec565b8355505b6001600288020188555050505b505050505050565b5f6115fc82610b4b565b91505f820361160e5761160d6112aa565b5b60018203905091905056fea2646970667358221220d06da5bfb0066c373480533d2a24ff541d3521cbfb108707ee29c9fba15b664064736f6c634300081a0033",
					"opcodes": "PUSH1 0x80 PUSH1 0x40 MSTORE PUSH1 0x64 PUSH0 DUP1 PUSH2 0x100 EXP DUP2 SLOAD DUP2 PUSH2 0xFFFF MUL NOT AND SWAP1 DUP4 PUSH2 0xFFFF AND MUL OR SWAP1 SSTORE POP CALLVALUE DUP1 ISZERO PUSH1 0x2A JUMPI PUSH0 DUP1 REVERT JUMPDEST POP CALLER PUSH1 0x2 PUSH0 PUSH2 0x100 EXP DUP2 SLOAD DUP2 PUSH20 0xFFFFFFFFFFFFFFFFFFFFFFFFFFFFFFFFFFFFFFFF MUL NOT AND SWAP1 DUP4 PUSH20 0xFFFFFFFFFFFFFFFFFFFFFFFFFFFFFFFFFFFFFFFF AND MUL OR SWAP1 SSTORE POP PUSH2 0x164F DUP1 PUSH2 0x78 PUSH0 CODECOPY PUSH0 RETURN INVALID PUSH1 0x80 PUSH1 0x40 MSTORE CALLVALUE DUP1 ISZERO PUSH2 0xF JUMPI PUSH0 DUP1 REVERT JUMPDEST POP PUSH1 0x4 CALLDATASIZE LT PUSH2 0x91 JUMPI PUSH0 CALLDATALOAD PUSH1 0xE0 SHR DUP1 PUSH4 0x63A7C3AA GT PUSH2 0x64 JUMPI DUP1 PUSH4 0x63A7C3AA EQ PUSH2 0x131 JUMPI DUP1 PUSH4 0x7C9CD2BC EQ PUSH2 0x14F JUMPI DUP1 PUSH4 0x8DA5CB5B EQ PUSH2 0x16B JUMPI DUP1 PUSH4 0xAE775E95 EQ PUSH2 0x189 JUMPI DUP1 PUSH4 0xB64988B8 EQ PUSH2 0x1A5 JUMPI PUSH2 0x91 JUMP JUMPDEST DUP1 PUSH4 0x5A1B4A9 EQ PUSH2 0x95 JUMPI DUP1 PUSH4 0x112F54E3 EQ PUSH2 0xC9 JUMPI DUP1 PUSH4 0x58BFA4AB EQ PUSH2 0xF9 JUMPI DUP1 PUSH4 0x63378216 EQ PUSH2 0x115 JUMPI JUMPDEST PUSH0 DUP1 REVERT JUMPDEST PUSH2 0xAF PUSH1 0x4 DUP1 CALLDATASIZE SUB DUP2 ADD SWAP1 PUSH2 0xAA SWAP2 SWAP1 PUSH2 0xB7E JUMP JUMPDEST PUSH2 0x1D5 JUMP JUMPDEST PUSH1 0x40 MLOAD PUSH2 0xC0 SWAP6 SWAP5 SWAP4 SWAP3 SWAP2 SWAP1 PUSH2 0xC4A JUMP JUMPDEST PUSH1 0x40 MLOAD DUP1 SWAP2 SUB SWAP1 RETURN JUMPDEST PUSH2 0xE3 PUSH1 0x4 DUP1 CALLDATASIZE SUB DUP2 ADD SWAP1 PUSH2 0xDE SWAP2 SWAP1 PUSH2 0xB7E JUMP JUMPDEST PUSH2 0x2C6 JUMP JUMPDEST PUSH1 0x40 MLOAD PUSH2 0xF0 SWAP2 SWAP1 PUSH2 0xD7B JUMP JUMPDEST PUSH1 0x40 MLOAD DUP1 SWAP2 SUB SWAP1 RETURN JUMPDEST PUSH2 0x113 PUSH1 0x4 DUP1 CALLDATASIZE SUB DUP2 ADD SWAP1 PUSH2 0x10E SWAP2 SWAP1 PUSH2 0xDD2 JUMP JUMPDEST PUSH2 0x43E JUMP JUMPDEST STOP JUMPDEST PUSH2 0x12F PUSH1 0x4 DUP1 CALLDATASIZE SUB DUP2 ADD SWAP1 PUSH2 0x12A SWAP2 SWAP1 PUSH2 0xB7E JUMP JUMPDEST PUSH2 0x4EB JUMP JUMPDEST STOP JUMPDEST PUSH2 0x139 PUSH2 0x601 JUMP JUMPDEST PUSH1 0x40 MLOAD PUSH2 0x146 SWAP2 SWAP1 PUSH2 0xE0C JUMP JUMPDEST PUSH1 0x40 MLOAD DUP1 SWAP2 SUB SWAP1 RETURN JUMPDEST PUSH2 0x169 PUSH1 0x4 DUP1 CALLDATASIZE SUB DUP2 ADD SWAP1 PUSH2 0x164 SWAP2 SWAP1 PUSH2 0xF51 JUMP JUMPDEST PUSH2 0x612 JUMP JUMPDEST STOP JUMPDEST PUSH2 0x173 PUSH2 0x7C9 JUMP JUMPDEST PUSH1 0x40 MLOAD PUSH2 0x180 SWAP2 SWAP1 PUSH2 0xF98 JUMP JUMPDEST PUSH1 0x40 MLOAD DUP1 SWAP2 SUB SWAP1 RETURN JUMPDEST PUSH2 0x1A3 PUSH1 0x4 DUP1 CALLDATASIZE SUB DUP2 ADD SWAP1 PUSH2 0x19E SWAP2 SWAP1 PUSH2 0xB7E JUMP JUMPDEST PUSH2 0x7EE JUMP JUMPDEST STOP JUMPDEST PUSH2 0x1BF PUSH1 0x4 DUP1 CALLDATASIZE SUB DUP2 ADD SWAP1 PUSH2 0x1BA SWAP2 SWAP1 PUSH2 0xFB1 JUMP JUMPDEST PUSH2 0x904 JUMP JUMPDEST PUSH1 0x40 MLOAD PUSH2 0x1CC SWAP2 SWAP1 PUSH2 0x110A JUMP JUMPDEST PUSH1 0x40 MLOAD DUP1 SWAP2 SUB SWAP1 RETURN JUMPDEST PUSH1 0x1 PUSH1 0x20 MSTORE DUP2 PUSH0 MSTORE PUSH1 0x40 PUSH0 KECCAK256 DUP2 DUP2 SLOAD DUP2 LT PUSH2 0x1EE JUMPI PUSH0 DUP1 REVERT JUMPDEST SWAP1 PUSH0 MSTORE PUSH1 0x20 PUSH0 KECCAK256 SWAP1 PUSH1 0x5 MUL ADD PUSH0 SWAP2 POP SWAP2 POP POP DUP1 PUSH0 ADD SLOAD SWAP1 DUP1 PUSH1 0x1 ADD PUSH0 SWAP1 SLOAD SWAP1 PUSH2 0x100 EXP SWAP1 DIV PUSH20 0xFFFFFFFFFFFFFFFFFFFFFFFFFFFFFFFFFFFFFFFF AND SWAP1 DUP1 PUSH1 0x2 ADD DUP1 SLOAD PUSH2 0x239 SWAP1 PUSH2 0x1157 JUMP JUMPDEST DUP1 PUSH1 0x1F ADD PUSH1 0x20 DUP1 SWAP2 DIV MUL PUSH1 0x20 ADD PUSH1 0x40 MLOAD SWAP1 DUP2 ADD PUSH1 0x40 MSTORE DUP1 SWAP3 SWAP2 SWAP1 DUP2 DUP2 MSTORE PUSH1 0x20 ADD DUP3 DUP1 SLOAD PUSH2 0x265 SWAP1 PUSH2 0x1157 JUMP JUMPDEST DUP1 ISZERO PUSH2 0x2B0 JUMPI DUP1 PUSH1 0x1F LT PUSH2 0x287 JUMPI PUSH2 0x100 DUP1 DUP4 SLOAD DIV MUL DUP4 MSTORE SWAP2 PUSH1 0x20 ADD SWAP2 PUSH2 0x2B0 JUMP JUMPDEST DUP3 ADD SWAP2 SWAP1 PUSH0 MSTORE PUSH1 0x20 PUSH0 KECCAK256 SWAP1 JUMPDEST DUP2 SLOAD DUP2 MSTORE SWAP1 PUSH1 0x1 ADD SWAP1 PUSH1 0x20 ADD DUP1 DUP4 GT PUSH2 0x293 JUMPI DUP3 SWAP1 SUB PUSH1 0x1F AND DUP3 ADD SWAP2 JUMPDEST POP POP POP POP POP SWAP1 DUP1 PUSH1 0x3 ADD SLOAD SWAP1 DUP1 PUSH1 0x4 ADD SLOAD SWAP1 POP DUP6 JUMP JUMPDEST PUSH2 0x2CE PUSH2 0xA9F JUMP JUMPDEST PUSH1 0x1 PUSH0 DUP5 PUSH20 0xFFFFFFFFFFFFFFFFFFFFFFFFFFFFFFFFFFFFFFFF AND PUSH20 0xFFFFFFFFFFFFFFFFFFFFFFFFFFFFFFFFFFFFFFFF AND DUP2 MSTORE PUSH1 0x20 ADD SWAP1 DUP2 MSTORE PUSH1 0x20 ADD PUSH0 KECCAK256 DUP3 DUP2 SLOAD DUP2 LT PUSH2 0x31D JUMPI PUSH2 0x31C PUSH2 0x1187 JUMP JUMPDEST JUMPDEST SWAP1 PUSH0 MSTORE PUSH1 0x20 PUSH0 KECCAK256 SWAP1 PUSH1 0x5 MUL ADD PUSH1 0x40 MLOAD DUP1 PUSH1 0xA0 ADD PUSH1 0x40 MSTORE SWAP1 DUP2 PUSH0 DUP3 ADD SLOAD DUP2 MSTORE PUSH1 0x20 ADD PUSH1 0x1 DUP3 ADD PUSH0 SWAP1 SLOAD SWAP1 PUSH2 0x100 EXP SWAP1 DIV PUSH20 0xFFFFFFFFFFFFFFFFFFFFFFFFFFFFFFFFFFFFFFFF AND PUSH20 0xFFFFFFFFFFFFFFFFFFFFFFFFFFFFFFFFFFFFFFFF AND PUSH20 0xFFFFFFFFFFFFFFFFFFFFFFFFFFFFFFFFFFFFFFFF AND DUP2 MSTORE PUSH1 0x20 ADD PUSH1 0x2 DUP3 ADD DUP1 SLOAD PUSH2 0x3A2 SWAP1 PUSH2 0x1157 JUMP JUMPDEST DUP1 PUSH1 0x1F ADD PUSH1 0x20 DUP1 SWAP2 DIV MUL PUSH1 0x20 ADD PUSH1 0x40 MLOAD SWAP1 DUP2 ADD PUSH1 0x40 MSTORE DUP1 SWAP3 SWAP2 SWAP1 DUP2 DUP2 MSTORE PUSH1 0x20 ADD DUP3 DUP1 SLOAD PUSH2 0x3CE SWAP1 PUSH2 0x1157 JUMP JUMPDEST DUP1 ISZERO PUSH2 0x419 JUMPI DUP1 PUSH1 0x1F LT PUSH2 0x3F0 JUMPI PUSH2 0x100 DUP1 DUP4 SLOAD DIV MUL DUP4 MSTORE SWAP2 PUSH1 0x20 ADD SWAP2 PUSH2 0x419 JUMP JUMPDEST DUP3 ADD SWAP2 SWAP1 PUSH0 MSTORE PUSH1 0x20 PUSH0 KECCAK256 SWAP1 JUMPDEST DUP2 SLOAD DUP2 MSTORE SWAP1 PUSH1 0x1 ADD SWAP1 PUSH1 0x20 ADD DUP1 DUP4 GT PUSH2 0x3FC JUMPI DUP3 SWAP1 SUB PUSH1 0x1F AND DUP3 ADD SWAP2 JUMPDEST POP POP POP POP POP DUP2 MSTORE PUSH1 0x20 ADD PUSH1 0x3 DUP3 ADD SLOAD DUP2 MSTORE PUSH1 0x20 ADD PUSH1 0x4 DUP3 ADD SLOAD DUP2 MSTORE POP POP SWAP1 POP SWAP3 SWAP2 POP POP JUMP JUMPDEST PUSH1 0x2 PUSH0 SWAP1 SLOAD SWAP1 PUSH2 0x100 EXP SWAP1 DIV PUSH20 0xFFFFFFFFFFFFFFFFFFFFFFFFFFFFFFFFFFFFFFFF AND PUSH20 0xFFFFFFFFFFFFFFFFFFFFFFFFFFFFFFFFFFFFFFFF AND CALLER PUSH20 0xFFFFFFFFFFFFFFFFFFFFFFFFFFFFFFFFFFFFFFFF AND EQ PUSH2 0x4CD JUMPI PUSH1 0x40 MLOAD PUSH32 0x8C379A000000000000000000000000000000000000000000000000000000000 DUP2 MSTORE PUSH1 0x4 ADD PUSH2 0x4C4 SWAP1 PUSH2 0x1224 JUMP JUMPDEST PUSH1 0x40 MLOAD DUP1 SWAP2 SUB SWAP1 REVERT JUMPDEST DUP1 PUSH0 DUP1 PUSH2 0x100 EXP DUP2 SLOAD DUP2 PUSH2 0xFFFF MUL NOT AND SWAP1 DUP4 PUSH2 0xFFFF AND MUL OR SWAP1 SSTORE POP POP JUMP JUMPDEST DUP1 PUSH1 0x1 PUSH0 DUP5 PUSH20 0xFFFFFFFFFFFFFFFFFFFFFFFFFFFFFFFFFFFFFFFF AND PUSH20 0xFFFFFFFFFFFFFFFFFFFFFFFFFFFFFFFFFFFFFFFF AND DUP2 MSTORE PUSH1 0x20 ADD SWAP1 DUP2 MSTORE PUSH1 0x20 ADD PUSH0 KECCAK256 DUP3 DUP2 SLOAD DUP2 LT PUSH2 0x53B JUMPI PUSH2 0x53A PUSH2 0x1187 JUMP JUMPDEST JUMPDEST SWAP1 PUSH0 MSTORE PUSH1 0x20 PUSH0 KECCAK256 SWAP1 PUSH1 0x5 MUL ADD PUSH0 ADD SLOAD EQ PUSH2 0x58A JUMPI PUSH1 0x40 MLOAD PUSH32 0x8C379A000000000000000000000000000000000000000000000000000000000 DUP2 MSTORE PUSH1 0x4 ADD PUSH2 0x581 SWAP1 PUSH2 0x128C JUMP JUMPDEST PUSH1 0x40 MLOAD DUP1 SWAP2 SUB SWAP1 REVERT JUMPDEST PUSH1 0x1 PUSH0 DUP4 PUSH20 0xFFFFFFFFFFFFFFFFFFFFFFFFFFFFFFFFFFFFFFFF AND PUSH20 0xFFFFFFFFFFFFFFFFFFFFFFFFFFFFFFFFFFFFFFFF AND DUP2 MSTORE PUSH1 0x20 ADD SWAP1 DUP2 MSTORE PUSH1 0x20 ADD PUSH0 KECCAK256 DUP2 DUP2 SLOAD DUP2 LT PUSH2 0x5D9 JUMPI PUSH2 0x5D8 PUSH2 0x1187 JUMP JUMPDEST JUMPDEST SWAP1 PUSH0 MSTORE PUSH1 0x20 PUSH0 KECCAK256 SWAP1 PUSH1 0x5 MUL ADD PUSH1 0x4 ADD PUSH0 DUP2 SLOAD DUP1 SWAP3 SWAP2 SWAP1 PUSH2 0x5F8 SWAP1 PUSH2 0x12D7 JUMP JUMPDEST SWAP2 SWAP1 POP SSTORE POP POP POP JUMP JUMPDEST PUSH0 DUP1 SLOAD SWAP1 PUSH2 0x100 EXP SWAP1 DIV PUSH2 0xFFFF AND DUP2 JUMP JUMPDEST PUSH0 DUP1 SLOAD SWAP1 PUSH2 0x100 EXP SWAP1 DIV PUSH2 0xFFFF AND PUSH2 0xFFFF AND DUP2 MLOAD GT ISZERO PUSH2 0x667 JUMPI PUSH1 0x40 MLOAD PUSH32 0x8C379A000000000000000000000000000000000000000000000000000000000 DUP2 MSTORE PUSH1 0x4 ADD PUSH2 0x65E SWAP1 PUSH2 0x1368 JUMP JUMPDEST PUSH1 0x40 MLOAD DUP1 SWAP2 SUB SWAP1 REVERT JUMPDEST PUSH0 PUSH1 0x40 MLOAD DUP1 PUSH1 0xA0 ADD PUSH1 0x40 MSTORE DUP1 PUSH1 0x1 PUSH0 CALLER PUSH20 0xFFFFFFFFFFFFFFFFFFFFFFFFFFFFFFFFFFFFFFFF AND PUSH20 0xFFFFFFFFFFFFFFFFFFFFFFFFFFFFFFFFFFFFFFFF AND DUP2 MSTORE PUSH1 0x20 ADD SWAP1 DUP2 MSTORE PUSH1 0x20 ADD PUSH0 KECCAK256 DUP1 SLOAD SWAP1 POP DUP2 MSTORE PUSH1 0x20 ADD CALLER PUSH20 0xFFFFFFFFFFFFFFFFFFFFFFFFFFFFFFFFFFFFFFFF AND DUP2 MSTORE PUSH1 0x20 ADD DUP4 DUP2 MSTORE PUSH1 0x20 ADD TIMESTAMP DUP2 MSTORE PUSH1 0x20 ADD PUSH0 DUP2 MSTORE POP SWAP1 POP PUSH1 0x1 PUSH0 CALLER PUSH20 0xFFFFFFFFFFFFFFFFFFFFFFFFFFFFFFFFFFFFFFFF AND PUSH20 0xFFFFFFFFFFFFFFFFFFFFFFFFFFFFFFFFFFFFFFFF AND DUP2 MSTORE PUSH1 0x20 ADD SWAP1 DUP2 MSTORE PUSH1 0x20 ADD PUSH0 KECCAK256 DUP2 SWAP1 DUP1 PUSH1 0x1 DUP2 SLOAD ADD DUP1 DUP3 SSTORE DUP1 SWAP2 POP POP PUSH1 0x1 SWAP1 SUB SWAP1 PUSH0 MSTORE PUSH1 0x20 PUSH0 KECCAK256 SWAP1 PUSH1 0x5 MUL ADD PUSH0 SWAP1 SWAP2 SWAP1 SWAP2 SWAP1 SWAP2 POP PUSH0 DUP3 ADD MLOAD DUP2 PUSH0 ADD SSTORE PUSH1 0x20 DUP3 ADD MLOAD DUP2 PUSH1 0x1 ADD PUSH0 PUSH2 0x100 EXP DUP2 SLOAD DUP2 PUSH20 0xFFFFFFFFFFFFFFFFFFFFFFFFFFFFFFFFFFFFFFFF MUL NOT AND SWAP1 DUP4 PUSH20 0xFFFFFFFFFFFFFFFFFFFFFFFFFFFFFFFFFFFFFFFF AND MUL OR SWAP1 SSTORE POP PUSH1 0x40 DUP3 ADD MLOAD DUP2 PUSH1 0x2 ADD SWAP1 DUP2 PUSH2 0x7AE SWAP2 SWAP1 PUSH2 0x1523 JUMP JUMPDEST POP PUSH1 0x60 DUP3 ADD MLOAD DUP2 PUSH1 0x3 ADD SSTORE PUSH1 0x80 DUP3 ADD MLOAD DUP2 PUSH1 0x4 ADD SSTORE POP POP POP POP JUMP JUMPDEST PUSH1 0x2 PUSH0 SWAP1 SLOAD SWAP1 PUSH2 0x100 EXP SWAP1 DIV PUSH20 0xFFFFFFFFFFFFFFFFFFFFFFFFFFFFFFFFFFFFFFFF AND DUP2 JUMP JUMPDEST DUP1 PUSH1 0x1 PUSH0 DUP5 PUSH20 0xFFFFFFFFFFFFFFFFFFFFFFFFFFFFFFFFFFFFFFFF AND PUSH20 0xFFFFFFFFFFFFFFFFFFFFFFFFFFFFFFFFFFFFFFFF AND DUP2 MSTORE PUSH1 0x20 ADD SWAP1 DUP2 MSTORE PUSH1 0x20 ADD PUSH0 KECCAK256 DUP3 DUP2 SLOAD DUP2 LT PUSH2 0x83E JUMPI PUSH2 0x83D PUSH2 0x1187 JUMP JUMPDEST JUMPDEST SWAP1 PUSH0 MSTORE PUSH1 0x20 PUSH0 KECCAK256 SWAP1 PUSH1 0x5 MUL ADD PUSH0 ADD SLOAD EQ PUSH2 0x88D JUMPI PUSH1 0x40 MLOAD PUSH32 0x8C379A000000000000000000000000000000000000000000000000000000000 DUP2 MSTORE PUSH1 0x4 ADD PUSH2 0x884 SWAP1 PUSH2 0x128C JUMP JUMPDEST PUSH1 0x40 MLOAD DUP1 SWAP2 SUB SWAP1 REVERT JUMPDEST PUSH1 0x1 PUSH0 DUP4 PUSH20 0xFFFFFFFFFFFFFFFFFFFFFFFFFFFFFFFFFFFFFFFF AND PUSH20 0xFFFFFFFFFFFFFFFFFFFFFFFFFFFFFFFFFFFFFFFF AND DUP2 MSTORE PUSH1 0x20 ADD SWAP1 DUP2 MSTORE PUSH1 0x20 ADD PUSH0 KECCAK256 DUP2 DUP2 SLOAD DUP2 LT PUSH2 0x8DC JUMPI PUSH2 0x8DB PUSH2 0x1187 JUMP JUMPDEST JUMPDEST SWAP1 PUSH0 MSTORE PUSH1 0x20 PUSH0 KECCAK256 SWAP1 PUSH1 0x5 MUL ADD PUSH1 0x4 ADD PUSH0 DUP2 SLOAD DUP1 SWAP3 SWAP2 SWAP1 PUSH2 0x8FB SWAP1 PUSH2 0x15F2 JUMP JUMPDEST SWAP2 SWAP1 POP SSTORE POP POP POP JUMP JUMPDEST PUSH1 0x60 PUSH1 0x1 PUSH0 DUP4 PUSH20 0xFFFFFFFFFFFFFFFFFFFFFFFFFFFFFFFFFFFFFFFF AND PUSH20 0xFFFFFFFFFFFFFFFFFFFFFFFFFFFFFFFFFFFFFFFF AND DUP2 MSTORE PUSH1 0x20 ADD SWAP1 DUP2 MSTORE PUSH1 0x20 ADD PUSH0 KECCAK256 DUP1 SLOAD DUP1 PUSH1 0x20 MUL PUSH1 0x20 ADD PUSH1 0x40 MLOAD SWAP1 DUP2 ADD PUSH1 0x40 MSTORE DUP1 SWAP3 SWAP2 SWAP1 DUP2 DUP2 MSTORE PUSH1 0x20 ADD PUSH0 SWAP1 JUMPDEST DUP3 DUP3 LT ISZERO PUSH2 0xA94 JUMPI DUP4 DUP3 SWAP1 PUSH0 MSTORE PUSH1 0x20 PUSH0 KECCAK256 SWAP1 PUSH1 0x5 MUL ADD PUSH1 0x40 MLOAD DUP1 PUSH1 0xA0 ADD PUSH1 0x40 MSTORE SWAP1 DUP2 PUSH0 DUP3 ADD SLOAD DUP2 MSTORE PUSH1 0x20 ADD PUSH1 0x1 DUP3 ADD PUSH0 SWAP1 SLOAD SWAP1 PUSH2 0x100 EXP SWAP1 DIV PUSH20 0xFFFFFFFFFFFFFFFFFFFFFFFFFFFFFFFFFFFFFFFF AND PUSH20 0xFFFFFFFFFFFFFFFFFFFFFFFFFFFFFFFFFFFFFFFF AND PUSH20 0xFFFFFFFFFFFFFFFFFFFFFFFFFFFFFFFFFFFFFFFF AND DUP2 MSTORE PUSH1 0x20 ADD PUSH1 0x2 DUP3 ADD DUP1 SLOAD PUSH2 0x9F1 SWAP1 PUSH2 0x1157 JUMP JUMPDEST DUP1 PUSH1 0x1F ADD PUSH1 0x20 DUP1 SWAP2 DIV MUL PUSH1 0x20 ADD PUSH1 0x40 MLOAD SWAP1 DUP2 ADD PUSH1 0x40 MSTORE DUP1 SWAP3 SWAP2 SWAP1 DUP2 DUP2 MSTORE PUSH1 0x20 ADD DUP3 DUP1 SLOAD PUSH2 0xA1D SWAP1 PUSH2 0x1157 JUMP JUMPDEST DUP1 ISZERO PUSH2 0xA68 JUMPI DUP1 PUSH1 0x1F LT PUSH2 0xA3F JUMPI PUSH2 0x100 DUP1 DUP4 SLOAD DIV MUL DUP4 MSTORE SWAP2 PUSH1 0x20 ADD SWAP2 PUSH2 0xA68 JUMP JUMPDEST DUP3 ADD SWAP2 SWAP1 PUSH0 MSTORE PUSH1 0x20 PUSH0 KECCAK256 SWAP1 JUMPDEST DUP2 SLOAD DUP2 MSTORE SWAP1 PUSH1 0x1 ADD SWAP1 PUSH1 0x20 ADD DUP1 DUP4 GT PUSH2 0xA4B JUMPI DUP3 SWAP1 SUB PUSH1 0x1F AND DUP3 ADD SWAP2 JUMPDEST POP POP POP POP POP DUP2 MSTORE PUSH1 0x20 ADD PUSH1 0x3 DUP3 ADD SLOAD DUP2 MSTORE PUSH1 0x20 ADD PUSH1 0x4 DUP3 ADD SLOAD DUP2 MSTORE POP POP DUP2 MSTORE PUSH1 0x20 ADD SWAP1 PUSH1 0x1 ADD SWAP1 PUSH2 0x962 JUMP JUMPDEST POP POP POP POP SWAP1 POP SWAP2 SWAP1 POP JUMP JUMPDEST PUSH1 0x40 MLOAD DUP1 PUSH1 0xA0 ADD PUSH1 0x40 MSTORE DUP1 PUSH0 DUP2 MSTORE PUSH1 0x20 ADD PUSH0 PUSH20 0xFFFFFFFFFFFFFFFFFFFFFFFFFFFFFFFFFFFFFFFF AND DUP2 MSTORE PUSH1 0x20 ADD PUSH1 0x60 DUP2 MSTORE PUSH1 0x20 ADD PUSH0 DUP2 MSTORE PUSH1 0x20 ADD PUSH0 DUP2 MSTORE POP SWAP1 JUMP JUMPDEST PUSH0 PUSH1 0x40 MLOAD SWAP1 POP SWAP1 JUMP JUMPDEST PUSH0 DUP1 REVERT JUMPDEST PUSH0 DUP1 REVERT JUMPDEST PUSH0 PUSH20 0xFFFFFFFFFFFFFFFFFFFFFFFFFFFFFFFFFFFFFFFF DUP3 AND SWAP1 POP SWAP2 SWAP1 POP JUMP JUMPDEST PUSH0 PUSH2 0xB1A DUP3 PUSH2 0xAF1 JUMP JUMPDEST SWAP1 POP SWAP2 SWAP1 POP JUMP JUMPDEST PUSH2 0xB2A DUP2 PUSH2 0xB10 JUMP JUMPDEST DUP2 EQ PUSH2 0xB34 JUMPI PUSH0 DUP1 REVERT JUMPDEST POP JUMP JUMPDEST PUSH0 DUP2 CALLDATALOAD SWAP1 POP PUSH2 0xB45 DUP2 PUSH2 0xB21 JUMP JUMPDEST SWAP3 SWAP2 POP POP JUMP JUMPDEST PUSH0 DUP2 SWAP1 POP SWAP2 SWAP1 POP JUMP JUMPDEST PUSH2 0xB5D DUP2 PUSH2 0xB4B JUMP JUMPDEST DUP2 EQ PUSH2 0xB67 JUMPI PUSH0 DUP1 REVERT JUMPDEST POP JUMP JUMPDEST PUSH0 DUP2 CALLDATALOAD SWAP1 POP PUSH2 0xB78 DUP2 PUSH2 0xB54 JUMP JUMPDEST SWAP3 SWAP2 POP POP JUMP JUMPDEST PUSH0 DUP1 PUSH1 0x40 DUP4 DUP6 SUB SLT ISZERO PUSH2 0xB94 JUMPI PUSH2 0xB93 PUSH2 0xAE9 JUMP JUMPDEST JUMPDEST PUSH0 PUSH2 0xBA1 DUP6 DUP3 DUP7 ADD PUSH2 0xB37 JUMP JUMPDEST SWAP3 POP POP PUSH1 0x20 PUSH2 0xBB2 DUP6 DUP3 DUP7 ADD PUSH2 0xB6A JUMP JUMPDEST SWAP2 POP POP SWAP3 POP SWAP3 SWAP1 POP JUMP JUMPDEST PUSH2 0xBC5 DUP2 PUSH2 0xB4B JUMP JUMPDEST DUP3 MSTORE POP POP JUMP JUMPDEST PUSH2 0xBD4 DUP2 PUSH2 0xB10 JUMP JUMPDEST DUP3 MSTORE POP POP JUMP JUMPDEST PUSH0 DUP2 MLOAD SWAP1 POP SWAP2 SWAP1 POP JUMP JUMPDEST PUSH0 DUP3 DUP3 MSTORE PUSH1 0x20 DUP3 ADD SWAP1 POP SWAP3 SWAP2 POP POP JUMP JUMPDEST DUP3 DUP2 DUP4 MCOPY PUSH0 DUP4 DUP4 ADD MSTORE POP POP POP JUMP JUMPDEST PUSH0 PUSH1 0x1F NOT PUSH1 0x1F DUP4 ADD AND SWAP1 POP SWAP2 SWAP1 POP JUMP JUMPDEST PUSH0 PUSH2 0xC1C DUP3 PUSH2 0xBDA JUMP JUMPDEST PUSH2 0xC26 DUP2 DUP6 PUSH2 0xBE4 JUMP JUMPDEST SWAP4 POP PUSH2 0xC36 DUP2 DUP6 PUSH1 0x20 DUP7 ADD PUSH2 0xBF4 JUMP JUMPDEST PUSH2 0xC3F DUP2 PUSH2 0xC02 JUMP JUMPDEST DUP5 ADD SWAP2 POP POP SWAP3 SWAP2 POP POP JUMP JUMPDEST PUSH0 PUSH1 0xA0 DUP3 ADD SWAP1 POP PUSH2 0xC5D PUSH0 DUP4 ADD DUP9 PUSH2 0xBBC JUMP JUMPDEST PUSH2 0xC6A PUSH1 0x20 DUP4 ADD DUP8 PUSH2 0xBCB JUMP JUMPDEST DUP2 DUP2 SUB PUSH1 0x40 DUP4 ADD MSTORE PUSH2 0xC7C DUP2 DUP7 PUSH2 0xC12 JUMP JUMPDEST SWAP1 POP PUSH2 0xC8B PUSH1 0x60 DUP4 ADD DUP6 PUSH2 0xBBC JUMP JUMPDEST PUSH2 0xC98 PUSH1 0x80 DUP4 ADD DUP5 PUSH2 0xBBC JUMP JUMPDEST SWAP7 SWAP6 POP POP POP POP POP POP JUMP JUMPDEST PUSH2 0xCAB DUP2 PUSH2 0xB4B JUMP JUMPDEST DUP3 MSTORE POP POP JUMP JUMPDEST PUSH2 0xCBA DUP2 PUSH2 0xB10 JUMP JUMPDEST DUP3 MSTORE POP POP JUMP JUMPDEST PUSH0 DUP3 DUP3 MSTORE PUSH1 0x20 DUP3 ADD SWAP1 POP SWAP3 SWAP2 POP POP JUMP JUMPDEST PUSH0 PUSH2 0xCDA DUP3 PUSH2 0xBDA JUMP JUMPDEST PUSH2 0xCE4 DUP2 DUP6 PUSH2 0xCC0 JUMP JUMPDEST SWAP4 POP PUSH2 0xCF4 DUP2 DUP6 PUSH1 0x20 DUP7 ADD PUSH2 0xBF4 JUMP JUMPDEST PUSH2 0xCFD DUP2 PUSH2 0xC02 JUMP JUMPDEST DUP5 ADD SWAP2 POP POP SWAP3 SWAP2 POP POP JUMP JUMPDEST PUSH0 PUSH1 0xA0 DUP4 ADD PUSH0 DUP4 ADD MLOAD PUSH2 0xD1D PUSH0 DUP7 ADD DUP3 PUSH2 0xCA2 JUMP JUMPDEST POP PUSH1 0x20 DUP4 ADD MLOAD PUSH2 0xD30 PUSH1 0x20 DUP7 ADD DUP3 PUSH2 0xCB1 JUMP JUMPDEST POP PUSH1 0x40 DUP4 ADD MLOAD DUP5 DUP3 SUB PUSH1 0x40 DUP7 ADD MSTORE PUSH2 0xD48 DUP3 DUP3 PUSH2 0xCD0 JUMP JUMPDEST SWAP2 POP POP PUSH1 0x60 DUP4 ADD MLOAD PUSH2 0xD5D PUSH1 0x60 DUP7 ADD DUP3 PUSH2 0xCA2 JUMP JUMPDEST POP PUSH1 0x80 DUP4 ADD MLOAD PUSH2 0xD70 PUSH1 0x80 DUP7 ADD DUP3 PUSH2 0xCA2 JUMP JUMPDEST POP DUP1 SWAP2 POP POP SWAP3 SWAP2 POP POP JUMP JUMPDEST PUSH0 PUSH1 0x20 DUP3 ADD SWAP1 POP DUP2 DUP2 SUB PUSH0 DUP4 ADD MSTORE PUSH2 0xD93 DUP2 DUP5 PUSH2 0xD08 JUMP JUMPDEST SWAP1 POP SWAP3 SWAP2 POP POP JUMP JUMPDEST PUSH0 PUSH2 0xFFFF DUP3 AND SWAP1 POP SWAP2 SWAP1 POP JUMP JUMPDEST PUSH2 0xDB1 DUP2 PUSH2 0xD9B JUMP JUMPDEST DUP2 EQ PUSH2 0xDBB JUMPI PUSH0 DUP1 REVERT JUMPDEST POP JUMP JUMPDEST PUSH0 DUP2 CALLDATALOAD SWAP1 POP PUSH2 0xDCC DUP2 PUSH2 0xDA8 JUMP JUMPDEST SWAP3 SWAP2 POP POP JUMP JUMPDEST PUSH0 PUSH1 0x20 DUP3 DUP5 SUB SLT ISZERO PUSH2 0xDE7 JUMPI PUSH2 0xDE6 PUSH2 0xAE9 JUMP JUMPDEST JUMPDEST PUSH0 PUSH2 0xDF4 DUP5 DUP3 DUP6 ADD PUSH2 0xDBE JUMP JUMPDEST SWAP2 POP POP SWAP3 SWAP2 POP POP JUMP JUMPDEST PUSH2 0xE06 DUP2 PUSH2 0xD9B JUMP JUMPDEST DUP3 MSTORE POP POP JUMP JUMPDEST PUSH0 PUSH1 0x20 DUP3 ADD SWAP1 POP PUSH2 0xE1F PUSH0 DUP4 ADD DUP5 PUSH2 0xDFD JUMP JUMPDEST SWAP3 SWAP2 POP POP JUMP JUMPDEST PUSH0 DUP1 REVERT JUMPDEST PUSH0 DUP1 REVERT JUMPDEST PUSH32 0x4E487B7100000000000000000000000000000000000000000000000000000000 PUSH0 MSTORE PUSH1 0x41 PUSH1 0x4 MSTORE PUSH1 0x24 PUSH0 REVERT JUMPDEST PUSH2 0xE63 DUP3 PUSH2 0xC02 JUMP JUMPDEST DUP2 ADD DUP2 DUP2 LT PUSH8 0xFFFFFFFFFFFFFFFF DUP3 GT OR ISZERO PUSH2 0xE82 JUMPI PUSH2 0xE81 PUSH2 0xE2D JUMP JUMPDEST JUMPDEST DUP1 PUSH1 0x40 MSTORE POP POP POP JUMP JUMPDEST PUSH0 PUSH2 0xE94 PUSH2 0xAE0 JUMP JUMPDEST SWAP1 POP PUSH2 0xEA0 DUP3 DUP3 PUSH2 0xE5A JUMP JUMPDEST SWAP2 SWAP1 POP JUMP JUMPDEST PUSH0 PUSH8 0xFFFFFFFFFFFFFFFF DUP3 GT ISZERO PUSH2 0xEBF JUMPI PUSH2 0xEBE PUSH2 0xE2D JUMP JUMPDEST JUMPDEST PUSH2 0xEC8 DUP3 PUSH2 0xC02 JUMP JUMPDEST SWAP1 POP PUSH1 0x20 DUP2 ADD SWAP1 POP SWAP2 SWAP1 POP JUMP JUMPDEST DUP3 DUP2 DUP4 CALLDATACOPY PUSH0 DUP4 DUP4 ADD MSTORE POP POP POP JUMP JUMPDEST PUSH0 PUSH2 0xEF5 PUSH2 0xEF0 DUP5 PUSH2 0xEA5 JUMP JUMPDEST PUSH2 0xE8B JUMP JUMPDEST SWAP1 POP DUP3 DUP2 MSTORE PUSH1 0x20 DUP2 ADD DUP5 DUP5 DUP5 ADD GT ISZERO PUSH2 0xF11 JUMPI PUSH2 0xF10 PUSH2 0xE29 JUMP JUMPDEST JUMPDEST PUSH2 0xF1C DUP5 DUP3 DUP6 PUSH2 0xED5 JUMP JUMPDEST POP SWAP4 SWAP3 POP POP POP JUMP JUMPDEST PUSH0 DUP3 PUSH1 0x1F DUP4 ADD SLT PUSH2 0xF38 JUMPI PUSH2 0xF37 PUSH2 0xE25 JUMP JUMPDEST JUMPDEST DUP2 CALLDATALOAD PUSH2 0xF48 DUP5 DUP3 PUSH1 0x20 DUP7 ADD PUSH2 0xEE3 JUMP JUMPDEST SWAP2 POP POP SWAP3 SWAP2 POP POP JUMP JUMPDEST PUSH0 PUSH1 0x20 DUP3 DUP5 SUB SLT ISZERO PUSH2 0xF66 JUMPI PUSH2 0xF65 PUSH2 0xAE9 JUMP JUMPDEST JUMPDEST PUSH0 DUP3 ADD CALLDATALOAD PUSH8 0xFFFFFFFFFFFFFFFF DUP2 GT ISZERO PUSH2 0xF83 JUMPI PUSH2 0xF82 PUSH2 0xAED JUMP JUMPDEST JUMPDEST PUSH2 0xF8F DUP5 DUP3 DUP6 ADD PUSH2 0xF24 JUMP JUMPDEST SWAP2 POP POP SWAP3 SWAP2 POP POP JUMP JUMPDEST PUSH0 PUSH1 0x20 DUP3 ADD SWAP1 POP PUSH2 0xFAB PUSH0 DUP4 ADD DUP5 PUSH2 0xBCB JUMP JUMPDEST SWAP3 SWAP2 POP POP JUMP JUMPDEST PUSH0 PUSH1 0x20 DUP3 DUP5 SUB SLT ISZERO PUSH2 0xFC6 JUMPI PUSH2 0xFC5 PUSH2 0xAE9 JUMP JUMPDEST JUMPDEST PUSH0 PUSH2 0xFD3 DUP5 DUP3 DUP6 ADD PUSH2 0xB37 JUMP JUMPDEST SWAP2 POP POP SWAP3 SWAP2 POP POP JUMP JUMPDEST PUSH0 DUP2 MLOAD SWAP1 POP SWAP2 SWAP1 POP JUMP JUMPDEST PUSH0 DUP3 DUP3 MSTORE PUSH1 0x20 DUP3 ADD SWAP1 POP SWAP3 SWAP2 POP POP JUMP JUMPDEST PUSH0 DUP2 SWAP1 POP PUSH1 0x20 DUP3 ADD SWAP1 POP SWAP2 SWAP1 POP JUMP JUMPDEST PUSH0 PUSH1 0xA0 DUP4 ADD PUSH0 DUP4 ADD MLOAD PUSH2 0x101A PUSH0 DUP7 ADD DUP3 PUSH2 0xCA2 JUMP JUMPDEST POP PUSH1 0x20 DUP4 ADD MLOAD PUSH2 0x102D PUSH1 0x20 DUP7 ADD DUP3 PUSH2 0xCB1 JUMP JUMPDEST POP PUSH1 0x40 DUP4 ADD MLOAD DUP5 DUP3 SUB PUSH1 0x40 DUP7 ADD MSTORE PUSH2 0x1045 DUP3 DUP3 PUSH2 0xCD0 JUMP JUMPDEST SWAP2 POP POP PUSH1 0x60 DUP4 ADD MLOAD PUSH2 0x105A PUSH1 0x60 DUP7 ADD DUP3 PUSH2 0xCA2 JUMP JUMPDEST POP PUSH1 0x80 DUP4 ADD MLOAD PUSH2 0x106D PUSH1 0x80 DUP7 ADD DUP3 PUSH2 0xCA2 JUMP JUMPDEST POP DUP1 SWAP2 POP POP SWAP3 SWAP2 POP POP JUMP JUMPDEST PUSH0 PUSH2 0x1083 DUP4 DUP4 PUSH2 0x1005 JUMP JUMPDEST SWAP1 POP SWAP3 SWAP2 POP POP JUMP JUMPDEST PUSH0 PUSH1 0x20 DUP3 ADD SWAP1 POP SWAP2 SWAP1 POP JUMP JUMPDEST PUSH0 PUSH2 0x10A1 DUP3 PUSH2 0xFDC JUMP JUMPDEST PUSH2 0x10AB DUP2 DUP6 PUSH2 0xFE6 JUMP JUMPDEST SWAP4 POP DUP4 PUSH1 0x20 DUP3 MUL DUP6 ADD PUSH2 0x10BD DUP6 PUSH2 0xFF6 JUMP JUMPDEST DUP1 PUSH0 JUMPDEST DUP6 DUP2 LT ISZERO PUSH2 0x10F8 JUMPI DUP5 DUP5 SUB DUP10 MSTORE DUP2 MLOAD PUSH2 0x10D9 DUP6 DUP3 PUSH2 0x1078 JUMP JUMPDEST SWAP5 POP PUSH2 0x10E4 DUP4 PUSH2 0x108B JUMP JUMPDEST SWAP3 POP PUSH1 0x20 DUP11 ADD SWAP10 POP POP PUSH1 0x1 DUP2 ADD SWAP1 POP PUSH2 0x10C0 JUMP JUMPDEST POP DUP3 SWAP8 POP DUP8 SWAP6 POP POP POP POP POP POP SWAP3 SWAP2 POP POP JUMP JUMPDEST PUSH0 PUSH1 0x20 DUP3 ADD SWAP1 POP DUP2 DUP2 SUB PUSH0 DUP4 ADD MSTORE PUSH2 0x1122 DUP2 DUP5 PUSH2 0x1097 JUMP JUMPDEST SWAP1 POP SWAP3 SWAP2 POP POP JUMP JUMPDEST PUSH32 0x4E487B7100000000000000000000000000000000000000000000000000000000 PUSH0 MSTORE PUSH1 0x22 PUSH1 0x4 MSTORE PUSH1 0x24 PUSH0 REVERT JUMPDEST PUSH0 PUSH1 0x2 DUP3 DIV SWAP1 POP PUSH1 0x1 DUP3 AND DUP1 PUSH2 0x116E JUMPI PUSH1 0x7F DUP3 AND SWAP2 POP JUMPDEST PUSH1 0x20 DUP3 LT DUP2 SUB PUSH2 0x1181 JUMPI PUSH2 0x1180 PUSH2 0x112A JUMP JUMPDEST JUMPDEST POP SWAP2 SWAP1 POP JUMP JUMPDEST PUSH32 0x4E487B7100000000000000000000000000000000000000000000000000000000 PUSH0 MSTORE PUSH1 0x32 PUSH1 0x4 MSTORE PUSH1 0x24 PUSH0 REVERT JUMPDEST PUSH32 0x796F7520617265206E6F7420746865206F776E6572206F662074686520636F6E PUSH0 DUP3 ADD MSTORE PUSH32 0x7472616374210000000000000000000000000000000000000000000000000000 PUSH1 0x20 DUP3 ADD MSTORE POP JUMP JUMPDEST PUSH0 PUSH2 0x120E PUSH1 0x26 DUP4 PUSH2 0xBE4 JUMP JUMPDEST SWAP2 POP PUSH2 0x1219 DUP3 PUSH2 0x11B4 JUMP JUMPDEST PUSH1 0x40 DUP3 ADD SWAP1 POP SWAP2 SWAP1 POP JUMP JUMPDEST PUSH0 PUSH1 0x20 DUP3 ADD SWAP1 POP DUP2 DUP2 SUB PUSH0 DUP4 ADD MSTORE PUSH2 0x123B DUP2 PUSH2 0x1202 JUMP JUMPDEST SWAP1 POP SWAP2 SWAP1 POP JUMP JUMPDEST PUSH32 0x747765657420646F65736E277420657869737400000000000000000000000000 PUSH0 DUP3 ADD MSTORE POP JUMP JUMPDEST PUSH0 PUSH2 0x1276 PUSH1 0x13 DUP4 PUSH2 0xBE4 JUMP JUMPDEST SWAP2 POP PUSH2 0x1281 DUP3 PUSH2 0x1242 JUMP JUMPDEST PUSH1 0x20 DUP3 ADD SWAP1 POP SWAP2 SWAP1 POP JUMP JUMPDEST PUSH0 PUSH1 0x20 DUP3 ADD SWAP1 POP DUP2 DUP2 SUB PUSH0 DUP4 ADD MSTORE PUSH2 0x12A3 DUP2 PUSH2 0x126A JUMP JUMPDEST SWAP1 POP SWAP2 SWAP1 POP JUMP JUMPDEST PUSH32 0x4E487B7100000000000000000000000000000000000000000000000000000000 PUSH0 MSTORE PUSH1 0x11 PUSH1 0x4 MSTORE PUSH1 0x24 PUSH0 REVERT JUMPDEST PUSH0 PUSH2 0x12E1 DUP3 PUSH2 0xB4B JUMP JUMPDEST SWAP2 POP PUSH32 0xFFFFFFFFFFFFFFFFFFFFFFFFFFFFFFFFFFFFFFFFFFFFFFFFFFFFFFFFFFFFFFFF DUP3 SUB PUSH2 0x1313 JUMPI PUSH2 0x1312 PUSH2 0x12AA JUMP JUMPDEST JUMPDEST PUSH1 0x1 DUP3 ADD SWAP1 POP SWAP2 SWAP1 POP JUMP JUMPDEST PUSH32 0x746F6F206C6F6E67210000000000000000000000000000000000000000000000 PUSH0 DUP3 ADD MSTORE POP JUMP JUMPDEST PUSH0 PUSH2 0x1352 PUSH1 0x9 DUP4 PUSH2 0xBE4 JUMP JUMPDEST SWAP2 POP PUSH2 0x135D DUP3 PUSH2 0x131E JUMP JUMPDEST PUSH1 0x20 DUP3 ADD SWAP1 POP SWAP2 SWAP1 POP JUMP JUMPDEST PUSH0 PUSH1 0x20 DUP3 ADD SWAP1 POP DUP2 DUP2 SUB PUSH0 DUP4 ADD MSTORE PUSH2 0x137F DUP2 PUSH2 0x1346 JUMP JUMPDEST SWAP1 POP SWAP2 SWAP1 POP JUMP JUMPDEST PUSH0 DUP2 SWAP1 POP DUP2 PUSH0 MSTORE PUSH1 0x20 PUSH0 KECCAK256 SWAP1 POP SWAP2 SWAP1 POP JUMP JUMPDEST PUSH0 PUSH1 0x20 PUSH1 0x1F DUP4 ADD DIV SWAP1 POP SWAP2 SWAP1 POP JUMP JUMPDEST PUSH0 DUP3 DUP3 SHL SWAP1 POP SWAP3 SWAP2 POP POP JUMP JUMPDEST PUSH0 PUSH1 0x8 DUP4 MUL PUSH2 0x13E2 PUSH32 0xFFFFFFFFFFFFFFFFFFFFFFFFFFFFFFFFFFFFFFFFFFFFFFFFFFFFFFFFFFFFFFFF DUP3 PUSH2 0x13A7 JUMP JUMPDEST PUSH2 0x13EC DUP7 DUP4 PUSH2 0x13A7 JUMP JUMPDEST SWAP6 POP DUP1 NOT DUP5 AND SWAP4 POP DUP1 DUP7 AND DUP5 OR SWAP3 POP POP POP SWAP4 SWAP3 POP POP POP JUMP JUMPDEST PUSH0 DUP2 SWAP1 POP SWAP2 SWAP1 POP JUMP JUMPDEST PUSH0 PUSH2 0x1427 PUSH2 0x1422 PUSH2 0x141D DUP5 PUSH2 0xB4B JUMP JUMPDEST PUSH2 0x1404 JUMP JUMPDEST PUSH2 0xB4B JUMP JUMPDEST SWAP1 POP SWAP2 SWAP1 POP JUMP JUMPDEST PUSH0 DUP2 SWAP1 POP SWAP2 SWAP1 POP JUMP JUMPDEST PUSH2 0x1440 DUP4 PUSH2 0x140D JUMP JUMPDEST PUSH2 0x1454 PUSH2 0x144C DUP3 PUSH2 0x142E JUMP JUMPDEST DUP5 DUP5 SLOAD PUSH2 0x13B3 JUMP JUMPDEST DUP3 SSTORE POP POP POP POP JUMP JUMPDEST PUSH0 SWAP1 JUMP JUMPDEST PUSH2 0x1468 PUSH2 0x145C JUMP JUMPDEST PUSH2 0x1473 DUP2 DUP5 DUP5 PUSH2 0x1437 JUMP JUMPDEST POP POP POP JUMP JUMPDEST JUMPDEST DUP2 DUP2 LT ISZERO PUSH2 0x1496 JUMPI PUSH2 0x148B PUSH0 DUP3 PUSH2 0x1460 JUMP JUMPDEST PUSH1 0x1 DUP2 ADD SWAP1 POP PUSH2 0x1479 JUMP JUMPDEST POP POP JUMP JUMPDEST PUSH1 0x1F DUP3 GT ISZERO PUSH2 0x14DB JUMPI PUSH2 0x14AC DUP2 PUSH2 0x1386 JUMP JUMPDEST PUSH2 0x14B5 DUP5 PUSH2 0x1398 JUMP JUMPDEST DUP2 ADD PUSH1 0x20 DUP6 LT ISZERO PUSH2 0x14C4 JUMPI DUP2 SWAP1 POP JUMPDEST PUSH2 0x14D8 PUSH2 0x14D0 DUP6 PUSH2 0x1398 JUMP JUMPDEST DUP4 ADD DUP3 PUSH2 0x1478 JUMP JUMPDEST POP POP JUMPDEST POP POP POP JUMP JUMPDEST PUSH0 DUP3 DUP3 SHR SWAP1 POP SWAP3 SWAP2 POP POP JUMP JUMPDEST PUSH0 PUSH2 0x14FB PUSH0 NOT DUP5 PUSH1 0x8 MUL PUSH2 0x14E0 JUMP JUMPDEST NOT DUP1 DUP4 AND SWAP2 POP POP SWAP3 SWAP2 POP POP JUMP JUMPDEST PUSH0 PUSH2 0x1513 DUP4 DUP4 PUSH2 0x14EC JUMP JUMPDEST SWAP2 POP DUP3 PUSH1 0x2 MUL DUP3 OR SWAP1 POP SWAP3 SWAP2 POP POP JUMP JUMPDEST PUSH2 0x152C DUP3 PUSH2 0xBDA JUMP JUMPDEST PUSH8 0xFFFFFFFFFFFFFFFF DUP2 GT ISZERO PUSH2 0x1545 JUMPI PUSH2 0x1544 PUSH2 0xE2D JUMP JUMPDEST JUMPDEST PUSH2 0x154F DUP3 SLOAD PUSH2 0x1157 JUMP JUMPDEST PUSH2 0x155A DUP3 DUP3 DUP6 PUSH2 0x149A JUMP JUMPDEST PUSH0 PUSH1 0x20 SWAP1 POP PUSH1 0x1F DUP4 GT PUSH1 0x1 DUP2 EQ PUSH2 0x158B JUMPI PUSH0 DUP5 ISZERO PUSH2 0x1579 JUMPI DUP3 DUP8 ADD MLOAD SWAP1 POP JUMPDEST PUSH2 0x1583 DUP6 DUP3 PUSH2 0x1508 JUMP JUMPDEST DUP7 SSTORE POP PUSH2 0x15EA JUMP JUMPDEST PUSH1 0x1F NOT DUP5 AND PUSH2 0x1599 DUP7 PUSH2 0x1386 JUMP JUMPDEST PUSH0 JUMPDEST DUP3 DUP2 LT ISZERO PUSH2 0x15C0 JUMPI DUP5 DUP10 ADD MLOAD DUP3 SSTORE PUSH1 0x1 DUP3 ADD SWAP2 POP PUSH1 0x20 DUP6 ADD SWAP5 POP PUSH1 0x20 DUP2 ADD SWAP1 POP PUSH2 0x159B JUMP JUMPDEST DUP7 DUP4 LT ISZERO PUSH2 0x15DD JUMPI DUP5 DUP10 ADD MLOAD PUSH2 0x15D9 PUSH1 0x1F DUP10 AND DUP3 PUSH2 0x14EC JUMP JUMPDEST DUP4 SSTORE POP JUMPDEST PUSH1 0x1 PUSH1 0x2 DUP9 MUL ADD DUP9 SSTORE POP POP POP JUMPDEST POP POP POP POP POP POP JUMP JUMPDEST PUSH0 PUSH2 0x15FC DUP3 PUSH2 0xB4B JUMP JUMPDEST SWAP2 POP PUSH0 DUP3 SUB PUSH2 0x160E JUMPI PUSH2 0x160D PUSH2 0x12AA JUMP JUMPDEST JUMPDEST PUSH1 0x1 DUP3 SUB SWAP1 POP SWAP2 SWAP1 POP JUMP INVALID LOG2 PUSH5 0x6970667358 0x22 SLT KECCAK256 0xD0 PUSH14 0xA5BFB0066C373480533D2A24FF54 SAR CALLDATALOAD 0x21 0xCB 0xFB LT DUP8 SMOD 0xEE 0x29 0xC9 0xFB LOG1 JUMPDEST PUSH7 0x4064736F6C6343 STOP ADDMOD BYTE STOP CALLER "
				},
				"gasEstimates": {
					"creation": {
						"codeDepositCost": "1142200",
						"executionCost": "49716",
						"totalCost": "1191916"
					},
					"external": {
						"changeTweetLength(uint16)": "26887",
						"createTweet(string)": "infinite",
						"dislikeTweet(address,uint256)": "infinite",
						"getAllTweet(address)": "infinite",
						"getTweet(address,uint256)": "infinite",
						"likeTweet(address,uint256)": "infinite",
						"max_char_in_tweet()": "2463",
						"owner()": "2552",
						"tweets(address,uint256)": "infinite"
					}
				},
				"methodIdentifiers": {
					"changeTweetLength(uint16)": "58bfa4ab",
					"createTweet(string)": "7c9cd2bc",
					"dislikeTweet(address,uint256)": "ae775e95",
					"getAllTweet(address)": "b64988b8",
					"getTweet(address,uint256)": "112f54e3",
					"likeTweet(address,uint256)": "63378216",
					"max_char_in_tweet()": "63a7c3aa",
					"owner()": "8da5cb5b",
					"tweets(address,uint256)": "05a1b4a9"
				}
			},
			"storageLayout": {
				"storage": [
					{
						"astId": 4,
						"contract": "contracts/Twitter.sol:Twitter",
						"label": "max_char_in_tweet",
						"offset": 0,
						"slot": "0",
						"type": "t_uint16"
					},
					{
						"astId": 21,
						"contract": "contracts/Twitter.sol:Twitter",
						"label": "tweets",
						"offset": 0,
						"slot": "1",
						"type": "t_mapping(t_address,t_array(t_struct(Tweet)15_storage)dyn_storage)"
					},
					{
						"astId": 23,
						"contract": "contracts/Twitter.sol:Twitter",
						"label": "owner",
						"offset": 0,
						"slot": "2",
						"type": "t_address"
					}
				],
				"types": {
					"t_address": {
						"encoding": "inplace",
						"label": "address",
						"numberOfBytes": "20"
					},
					"t_array(t_struct(Tweet)15_storage)dyn_storage": {
						"base": "t_struct(Tweet)15_storage",
						"encoding": "dynamic_array",
						"label": "struct Twitter.Tweet[]",
						"numberOfBytes": "32"
					},
					"t_mapping(t_address,t_array(t_struct(Tweet)15_storage)dyn_storage)": {
						"encoding": "mapping",
						"key": "t_address",
						"label": "mapping(address => struct Twitter.Tweet[])",
						"numberOfBytes": "32",
						"value": "t_array(t_struct(Tweet)15_storage)dyn_storage"
					},
					"t_string_storage": {
						"encoding": "bytes",
						"label": "string",
						"numberOfBytes": "32"
					},
					"t_struct(Tweet)15_storage": {
						"encoding": "inplace",
						"label": "struct Twitter.Tweet",
						"members": [
							{
								"astId": 6,
								"contract": "contracts/Twitter.sol:Twitter",
								"label": "id",
								"offset": 0,
								"slot": "0",
								"type": "t_uint256"
							},
							{
								"astId": 8,
								"contract": "contracts/Twitter.sol:Twitter",
								"label": "author",
								"offset": 0,
								"slot": "1",
								"type": "t_address"
							},
							{
								"astId": 10,
								"contract": "contracts/Twitter.sol:Twitter",
								"label": "content",
								"offset": 0,
								"slot": "2",
								"type": "t_string_storage"
							},
							{
								"astId": 12,
								"contract": "contracts/Twitter.sol:Twitter",
								"label": "timestamp",
								"offset": 0,
								"slot": "3",
								"type": "t_uint256"
							},
							{
								"astId": 14,
								"contract": "contracts/Twitter.sol:Twitter",
								"label": "likes",
								"offset": 0,
								"slot": "4",
								"type": "t_uint256"
							}
						],
						"numberOfBytes": "160"
					},
					"t_uint16": {
						"encoding": "inplace",
						"label": "uint16",
						"numberOfBytes": "2"
					},
					"t_uint256": {
						"encoding": "inplace",
						"label": "uint256",
						"numberOfBytes": "32"
					}
				}
			},
			"userdoc": {
				"kind": "user",
				"methods": {},
				"version": 1
			}
		}
	}
}