{
	"data": {
		"bytecode": {
			"linkReferences": {},
			"object": "60806040525f80553480156011575f80fd5b506103d08061001f5f395ff3fe608060405234801561000f575f80fd5b5060043610610055575f3560e01c806319e4afbd146100595780636d4ce63c1461007557806387db03b7146100935780638acf5861146100af578063fa3bd6c5146100cb575b5f80fd5b610073600480360381019061006e919061018e565b6100e7565b005b61007d610101565b60405161008a91906101c8565b60405180910390f35b6100ad60048036038101906100a8919061018e565b610109565b005b6100c960048036038101906100c4919061018e565b610123565b005b6100e560048036038101906100e0919061018e565b61013d565b005b805f808282546100f7919061023b565b9250508190555050565b5f8054905090565b805f8082825461011991906102a3565b9250508190555050565b805f8082825461013391906102e4565b9250508190555050565b805f8082825461014d919061035a565b9250508190555050565b5f80fd5b5f819050919050565b61016d8161015b565b8114610177575f80fd5b50565b5f8135905061018881610164565b92915050565b5f602082840312156101a3576101a2610157565b5b5f6101b08482850161017a565b91505092915050565b6101c28161015b565b82525050565b5f6020820190506101db5f8301846101b9565b92915050565b7f4e487b71000000000000000000000000000000000000000000000000000000005f52601260045260245ffd5b7f4e487b71000000000000000000000000000000000000000000000000000000005f52601160045260245ffd5b5f6102458261015b565b91506102508361015b565b9250826102605761025f6101e1565b5b60015f0383147f8000000000000000000000000000000000000000000000000000000000000000831416156102985761029761020e565b5b828205905092915050565b5f6102ad8261015b565b91506102b88361015b565b92508282019050828112155f8312168382125f8412151617156102de576102dd61020e565b5b92915050565b5f6102ee8261015b565b91506102f98361015b565b92508282026103078161015b565b91507f800000000000000000000000000000000000000000000000000000000000000084145f8412161561033e5761033d61020e565b5b82820584148315176103535761035261020e565b5b5092915050565b5f6103648261015b565b915061036f8361015b565b925082820390508181125f8412168282135f8512151617156103945761039361020e565b5b9291505056fea2646970667358221220c1657db72f33def44ece5533e43472260ae14112f19e9cf740537b2ef059713c64736f6c634300081a0033",
			"opcodes": "PUSH1 0x80 PUSH1 0x40 MSTORE PUSH0 DUP1 SSTORE CALLVALUE DUP1 ISZERO PUSH1 0x11 JUMPI PUSH0 DUP1 REVERT JUMPDEST POP PUSH2 0x3D0 DUP1 PUSH2 0x1F PUSH0 CODECOPY PUSH0 RETURN INVALID PUSH1 0x80 PUSH1 0x40 MSTORE CALLVALUE DUP1 ISZERO PUSH2 0xF JUMPI PUSH0 DUP1 REVERT JUMPDEST POP PUSH1 0x4 CALLDATASIZE LT PUSH2 0x55 JUMPI PUSH0 CALLDATALOAD PUSH1 0xE0 SHR DUP1 PUSH4 0x19E4AFBD EQ PUSH2 0x59 JUMPI DUP1 PUSH4 0x6D4CE63C EQ PUSH2 0x75 JUMPI DUP1 PUSH4 0x87DB03B7 EQ PUSH2 0x93 JUMPI DUP1 PUSH4 0x8ACF5861 EQ PUSH2 0xAF JUMPI DUP1 PUSH4 0xFA3BD6C5 EQ PUSH2 0xCB JUMPI JUMPDEST PUSH0 DUP1 REVERT JUMPDEST PUSH2 0x73 PUSH1 0x4 DUP1 CALLDATASIZE SUB DUP2 ADD SWAP1 PUSH2 0x6E SWAP2 SWAP1 PUSH2 0x18E JUMP JUMPDEST PUSH2 0xE7 JUMP JUMPDEST STOP JUMPDEST PUSH2 0x7D PUSH2 0x101 JUMP JUMPDEST PUSH1 0x40 MLOAD PUSH2 0x8A SWAP2 SWAP1 PUSH2 0x1C8 JUMP JUMPDEST PUSH1 0x40 MLOAD DUP1 SWAP2 SUB SWAP1 RETURN JUMPDEST PUSH2 0xAD PUSH1 0x4 DUP1 CALLDATASIZE SUB DUP2 ADD SWAP1 PUSH2 0xA8 SWAP2 SWAP1 PUSH2 0x18E JUMP JUMPDEST PUSH2 0x109 JUMP JUMPDEST STOP JUMPDEST PUSH2 0xC9 PUSH1 0x4 DUP1 CALLDATASIZE SUB DUP2 ADD SWAP1 PUSH2 0xC4 SWAP2 SWAP1 PUSH2 0x18E JUMP JUMPDEST PUSH2 0x123 JUMP JUMPDEST STOP JUMPDEST PUSH2 0xE5 PUSH1 0x4 DUP1 CALLDATASIZE SUB DUP2 ADD SWAP1 PUSH2 0xE0 SWAP2 SWAP1 PUSH2 0x18E JUMP JUMPDEST PUSH2 0x13D JUMP JUMPDEST STOP JUMPDEST DUP1 PUSH0 DUP1 DUP3 DUP3 SLOAD PUSH2 0xF7 SWAP2 SWAP1 PUSH2 0x23B JUMP JUMPDEST SWAP3 POP POP DUP2 SWAP1 SSTORE POP POP JUMP JUMPDEST PUSH0 DUP1 SLOAD SWAP1 POP SWAP1 JUMP JUMPDEST DUP1 PUSH0 DUP1 DUP3 DUP3 SLOAD PUSH2 0x119 SWAP2 SWAP1 PUSH2 0x2A3 JUMP JUMPDEST SWAP3 POP POP DUP2 SWAP1 SSTORE POP POP JUMP JUMPDEST DUP1 PUSH0 DUP1 DUP3 DUP3 SLOAD PUSH2 0x133 SWAP2 SWAP1 PUSH2 0x2E4 JUMP JUMPDEST SWAP3 POP POP DUP2 SWAP1 SSTORE POP POP JUMP JUMPDEST DUP1 PUSH0 DUP1 DUP3 DUP3 SLOAD PUSH2 0x14D SWAP2 SWAP1 PUSH2 0x35A JUMP JUMPDEST SWAP3 POP POP DUP2 SWAP1 SSTORE POP POP JUMP JUMPDEST PUSH0 DUP1 REVERT JUMPDEST PUSH0 DUP2 SWAP1 POP SWAP2 SWAP1 POP JUMP JUMPDEST PUSH2 0x16D DUP2 PUSH2 0x15B JUMP JUMPDEST DUP2 EQ PUSH2 0x177 JUMPI PUSH0 DUP1 REVERT JUMPDEST POP JUMP JUMPDEST PUSH0 DUP2 CALLDATALOAD SWAP1 POP PUSH2 0x188 DUP2 PUSH2 0x164 JUMP JUMPDEST SWAP3 SWAP2 POP POP JUMP JUMPDEST PUSH0 PUSH1 0x20 DUP3 DUP5 SUB SLT ISZERO PUSH2 0x1A3 JUMPI PUSH2 0x1A2 PUSH2 0x157 JUMP JUMPDEST JUMPDEST PUSH0 PUSH2 0x1B0 DUP5 DUP3 DUP6 ADD PUSH2 0x17A JUMP JUMPDEST SWAP2 POP POP SWAP3 SWAP2 POP POP JUMP JUMPDEST PUSH2 0x1C2 DUP2 PUSH2 0x15B JUMP JUMPDEST DUP3 MSTORE POP POP JUMP JUMPDEST PUSH0 PUSH1 0x20 DUP3 ADD SWAP1 POP PUSH2 0x1DB PUSH0 DUP4 ADD DUP5 PUSH2 0x1B9 JUMP JUMPDEST SWAP3 SWAP2 POP POP JUMP JUMPDEST PUSH32 0x4E487B7100000000000000000000000000000000000000000000000000000000 PUSH0 MSTORE PUSH1 0x12 PUSH1 0x4 MSTORE PUSH1 0x24 PUSH0 REVERT JUMPDEST PUSH32 0x4E487B7100000000000000000000000000000000000000000000000000000000 PUSH0 MSTORE PUSH1 0x11 PUSH1 0x4 MSTORE PUSH1 0x24 PUSH0 REVERT JUMPDEST PUSH0 PUSH2 0x245 DUP3 PUSH2 0x15B JUMP JUMPDEST SWAP2 POP PUSH2 0x250 DUP4 PUSH2 0x15B JUMP JUMPDEST SWAP3 POP DUP3 PUSH2 0x260 JUMPI PUSH2 0x25F PUSH2 0x1E1 JUMP JUMPDEST JUMPDEST PUSH1 0x1 PUSH0 SUB DUP4 EQ PUSH32 0x8000000000000000000000000000000000000000000000000000000000000000 DUP4 EQ AND ISZERO PUSH2 0x298 JUMPI PUSH2 0x297 PUSH2 0x20E JUMP JUMPDEST JUMPDEST DUP3 DUP3 SDIV SWAP1 POP SWAP3 SWAP2 POP POP JUMP JUMPDEST PUSH0 PUSH2 0x2AD DUP3 PUSH2 0x15B JUMP JUMPDEST SWAP2 POP PUSH2 0x2B8 DUP4 PUSH2 0x15B JUMP JUMPDEST SWAP3 POP DUP3 DUP3 ADD SWAP1 POP DUP3 DUP2 SLT ISZERO PUSH0 DUP4 SLT AND DUP4 DUP3 SLT PUSH0 DUP5 SLT ISZERO AND OR ISZERO PUSH2 0x2DE JUMPI PUSH2 0x2DD PUSH2 0x20E JUMP JUMPDEST JUMPDEST SWAP3 SWAP2 POP POP JUMP JUMPDEST PUSH0 PUSH2 0x2EE DUP3 PUSH2 0x15B JUMP JUMPDEST SWAP2 POP PUSH2 0x2F9 DUP4 PUSH2 0x15B JUMP JUMPDEST SWAP3 POP DUP3 DUP3 MUL PUSH2 0x307 DUP2 PUSH2 0x15B JUMP JUMPDEST SWAP2 POP PUSH32 0x8000000000000000000000000000000000000000000000000000000000000000 DUP5 EQ PUSH0 DUP5 SLT AND ISZERO PUSH2 0x33E JUMPI PUSH2 0x33D PUSH2 0x20E JUMP JUMPDEST JUMPDEST DUP3 DUP3 SDIV DUP5 EQ DUP4 ISZERO OR PUSH2 0x353 JUMPI PUSH2 0x352 PUSH2 0x20E JUMP JUMPDEST JUMPDEST POP SWAP3 SWAP2 POP POP JUMP JUMPDEST PUSH0 PUSH2 0x364 DUP3 PUSH2 0x15B JUMP JUMPDEST SWAP2 POP PUSH2 0x36F DUP4 PUSH2 0x15B JUMP JUMPDEST SWAP3 POP DUP3 DUP3 SUB SWAP1 POP DUP2 DUP2 SLT PUSH0 DUP5 SLT AND DUP3 DUP3 SGT PUSH0 DUP6 SLT ISZERO AND OR ISZERO PUSH2 0x394 JUMPI PUSH2 0x393 PUSH2 0x20E JUMP JUMPDEST JUMPDEST SWAP3 SWAP2 POP POP JUMP INVALID LOG2 PUSH5 0x6970667358 0x22 SLT KECCAK256 0xC1 PUSH6 0x7DB72F33DEF4 0x4E 0xCE SSTORE CALLER 0xE4 CALLVALUE PUSH19 0x260AE14112F19E9CF740537B2EF059713C6473 PUSH16 0x6C634300081A00330000000000000000 "
		},
		"gasEstimates": {
			"creation": {
				"codeDepositCost": "195200",
				"executionCost": "5241",
				"totalCost": "200441"
			},
			"external": {
				"add(int256)": "infinite",
				"div(int256)": "infinite",
				"get()": "2432",
				"mul(int256)": "infinite",
				"sub(int256)": "infinite"
			}
		},
		"methodIdentifiers": {
			"add(int256)": "87db03b7",
			"div(int256)": "19e4afbd",
			"get()": "6d4ce63c",
			"mul(int256)": "8acf5861",
			"sub(int256)": "fa3bd6c5"
		}
	},
	"abi": [
		{
			"inputs": [
				{
					"internalType": "int256",
					"name": "num",
					"type": "int256"
				}
			],
			"name": "add",
			"outputs": [],
			"stateMutability": "nonpayable",
			"type": "function"
		},
		{
			"inputs": [
				{
					"internalType": "int256",
					"name": "num",
					"type": "int256"
				}
			],
			"name": "div",
			"outputs": [],
			"stateMutability": "nonpayable",
			"type": "function"
		},
		{
			"inputs": [],
			"name": "get",
			"outputs": [
				{
					"internalType": "int256",
					"name": "",
					"type": "int256"
				}
			],
			"stateMutability": "view",
			"type": "function"
		},
		{
			"inputs": [
				{
					"internalType": "int256",
					"name": "num",
					"type": "int256"
				}
			],
			"name": "mul",
			"outputs": [],
			"stateMutability": "nonpayable",
			"type": "function"
		},
		{
			"inputs": [
				{
					"internalType": "int256",
					"name": "num",
					"type": "int256"
				}
			],
			"name": "sub",
			"outputs": [],
			"stateMutability": "nonpayable",
			"type": "function"
		}
	]
}